{
  "_format": "hh-sol-artifact-1",
  "contractName": "BatchDataMigration",
  "sourceName": "contracts/BatchDataMigration.sol",
  "abi": [
    {
      "inputs": [],
      "stateMutability": "nonpayable",
      "type": "constructor"
    },
    {
      "anonymous": false,
      "inputs": [
        {
          "indexed": true,
          "internalType": "uint256",
          "name": "batchSize",
          "type": "uint256"
        },
        {
          "indexed": true,
          "internalType": "bytes32",
          "name": "root",
          "type": "bytes32"
        },
        {
          "indexed": false,
          "internalType": "uint256",
          "name": "timestamp",
          "type": "uint256"
        }
      ],
      "name": "BatchRootSubmitted",
      "type": "event"
    },
    {
      "anonymous": false,
      "inputs": [
        {
          "indexed": true,
          "internalType": "uint256",
          "name": "batchSize",
          "type": "uint256"
        },
        {
          "indexed": true,
          "internalType": "uint256",
          "name": "serialNumber",
          "type": "uint256"
        },
        {
          "indexed": true,
          "internalType": "address",
          "name": "unlocker",
          "type": "address"
        }
      ],
      "name": "Unlocked",
      "type": "event"
    },
    {
      "anonymous": false,
      "inputs": [
        {
          "indexed": true,
          "internalType": "uint256",
          "name": "batchSize",
          "type": "uint256"
        },
        {
          "indexed": false,
          "internalType": "address",
          "name": "verifier",
          "type": "address"
        }
      ],
      "name": "VerifierSet",
      "type": "event"
    },
    {
      "inputs": [
        {
          "internalType": "uint256",
          "name": "",
          "type": "uint256"
        }
      ],
      "name": "batchRoots",
      "outputs": [
        {
          "internalType": "bytes32",
          "name": "",
          "type": "bytes32"
        }
      ],
      "stateMutability": "view",
      "type": "function"
    },
    {
      "inputs": [
        {
          "internalType": "uint256",
          "name": "",
          "type": "uint256"
        }
      ],
      "name": "batchTimestamps",
      "outputs": [
        {
          "internalType": "uint256",
          "name": "",
          "type": "uint256"
        }
      ],
      "stateMutability": "view",
      "type": "function"
    },
    {
      "inputs": [
        {
          "internalType": "uint256",
          "name": "batchSize",
          "type": "uint256"
        }
      ],
      "name": "getBatchRoot",
      "outputs": [
        {
          "internalType": "bytes32",
          "name": "",
          "type": "bytes32"
        }
      ],
      "stateMutability": "view",
      "type": "function"
    },
    {
      "inputs": [
        {
          "internalType": "uint256",
          "name": "batchSize",
          "type": "uint256"
        }
      ],
      "name": "getVerifier",
      "outputs": [
        {
          "internalType": "address",
          "name": "",
          "type": "address"
        }
      ],
      "stateMutability": "view",
      "type": "function"
    },
    {
      "inputs": [],
      "name": "owner",
      "outputs": [
        {
          "internalType": "address",
          "name": "",
          "type": "address"
        }
      ],
      "stateMutability": "view",
      "type": "function"
    },
    {
      "inputs": [
        {
          "internalType": "address",
          "name": "verifier16",
          "type": "address"
        },
        {
          "internalType": "address",
          "name": "verifier64",
          "type": "address"
        },
        {
          "internalType": "address",
          "name": "verifier128",
          "type": "address"
        },
        {
          "internalType": "address",
          "name": "verifier256",
          "type": "address"
        }
      ],
      "name": "setAllVerifiers",
      "outputs": [],
      "stateMutability": "nonpayable",
      "type": "function"
    },
    {
      "inputs": [
        {
          "internalType": "uint256",
          "name": "batchSize",
          "type": "uint256"
        },
        {
          "internalType": "address",
          "name": "verifierAddress",
          "type": "address"
        }
      ],
      "name": "setVerifier",
      "outputs": [],
      "stateMutability": "nonpayable",
      "type": "function"
    },
    {
      "inputs": [
        {
          "internalType": "uint256",
          "name": "batchSize",
          "type": "uint256"
        },
        {
          "internalType": "bytes32",
          "name": "root",
          "type": "bytes32"
        }
      ],
      "name": "submitBatchRoot",
      "outputs": [],
      "stateMutability": "nonpayable",
      "type": "function"
    },
    {
      "inputs": [
        {
          "internalType": "uint256",
          "name": "batchSize",
          "type": "uint256"
        },
        {
          "internalType": "uint256[8]",
          "name": "proof",
          "type": "uint256[8]"
        },
        {
          "internalType": "uint256[2]",
          "name": "publicInputs",
          "type": "uint256[2]"
        }
      ],
      "name": "unlock",
      "outputs": [],
      "stateMutability": "nonpayable",
      "type": "function"
    },
    {
      "inputs": [
        {
          "internalType": "uint256",
          "name": "",
          "type": "uint256"
        }
      ],
      "name": "usedSerialNumbers",
      "outputs": [
        {
          "internalType": "bool",
          "name": "",
          "type": "bool"
        }
      ],
      "stateMutability": "view",
      "type": "function"
    },
    {
      "inputs": [
        {
          "internalType": "uint256",
          "name": "",
          "type": "uint256"
        }
      ],
      "name": "verifiers",
      "outputs": [
        {
          "internalType": "contract IVerifier",
          "name": "",
          "type": "address"
        }
      ],
      "stateMutability": "view",
      "type": "function"
    }
  ],
  "bytecode": "0x6080604052348015600f57600080fd5b5033600460006101000a81548173ffffffffffffffffffffffffffffffffffffffff021916908373ffffffffffffffffffffffffffffffffffffffff1602179055506116e3806100606000396000f3fe608060405234801561001057600080fd5b50600436106100a95760003560e01c806374f375051161007157806374f37505146101625780638da5cb5b14610192578063ac1eff68146101b0578063b4f7dc49146101e0578063e2350d6314610210578063fb2cd93714610240576100a9565b80631957ba4e146100ae578063301e24a4146100ca5780633561bc27146100e6578063437f5ae51461011657806368e2f97914610132575b600080fd5b6100c860048036038101906100c39190610e38565b61025c565b005b6100e460048036038101906100df9190610eae565b61044d565b005b61010060048036038101906100fb9190610eee565b6105a0565b60405161010d9190610f2a565b60405180910390f35b610130600480360381019061012b9190610f8e565b6105dc565b005b61014c60048036038101906101479190610eee565b610859565b6040516101599190610ff2565b60405180910390f35b61017c60048036038101906101779190610eee565b610871565b6040516101899190611028565b60405180910390f35b61019a610891565b6040516101a79190610f2a565b60405180910390f35b6101ca60048036038101906101c59190610eee565b6108b7565b6040516101d791906110a2565b60405180910390f35b6101fa60048036038101906101f59190610eee565b6108ea565b60405161020791906110cc565b60405180910390f35b61022a60048036038101906102259190610eee565b610902565b6040516102379190610ff2565b60405180910390f35b61025a600480360381019061025591906110e7565b61091f565b005b600460009054906101000a900473ffffffffffffffffffffffffffffffffffffffff1673ffffffffffffffffffffffffffffffffffffffff163373ffffffffffffffffffffffffffffffffffffffff16146102ec576040517f08c379a00000000000000000000000000000000000000000000000000000000081526004016102e3906111ab565b60405180910390fd5b600073ffffffffffffffffffffffffffffffffffffffff168173ffffffffffffffffffffffffffffffffffffffff160361035b576040517f08c379a000000000000000000000000000000000000000000000000000000000815260040161035290611217565b60405180910390fd5b601082148061036a5750604082145b806103755750608082145b80610381575061010082145b6103c0576040517f08c379a00000000000000000000000000000000000000000000000000000000081526004016103b790611283565b60405180910390fd5b8060008084815260200190815260200160002060006101000a81548173ffffffffffffffffffffffffffffffffffffffff021916908373ffffffffffffffffffffffffffffffffffffffff160217905550817fbc291d0e6f60c8ebaeb52dc4380cd7fa1fa6ac795fc0719ea5f57b8acfa28e3c826040516104419190610f2a565b60405180910390a25050565b6000801b8103610492576040517f08c379a0000000000000000000000000000000000000000000000000000000008152600401610489906112ef565b60405180910390fd5b600073ffffffffffffffffffffffffffffffffffffffff1660008084815260200190815260200160002060009054906101000a900473ffffffffffffffffffffffffffffffffffffffff1673ffffffffffffffffffffffffffffffffffffffff1603610533576040517f08c379a000000000000000000000000000000000000000000000000000000000815260040161052a90611381565b60405180910390fd5b80600160008481526020019081526020016000208190555042600260008481526020019081526020016000208190555080827f332a878a15e4c00bf130d2a4dd82a0e2bee22ed9f5a1cdcf9c8d9e035461f22f4260405161059491906110cc565b60405180910390a35050565b600080600083815260200190815260200160002060009054906101000a900473ffffffffffffffffffffffffffffffffffffffff169050919050565b600080600085815260200190815260200160002060009054906101000a900473ffffffffffffffffffffffffffffffffffffffff169050600073ffffffffffffffffffffffffffffffffffffffff168173ffffffffffffffffffffffffffffffffffffffff1603610682576040517f08c379a000000000000000000000000000000000000000000000000000000000815260040161067990611381565b60405180910390fd5b600082600060028110610698576106976113a1565b5b602002013560001b90506000836001600281106106b8576106b76113a1565b5b6020020135905060016000878152602001908152602001600020548214610714576040517f08c379a000000000000000000000000000000000000000000000000000000000815260040161070b9061141c565b60405180910390fd5b6003600082815260200190815260200160002060009054906101000a900460ff1615610775576040517f08c379a000000000000000000000000000000000000000000000000000000000815260040161076c90611488565b60405180910390fd5b8273ffffffffffffffffffffffffffffffffffffffff16635fe24f2386866040518363ffffffff1660e01b81526004016107b09291906114d2565b60006040518083038186803b1580156107c857600080fd5b505afa1580156107dc573d6000803e3d6000fd5b5050505060016003600083815260200190815260200160002060006101000a81548160ff0219169083151502179055503373ffffffffffffffffffffffffffffffffffffffff1681877fdf9bbb560a3c97f1125d5e2b956725434c1ba1b7bc6d1cf1119c83cc230d7a5060405160405180910390a4505050505050565b60016020528060005260406000206000915090505481565b60036020528060005260406000206000915054906101000a900460ff1681565b600460009054906101000a900473ffffffffffffffffffffffffffffffffffffffff1681565b60006020528060005260406000206000915054906101000a900473ffffffffffffffffffffffffffffffffffffffff1681565b60026020528060005260406000206000915090505481565b600060016000838152602001908152602001600020549050919050565b600460009054906101000a900473ffffffffffffffffffffffffffffffffffffffff1673ffffffffffffffffffffffffffffffffffffffff163373ffffffffffffffffffffffffffffffffffffffff16146109af576040517f08c379a00000000000000000000000000000000000000000000000000000000081526004016109a6906111ab565b60405180910390fd5b600073ffffffffffffffffffffffffffffffffffffffff168473ffffffffffffffffffffffffffffffffffffffff1603610a1e576040517f08c379a0000000000000000000000000000000000000000000000000000000008152600401610a1590611549565b60405180910390fd5b600073ffffffffffffffffffffffffffffffffffffffff168373ffffffffffffffffffffffffffffffffffffffff1603610a8d576040517f08c379a0000000000000000000000000000000000000000000000000000000008152600401610a84906115b5565b60405180910390fd5b600073ffffffffffffffffffffffffffffffffffffffff168273ffffffffffffffffffffffffffffffffffffffff1603610afc576040517f08c379a0000000000000000000000000000000000000000000000000000000008152600401610af390611621565b60405180910390fd5b600073ffffffffffffffffffffffffffffffffffffffff168173ffffffffffffffffffffffffffffffffffffffff1603610b6b576040517f08c379a0000000000000000000000000000000000000000000000000000000008152600401610b629061168d565b60405180910390fd5b836000806010815260200190815260200160002060006101000a81548173ffffffffffffffffffffffffffffffffffffffff021916908373ffffffffffffffffffffffffffffffffffffffff160217905550826000806040815260200190815260200160002060006101000a81548173ffffffffffffffffffffffffffffffffffffffff021916908373ffffffffffffffffffffffffffffffffffffffff160217905550816000806080815260200190815260200160002060006101000a81548173ffffffffffffffffffffffffffffffffffffffff021916908373ffffffffffffffffffffffffffffffffffffffff16021790555080600080610100815260200190815260200160002060006101000a81548173ffffffffffffffffffffffffffffffffffffffff021916908373ffffffffffffffffffffffffffffffffffffffff16021790555060107fbc291d0e6f60c8ebaeb52dc4380cd7fa1fa6ac795fc0719ea5f57b8acfa28e3c85604051610ce59190610f2a565b60405180910390a260407fbc291d0e6f60c8ebaeb52dc4380cd7fa1fa6ac795fc0719ea5f57b8acfa28e3c84604051610d1e9190610f2a565b60405180910390a260807fbc291d0e6f60c8ebaeb52dc4380cd7fa1fa6ac795fc0719ea5f57b8acfa28e3c83604051610d579190610f2a565b60405180910390a26101007fbc291d0e6f60c8ebaeb52dc4380cd7fa1fa6ac795fc0719ea5f57b8acfa28e3c82604051610d919190610f2a565b60405180910390a250505050565b600080fd5b6000819050919050565b610db781610da4565b8114610dc257600080fd5b50565b600081359050610dd481610dae565b92915050565b600073ffffffffffffffffffffffffffffffffffffffff82169050919050565b6000610e0582610dda565b9050919050565b610e1581610dfa565b8114610e2057600080fd5b50565b600081359050610e3281610e0c565b92915050565b60008060408385031215610e4f57610e4e610d9f565b5b6000610e5d85828601610dc5565b9250506020610e6e85828601610e23565b9150509250929050565b6000819050919050565b610e8b81610e78565b8114610e9657600080fd5b50565b600081359050610ea881610e82565b92915050565b60008060408385031215610ec557610ec4610d9f565b5b6000610ed385828601610dc5565b9250506020610ee485828601610e99565b9150509250929050565b600060208284031215610f0457610f03610d9f565b5b6000610f1284828501610dc5565b91505092915050565b610f2481610dfa565b82525050565b6000602082019050610f3f6000830184610f1b565b92915050565b600080fd5b600081905082602060080282011115610f6657610f65610f45565b5b92915050565b600081905082602060020282011115610f8857610f87610f45565b5b92915050565b60008060006101608486031215610fa857610fa7610d9f565b5b6000610fb686828701610dc5565b9350506020610fc786828701610f4a565b925050610120610fd986828701610f6c565b9150509250925092565b610fec81610e78565b82525050565b60006020820190506110076000830184610fe3565b92915050565b60008115159050919050565b6110228161100d565b82525050565b600060208201905061103d6000830184611019565b92915050565b6000819050919050565b600061106861106361105e84610dda565b611043565b610dda565b9050919050565b600061107a8261104d565b9050919050565b600061108c8261106f565b9050919050565b61109c81611081565b82525050565b60006020820190506110b76000830184611093565b92915050565b6110c681610da4565b82525050565b60006020820190506110e160008301846110bd565b92915050565b6000806000806080858703121561110157611100610d9f565b5b600061110f87828801610e23565b945050602061112087828801610e23565b935050604061113187828801610e23565b925050606061114287828801610e23565b91505092959194509250565b600082825260208201905092915050565b7f4f6e6c79206f776e657200000000000000000000000000000000000000000000600082015250565b6000611195600a8361114e565b91506111a08261115f565b602082019050919050565b600060208201905081810360008301526111c481611188565b9050919050565b7f566572696669657220616464726573732063616e6e6f74206265207a65726f00600082015250565b6000611201601f8361114e565b915061120c826111cb565b602082019050919050565b60006020820190508181036000830152611230816111f4565b9050919050565b7f496e76616c69642062617463682073697a650000000000000000000000000000600082015250565b600061126d60128361114e565b915061127882611237565b602082019050919050565b6000602082019050818103600083015261129c81611260565b9050919050565b7f526f6f742063616e6e6f74206265207a65726f00000000000000000000000000600082015250565b60006112d960138361114e565b91506112e4826112a3565b602082019050919050565b60006020820190508181036000830152611308816112cc565b9050919050565b7f5665726966696572206e6f742073657420666f7220746869732062617463682060008201527f73697a6500000000000000000000000000000000000000000000000000000000602082015250565b600061136b60248361114e565b91506113768261130f565b604082019050919050565b6000602082019050818103600083015261139a8161135e565b9050919050565b7f4e487b7100000000000000000000000000000000000000000000000000000000600052603260045260246000fd5b7f496e76616c6964204d65726b6c6520726f6f7400000000000000000000000000600082015250565b600061140660138361114e565b9150611411826113d0565b602082019050919050565b60006020820190508181036000830152611435816113f9565b9050919050565b7f53657269616c206e756d62657220616c72656164792075736564000000000000600082015250565b6000611472601a8361114e565b915061147d8261143c565b602082019050919050565b600060208201905081810360008301526114a181611465565b9050919050565b82818337505050565b6114be61010083836114a8565b5050565b6114ce604083836114a8565b5050565b6000610140820190506114e860008301856114b1565b6114f66101008301846114c2565b9392505050565b7f566572696669657231362063616e6e6f74206265207a65726f00000000000000600082015250565b600061153360198361114e565b915061153e826114fd565b602082019050919050565b6000602082019050818103600083015261156281611526565b9050919050565b7f566572696669657236342063616e6e6f74206265207a65726f00000000000000600082015250565b600061159f60198361114e565b91506115aa82611569565b602082019050919050565b600060208201905081810360008301526115ce81611592565b9050919050565b7f56657269666965723132382063616e6e6f74206265207a65726f000000000000600082015250565b600061160b601a8361114e565b9150611616826115d5565b602082019050919050565b6000602082019050818103600083015261163a816115fe565b9050919050565b7f56657269666965723235362063616e6e6f74206265207a65726f000000000000600082015250565b6000611677601a8361114e565b915061168282611641565b602082019050919050565b600060208201905081810360008301526116a68161166a565b905091905056fea264697066735822122099d25e13ee33d8ba07d8deabc17e2555befff5181e94062601858a7830a1074f64736f6c634300081c0033",
  "linkReferences": {},
  "deployedLinkReferences": {}
}