{
  "_format": "hh-sol-artifact-1",
  "contractName": "DataMigration",
  "sourceName": "contracts/DataMigration.sol",
  "abi": [
    {
      "inputs": [
        {
          "internalType": "address",
          "name": "_unlockVerifier",
          "type": "address"
        },
        {
          "internalType": "address",
          "name": "_auditVerifier",
          "type": "address"
        }
      ],
      "stateMutability": "nonpayable",
      "type": "constructor"
    },
    {
      "anonymous": false,
      "inputs": [
        {
          "indexed": true,
          "internalType": "bytes32",
          "name": "h",
          "type": "bytes32"
        },
        {
          "indexed": true,
          "internalType": "address",
          "name": "locker",
          "type": "address"
        },
        {
          "indexed": true,
          "internalType": "bytes32",
          "name": "dataId",
          "type": "bytes32"
        },
        {
          "indexed": false,
          "internalType": "uint256",
          "name": "timeout",
          "type": "uint256"
        }
      ],
      "name": "Locked",
      "type": "event"
    },
    {
      "anonymous": false,
      "inputs": [
        {
          "indexed": true,
          "internalType": "bytes32",
          "name": "h",
          "type": "bytes32"
        }
      ],
      "name": "Reclaimed",
      "type": "event"
    },
    {
      "anonymous": false,
      "inputs": [
        {
          "indexed": true,
          "internalType": "bytes32",
          "name": "h",
          "type": "bytes32"
        },
        {
          "indexed": false,
          "internalType": "string",
          "name": "mechanic",
          "type": "string"
        }
      ],
      "name": "Unlocked",
      "type": "event"
    },
    {
      "inputs": [
        {
          "internalType": "bytes32",
          "name": "",
          "type": "bytes32"
        }
      ],
      "name": "activeLocks",
      "outputs": [
        {
          "internalType": "address",
          "name": "locker",
          "type": "address"
        },
        {
          "internalType": "bytes32",
          "name": "dataId",
          "type": "bytes32"
        },
        {
          "internalType": "uint256",
          "name": "timeout",
          "type": "uint256"
        }
      ],
      "stateMutability": "view",
      "type": "function"
    },
    {
      "inputs": [
        {
          "internalType": "uint256[8]",
          "name": "proof",
          "type": "uint256[8]"
        },
        {
          "internalType": "uint256[3]",
          "name": "publicInputs",
          "type": "uint256[3]"
        }
      ],
      "name": "auditUnlock",
      "outputs": [],
      "stateMutability": "nonpayable",
      "type": "function"
    },
    {
      "inputs": [],
      "name": "auditVerifier",
      "outputs": [
        {
          "internalType": "contract IAuditVerifier",
          "name": "",
          "type": "address"
        }
      ],
      "stateMutability": "view",
      "type": "function"
    },
    {
      "inputs": [
        {
          "internalType": "bytes32",
          "name": "_h",
          "type": "bytes32"
        },
        {
          "internalType": "bytes32",
          "name": "_dataId",
          "type": "bytes32"
        },
        {
          "internalType": "uint256",
          "name": "_timeoutDuration",
          "type": "uint256"
        }
      ],
      "name": "lock",
      "outputs": [],
      "stateMutability": "nonpayable",
      "type": "function"
    },
    {
      "inputs": [
        {
          "internalType": "bytes32",
          "name": "_h",
          "type": "bytes32"
        }
      ],
      "name": "reclaim",
      "outputs": [],
      "stateMutability": "nonpayable",
      "type": "function"
    },
    {
      "inputs": [
        {
          "internalType": "uint256[8]",
          "name": "proof",
          "type": "uint256[8]"
        },
        {
          "internalType": "uint256[2]",
          "name": "publicInputs",
          "type": "uint256[2]"
        }
      ],
      "name": "unlock",
      "outputs": [],
      "stateMutability": "nonpayable",
      "type": "function"
    },
    {
      "inputs": [],
      "name": "unlockVerifier",
      "outputs": [
        {
          "internalType": "contract IUnlockVerifier",
          "name": "",
          "type": "address"
        }
      ],
      "stateMutability": "view",
      "type": "function"
    }
  ],
  "bytecode": "0x60c060405234801561001057600080fd5b506040516114a43803806114a4833981810160405281019061003291906101e2565b600073ffffffffffffffffffffffffffffffffffffffff168273ffffffffffffffffffffffffffffffffffffffff16036100a1576040517f08c379a00000000000000000000000000000000000000000000000000000000081526004016100989061027f565b60405180910390fd5b600073ffffffffffffffffffffffffffffffffffffffff168173ffffffffffffffffffffffffffffffffffffffff1603610110576040517f08c379a0000000000000000000000000000000000000000000000000000000008152600401610107906102eb565b60405180910390fd5b8173ffffffffffffffffffffffffffffffffffffffff1660808173ffffffffffffffffffffffffffffffffffffffff16815250508073ffffffffffffffffffffffffffffffffffffffff1660a08173ffffffffffffffffffffffffffffffffffffffff1681525050505061030b565b600080fd5b600073ffffffffffffffffffffffffffffffffffffffff82169050919050565b60006101af82610184565b9050919050565b6101bf816101a4565b81146101ca57600080fd5b50565b6000815190506101dc816101b6565b92915050565b600080604083850312156101f9576101f861017f565b5b6000610207858286016101cd565b9250506020610218858286016101cd565b9150509250929050565b600082825260208201905092915050565b7f556e6c6f636b2056657269666965722063616e6e6f74206265207a65726f0000600082015250565b6000610269601e83610222565b915061027482610233565b602082019050919050565b600060208201905081810360008301526102988161025c565b9050919050565b7f41756469742056657269666965722063616e6e6f74206265207a65726f000000600082015250565b60006102d5601d83610222565b91506102e08261029f565b602082019050919050565b60006020820190508181036000830152610304816102c8565b9050919050565b60805160a05161116661033e60003960008181610338015261042001526000818161022601526109a001526111666000f3fe608060405234801561001057600080fd5b506004361061007d5760003560e01c806347f2f1781161005b57806347f2f178146100d857806396afb365146100f4578063b51a201f14610110578063c0f3029b146101425761007d565b806321915f2814610082578063265297ac1461009e57806338466c66146100bc575b600080fd5b61009c60048036038101906100979190610a10565b610160565b005b6100a6610336565b6040516100b39190610ad1565b60405180910390f35b6100d660048036038101906100d19190610b0e565b61035a565b005b6100f260048036038101906100ed9190610bbc565b610530565b005b61010e60048036038101906101099190610c0f565b610720565b005b61012a60048036038101906101259190610c0f565b610954565b60405161013993929190610c7b565b60405180910390f35b61014a61099e565b6040516101579190610cd3565b60405180910390f35b60008160006002811061017657610175610cee565b5b602002013560001b9050600073ffffffffffffffffffffffffffffffffffffffff1660008083815260200190815260200160002060000160009054906101000a900473ffffffffffffffffffffffffffffffffffffffff1673ffffffffffffffffffffffffffffffffffffffff1603610224576040517f08c379a000000000000000000000000000000000000000000000000000000000815260040161021b90610d7a565b60405180910390fd5b7f000000000000000000000000000000000000000000000000000000000000000073ffffffffffffffffffffffffffffffffffffffff16635fe24f2384846040518363ffffffff1660e01b815260040161027f929190610dc4565b60006040518083038186803b15801561029757600080fd5b505afa1580156102ab573d6000803e3d6000fd5b50505050600080828152602001908152602001600020600080820160006101000a81549073ffffffffffffffffffffffffffffffffffffffff0219169055600182016000905560028201600090555050807f702d94ddc1e4f1e432b55d42e9531acdfbcfc079c640901654a219e48863127c60405161032990610e3b565b60405180910390a2505050565b7f000000000000000000000000000000000000000000000000000000000000000081565b6000816002600381106103705761036f610cee565b5b602002013560001b9050600073ffffffffffffffffffffffffffffffffffffffff1660008083815260200190815260200160002060000160009054906101000a900473ffffffffffffffffffffffffffffffffffffffff1673ffffffffffffffffffffffffffffffffffffffff160361041e576040517f08c379a000000000000000000000000000000000000000000000000000000000815260040161041590610d7a565b60405180910390fd5b7f000000000000000000000000000000000000000000000000000000000000000073ffffffffffffffffffffffffffffffffffffffff166365c0325984846040518363ffffffff1660e01b8152600401610479929190610e6b565b60006040518083038186803b15801561049157600080fd5b505afa1580156104a5573d6000803e3d6000fd5b50505050600080828152602001908152602001600020600080820160006101000a81549073ffffffffffffffffffffffffffffffffffffffff0219169055600182016000905560028201600090555050807f702d94ddc1e4f1e432b55d42e9531acdfbcfc079c640901654a219e48863127c60405161052390610ee2565b60405180910390a2505050565b600073ffffffffffffffffffffffffffffffffffffffff1660008085815260200190815260200160002060000160009054906101000a900473ffffffffffffffffffffffffffffffffffffffff1673ffffffffffffffffffffffffffffffffffffffff16146105d4576040517f08c379a00000000000000000000000000000000000000000000000000000000081526004016105cb90610f4e565b60405180910390fd5b6000801b8303610619576040517f08c379a000000000000000000000000000000000000000000000000000000000815260040161061090610fba565b60405180910390fd5b600081426106279190611009565b905060405180606001604052803373ffffffffffffffffffffffffffffffffffffffff1681526020018481526020018281525060008086815260200190815260200160002060008201518160000160006101000a81548173ffffffffffffffffffffffffffffffffffffffff021916908373ffffffffffffffffffffffffffffffffffffffff1602179055506020820151816001015560408201518160020155905050823373ffffffffffffffffffffffffffffffffffffffff16857fafec6b642358ef93f88d9a518cde37080f3ff07afee5022bd614276d0ec7790f84604051610712919061103d565b60405180910390a450505050565b60008060008381526020019081526020016000206040518060600160405290816000820160009054906101000a900473ffffffffffffffffffffffffffffffffffffffff1673ffffffffffffffffffffffffffffffffffffffff1673ffffffffffffffffffffffffffffffffffffffff168152602001600182015481526020016002820154815250509050600073ffffffffffffffffffffffffffffffffffffffff16816000015173ffffffffffffffffffffffffffffffffffffffff160361081e576040517f08c379a000000000000000000000000000000000000000000000000000000000815260040161081590610d7a565b60405180910390fd5b3373ffffffffffffffffffffffffffffffffffffffff16816000015173ffffffffffffffffffffffffffffffffffffffff1614610890576040517f08c379a0000000000000000000000000000000000000000000000000000000008152600401610887906110a4565b60405180910390fd5b80604001514210156108d7576040517f08c379a00000000000000000000000000000000000000000000000000000000081526004016108ce90611110565b60405180910390fd5b600080838152602001908152602001600020600080820160006101000a81549073ffffffffffffffffffffffffffffffffffffffff0219169055600182016000905560028201600090555050817fbe9e485e7f7ace1eaf2897ca5483cdb8bf05d65d8b660c18070acc759652944660405160405180910390a25050565b60006020528060005260406000206000915090508060000160009054906101000a900473ffffffffffffffffffffffffffffffffffffffff16908060010154908060020154905083565b7f000000000000000000000000000000000000000000000000000000000000000081565b600080fd5b600080fd5b6000819050826020600802820111156109e8576109e76109c7565b5b92915050565b600081905082602060020282011115610a0a57610a096109c7565b5b92915050565b6000806101408385031215610a2857610a276109c2565b5b6000610a36858286016109cc565b925050610100610a48858286016109ee565b9150509250929050565b600073ffffffffffffffffffffffffffffffffffffffff82169050919050565b6000819050919050565b6000610a97610a92610a8d84610a52565b610a72565b610a52565b9050919050565b6000610aa982610a7c565b9050919050565b6000610abb82610a9e565b9050919050565b610acb81610ab0565b82525050565b6000602082019050610ae66000830184610ac2565b92915050565b600081905082602060030282011115610b0857610b076109c7565b5b92915050565b6000806101608385031215610b2657610b256109c2565b5b6000610b34858286016109cc565b925050610100610b4685828601610aec565b9150509250929050565b6000819050919050565b610b6381610b50565b8114610b6e57600080fd5b50565b600081359050610b8081610b5a565b92915050565b6000819050919050565b610b9981610b86565b8114610ba457600080fd5b50565b600081359050610bb681610b90565b92915050565b600080600060608486031215610bd557610bd46109c2565b5b6000610be386828701610b71565b9350506020610bf486828701610b71565b9250506040610c0586828701610ba7565b9150509250925092565b600060208284031215610c2557610c246109c2565b5b6000610c3384828501610b71565b91505092915050565b6000610c4782610a52565b9050919050565b610c5781610c3c565b82525050565b610c6681610b50565b82525050565b610c7581610b86565b82525050565b6000606082019050610c906000830186610c4e565b610c9d6020830185610c5d565b610caa6040830184610c6c565b949350505050565b6000610cbd82610a9e565b9050919050565b610ccd81610cb2565b82525050565b6000602082019050610ce86000830184610cc4565b92915050565b7f4e487b7100000000000000000000000000000000000000000000000000000000600052603260045260246000fd5b600082825260208201905092915050565b7f4c6f636b20646f6573206e6f7420657869737400000000000000000000000000600082015250565b6000610d64601383610d1d565b9150610d6f82610d2e565b602082019050919050565b60006020820190508181036000830152610d9381610d57565b9050919050565b82818337505050565b610db06101008383610d9a565b5050565b610dc060408383610d9a565b5050565b600061014082019050610dda6000830185610da3565b610de8610100830184610db4565b9392505050565b7f445350415f556e6c6f636b000000000000000000000000000000000000000000600082015250565b6000610e25600b83610d1d565b9150610e3082610def565b602082019050919050565b60006020820190508181036000830152610e5481610e18565b9050919050565b610e6760608383610d9a565b5050565b600061016082019050610e816000830185610da3565b610e8f610100830184610e5b565b9392505050565b7f445350425f4175646974556e6c6f636b00000000000000000000000000000000600082015250565b6000610ecc601083610d1d565b9150610ed782610e96565b602082019050919050565b60006020820190508181036000830152610efb81610ebf565b9050919050565b7f4c6f636b20616c72656164792065786973747300000000000000000000000000600082015250565b6000610f38601383610d1d565b9150610f4382610f02565b602082019050919050565b60006020820190508181036000830152610f6781610f2b565b9050919050565b7f486173682063616e6e6f74206265207a65726f00000000000000000000000000600082015250565b6000610fa4601383610d1d565b9150610faf82610f6e565b602082019050919050565b60006020820190508181036000830152610fd381610f97565b9050919050565b7f4e487b7100000000000000000000000000000000000000000000000000000000600052601160045260246000fd5b600061101482610b86565b915061101f83610b86565b925082820190508082111561103757611036610fda565b5b92915050565b60006020820190506110526000830184610c6c565b92915050565b7f4f6e6c79206c6f636b65722063616e207265636c61696d000000000000000000600082015250565b600061108e601783610d1d565b915061109982611058565b602082019050919050565b600060208201905081810360008301526110bd81611081565b9050919050565b7f54696d656f7574206e6f74207265616368656400000000000000000000000000600082015250565b60006110fa601383610d1d565b9150611105826110c4565b602082019050919050565b60006020820190508181036000830152611129816110ed565b905091905056fea264697066735822122077d093c9a9f4c9c43d61afa6be6bd3bdd87215b75c23064696a83e21ef90e2f264736f6c634300081c0033",
  "linkReferences": {},
  "deployedLinkReferences": {}
}