{"contracts/AuditVerifier_d16.sol":{"AuditVerifier_d16":{"abi":[{"inputs":[],"name":"ProofInvalid","type":"error"},{"inputs":[],"name":"PublicInputNotInField","type":"error"},{"inputs":[{"internalType":"uint256[8]","name":"proof","type":"uint256[8]"}],"name":"compressProof","outputs":[{"internalType":"uint256[4]","name":"compressed","type":"uint256[4]"}],"stateMutability":"view","type":"function"},{"inputs":[{"internalType":"uint256[4]","name":"compressedProof","type":"uint256[4]"},{"internalType":"uint256[3]","name":"input","type":"uint256[3]"}],"name":"verifyCompressedProof","outputs":[],"stateMutability":"view","type":"function"},{"inputs":[{"internalType":"uint256[8]","name":"proof","type":"uint256[8]"},{"internalType":"uint256[3]","name":"input","type":"uint256[3]"}],"name":"verifyProof","outputs":[],"stateMutability":"view","type":"function"}],"evm":{"bytecode":{"linkReferences":{},"object":"6080604052348015600f57600080fd5b5061227b8061001f6000396000f3fe608060405234801561001057600080fd5b50600436106100415760003560e01c806344f636921461004657806365c032591461007657806398c13db914610092575b600080fd5b610060600480360381019061005b9190611fc0565b6100ae565b60405161006d91906120a3565b60405180910390f35b610090600480360381019061008b91906120e0565b61020f565b005b6100ac60048036038101906100a79190612144565b6104ab565b005b6100b6611f2d565b6100f0826000600881106100cd576100cc612184565b5b6020020135836001600881106100e6576100e5612184565b5b6020020135610a6f565b8160006004811061010457610103612184565b5b6020020181815250506101798260036008811061012457610123612184565b5b60200201358360026008811061013d5761013c612184565b5b60200201358460056008811061015657610155612184565b5b60200201358560046008811061016f5761016e612184565b5b6020020135610c23565b8260026004811061018d5761018c612184565b5b60200201836001600481106101a5576101a4612184565b5b60200201828152508281525050506101ed826006600881106101ca576101c9612184565b5b6020020135836007600881106101e3576101e2612184565b5b6020020135610a6f565b8160036004811061020157610200612184565b5b602002018181525050919050565b60008061021b836111fa565b9150915060006040516101008682377f1bde6a0a27d88f36599085c2ceeebfff4f38fa19e6bb2faf9da63868e75232066101008201527f2cecc99a73ab174110c14e7ba985a18da824ceecff173be2f6c48a255aef31fa6101208201527f17618fe8921ef72a48bcb7830f0338a542bec58e5ba620fd045b6892c5b034886101408201527f1a668cd734d2727149947b13b3682a1f2ce37ed811eea454c83dc278c32929546101608201527f234edb49934f77e94bac86badc8d495c03d9da1bd5649d24473174535a5c274f6101808201527f03c380faeef32081994c20d3772f3bf2d2eea5bfe8d948317b05e5198a8dd9dc6101a08201527f14debfc980eaeefbfc0bda101f004fa1138b5722dbfb5f767942e120b5dd40e36101c08201527f2de9c06a977d1b2d6ac96a82e84bc3e29ec91a837e815bd100f8794adfcbcabd6101e08201527e4bda9abd8f3dde6326bac008131aea8a22ffae9526a970e5c9fe4ee1187ab36102008201527f22adb3ba223bb09a4654e6770a2843d0173926e2715ee64f0e85bd25e3b1921161022082015283610240820152826102608201527f0c6ed05993fb9bf3df0357025854a065f6f5fbca87bfed08c01b683f1bf933856102808201527f255376f141768241bb78b9039689bb452d0800725c7c46640c068f08d50336546102a08201527f1b85f96fdc7ccb94fd9ef79063083944e61f2b23afcc261639b4a72e60d4adc96102c08201527f1b2685cab0007dfbe39d63966ec176c92f421ed927238fa70fb48e00753483236102e08201526020816103008360085afa915080518216915050806104a4576040517f7fcdd1f400000000000000000000000000000000000000000000000000000000815260040160405180910390fd5b5050505050565b6104b3611f4f565b6000806104d7856000600481106104cd576104cc612184565b5b6020020135611467565b9150915060008060008061051b896002600481106104f8576104f7612184565b5b60200201358a60016004811061051157610510612184565b5b60200201356115a0565b93509350935093506000806105478b60036004811061053d5761053c612184565b5b6020020135611467565b915091506000806105578c6111fa565b91509150898b6000601881106105705761056f612184565b5b602002018181525050888b60016018811061058e5761058d612184565b5b602002018181525050868b6002601881106105ac576105ab612184565b5b602002018181525050878b6003601881106105ca576105c9612184565b5b602002018181525050848b6004601881106105e8576105e7612184565b5b602002018181525050858b60056018811061060657610605612184565b5b602002018181525050838b60066018811061062457610623612184565b5b602002018181525050828b60076018811061064257610641612184565b5b6020020181815250507f1bde6a0a27d88f36599085c2ceeebfff4f38fa19e6bb2faf9da63868e75232068b6008601881106106805761067f612184565b5b6020020181815250507f2cecc99a73ab174110c14e7ba985a18da824ceecff173be2f6c48a255aef31fa8b6009601881106106be576106bd612184565b5b6020020181815250507f17618fe8921ef72a48bcb7830f0338a542bec58e5ba620fd045b6892c5b034888b600a601881106106fc576106fb612184565b5b6020020181815250507f1a668cd734d2727149947b13b3682a1f2ce37ed811eea454c83dc278c32929548b600b6018811061073a57610739612184565b5b6020020181815250507f234edb49934f77e94bac86badc8d495c03d9da1bd5649d24473174535a5c274f8b600c6018811061077857610777612184565b5b6020020181815250507f03c380faeef32081994c20d3772f3bf2d2eea5bfe8d948317b05e5198a8dd9dc8b600d601881106107b6576107b5612184565b5b6020020181815250507f14debfc980eaeefbfc0bda101f004fa1138b5722dbfb5f767942e120b5dd40e38b600e601881106107f4576107f3612184565b5b6020020181815250507f2de9c06a977d1b2d6ac96a82e84bc3e29ec91a837e815bd100f8794adfcbcabd8b600f6018811061083257610831612184565b5b6020020181815250507e4bda9abd8f3dde6326bac008131aea8a22ffae9526a970e5c9fe4ee1187ab38b60106018811061086f5761086e612184565b5b6020020181815250507f22adb3ba223bb09a4654e6770a2843d0173926e2715ee64f0e85bd25e3b192118b6011601881106108ad576108ac612184565b5b602002018181525050818b6012601881106108cb576108ca612184565b5b602002018181525050808b6013601881106108e9576108e8612184565b5b6020020181815250507f0c6ed05993fb9bf3df0357025854a065f6f5fbca87bfed08c01b683f1bf933858b60146018811061092757610926612184565b5b6020020181815250507f255376f141768241bb78b9039689bb452d0800725c7c46640c068f08d50336548b60156018811061096557610964612184565b5b6020020181815250507f1b85f96fdc7ccb94fd9ef79063083944e61f2b23afcc261639b4a72e60d4adc98b6016601881106109a3576109a2612184565b5b6020020181815250507f1b2685cab0007dfbe39d63966ec176c92f421ed927238fa70fb48e00753483238b6017601881106109e1576109e0612184565b5b60200201818152505060006109f4611f72565b6020816103008f60085afa9150811580610a275750600181600060018110610a1f57610a1e612184565b5b602002015114155b15610a5e576040517f7fcdd1f400000000000000000000000000000000000000000000000000000000815260040160405180910390fd5b505050505050505050505050505050565b60007f30644e72e131a029b85045b68181585d97816a916871ca8d3c208c16d87cfd4783101580610ac057507f30644e72e131a029b85045b68181585d97816a916871ca8d3c208c16d87cfd478210155b15610af7576040517f7fcdd1f400000000000000000000000000000000000000000000000000000000815260040160405180910390fd5b600083148015610b075750600082145b15610b155760009050610c1d565b6000610bb47f30644e72e131a029b85045b68181585d97816a916871ca8d3c208c16d87cfd4780610b4957610b486121b3565b5b60037f30644e72e131a029b85045b68181585d97816a916871ca8d3c208c16d87cfd4780610b7a57610b796121b3565b5b877f30644e72e131a029b85045b68181585d97816a916871ca8d3c208c16d87cfd4780610baa57610ba96121b3565b5b898a090908611986565b9050808303610bcd576000600185901b17915050610c1d565b610bd681611a23565b8303610beb5760018085901b17915050610c1d565b6040517f7fcdd1f400000000000000000000000000000000000000000000000000000000815260040160405180910390fd5b92915050565b6000807f30644e72e131a029b85045b68181585d97816a916871ca8d3c208c16d87cfd4786101580610c7557507f30644e72e131a029b85045b68181585d97816a916871ca8d3c208c16d87cfd478510155b80610ca057507f30644e72e131a029b85045b68181585d97816a916871ca8d3c208c16d87cfd478410155b80610ccb57507f30644e72e131a029b85045b68181585d97816a916871ca8d3c208c16d87cfd478310155b15610d02576040517f7fcdd1f400000000000000000000000000000000000000000000000000000000815260040160405180910390fd5b60008385878917171703610d1c57600080915091506111f1565b60008060007f30644e72e131a029b85045b68181585d97816a916871ca8d3c208c16d87cfd4780610d5057610d4f6121b3565b5b60037f30644e72e131a029b85045b68181585d97816a916871ca8d3c208c16d87cfd47610d7d9190612211565b7f30644e72e131a029b85045b68181585d97816a916871ca8d3c208c16d87cfd4780610dac57610dab6121b3565b5b8a8c0909905060007f30644e72e131a029b85045b68181585d97816a916871ca8d3c208c16d87cfd4780610de357610de26121b3565b5b8a7f30644e72e131a029b85045b68181585d97816a916871ca8d3c208c16d87cfd4780610e1357610e126121b3565b5b8c8d0909905060007f30644e72e131a029b85045b68181585d97816a916871ca8d3c208c16d87cfd4780610e4a57610e496121b3565b5b8a7f30644e72e131a029b85045b68181585d97816a916871ca8d3c208c16d87cfd4780610e7a57610e796121b3565b5b8c8d090990507f30644e72e131a029b85045b68181585d97816a916871ca8d3c208c16d87cfd4780610eaf57610eae6121b3565b5b7f30644e72e131a029b85045b68181585d97816a916871ca8d3c208c16d87cfd4780610ede57610edd6121b3565b5b7f30644e72e131a029b85045b68181585d97816a916871ca8d3c208c16d87cfd4780610f0d57610f0c6121b3565b5b8c860984087f2b149d40ceb8aaae81be18991be06ac3b5b4c5e559dbefa33267e6dc24a138e5089450610ff27f30644e72e131a029b85045b68181585d97816a916871ca8d3c208c16d87cfd4780610f6857610f676121b3565b5b7f30644e72e131a029b85045b68181585d97816a916871ca8d3c208c16d87cfd4780610f9757610f966121b3565b5b7f30644e72e131a029b85045b68181585d97816a916871ca8d3c208c16d87cfd4780610fc657610fc56121b3565b5b8e870984087f2fcd3ac2a640a154eb23960892a85a68f031ca0c8344b23a577dcf1052b9e77508611a23565b93505050506000806110967f30644e72e131a029b85045b68181585d97816a916871ca8d3c208c16d87cfd478061102c5761102b6121b3565b5b7f30644e72e131a029b85045b68181585d97816a916871ca8d3c208c16d87cfd478061105b5761105a6121b3565b5b8586097f30644e72e131a029b85045b68181585d97816a916871ca8d3c208c16d87cfd478061108d5761108c6121b3565b5b87880908611986565b90506111237f30644e72e131a029b85045b68181585d97816a916871ca8d3c208c16d87cfd47806110ca576110c96121b3565b5b7f183227397098d014dc2822db40c0ac2ecbc0b548b438e5469e10460b6c3e7ea47f30644e72e131a029b85045b68181585d97816a916871ca8d3c208c16d87cfd478061111a576111196121b3565b5b84880809611a8f565b15915050611132838383611afa565b8093508194505050828714801561114857508186145b156111725760008161115b57600061115e565b60025b60ff1660028b901b171794508793506111ed565b61117b83611a23565b87148015611190575061118d82611a23565b86145b156111ba576001816111a35760006111a6565b60025b60ff1660028b901b171794508793506111ec565b6040517f7fcdd1f400000000000000000000000000000000000000000000000000000000815260040160405180910390fd5b5b5050505b94509492505050565b6000806000600190506040516040810160007f232f319bd7dacf9463c42b7c14f8e9b3192079e36e27507645ff1b392e23901283527f04f4c15652cce680b45ce92c721317a31c4ac9bd51d33c01bd2f8bce12c3be8660208401527f1d35eae7103fd82b52ae321a560ac534f1a9731e95fd93d7f4b6160192d5295a82527f085bcae62873fbbf24625cd26773873e461fd92ab7d81774b6419050e67a52b16020830152863590508060408301527f30644e72e131a029b85045b68181585d2833e84879b9709143e1f593f000000181108416935060408260608460075afa8416935060408360808560065afa841693507f04902b7f42340c765db4dd42e94b2271bca7b1fa56fbfd6613d0d8e5e38669fe82527f065d110e254eacd1c26a3c98ff080ef30da1a19b33f8c98fb86f66efe35727b06020830152602087013590508060408301527f30644e72e131a029b85045b68181585d2833e84879b9709143e1f593f000000181108416935060408260608460075afa8416935060408360808560065afa841693507f2a353b96604f7494c769521fbbd1f0fb4703b3b6d5e410c9f996d745edb5781f82527e1cc879b69ff641ade969d66d2666c5e3c5142c950d173474e1feb4371427656020830152604087013590508060408301527f30644e72e131a029b85045b68181585d2833e84879b9709143e1f593f000000181108416935060408260608460075afa8416935060408360808560065afa84169350825195506020830151945050505080611461576040517fa54f8e2700000000000000000000000000000000000000000000000000000000815260040160405180910390fd5b50915091565b6000806000830361147e576000809150915061159b565b60006001808516149050600184901c92507f30644e72e131a029b85045b68181585d97816a916871ca8d3c208c16d87cfd4783106114e8576040517f7fcdd1f400000000000000000000000000000000000000000000000000000000815260040160405180910390fd5b6115857f30644e72e131a029b85045b68181585d97816a916871ca8d3c208c16d87cfd478061151a576115196121b3565b5b60037f30644e72e131a029b85045b68181585d97816a916871ca8d3c208c16d87cfd478061154b5761154a6121b3565b5b867f30644e72e131a029b85045b68181585d97816a916871ca8d3c208c16d87cfd478061157b5761157a6121b3565b5b8889090908611986565b915080156115995761159682611a23565b91505b505b915091565b6000806000806000861480156115b65750600085145b156115ce57600080600080935093509350935061197d565b6000600180881614905060006002808916149050600288901c95508694507f30644e72e131a029b85045b68181585d97816a916871ca8d3c208c16d87cfd478610158061163b57507f30644e72e131a029b85045b68181585d97816a916871ca8d3c208c16d87cfd478510155b15611672576040517f7fcdd1f400000000000000000000000000000000000000000000000000000000815260040160405180910390fd5b60007f30644e72e131a029b85045b68181585d97816a916871ca8d3c208c16d87cfd47806116a3576116a26121b3565b5b60037f30644e72e131a029b85045b68181585d97816a916871ca8d3c208c16d87cfd476116d09190612211565b7f30644e72e131a029b85045b68181585d97816a916871ca8d3c208c16d87cfd47806116ff576116fe6121b3565b5b888a0909905060007f30644e72e131a029b85045b68181585d97816a916871ca8d3c208c16d87cfd4780611736576117356121b3565b5b887f30644e72e131a029b85045b68181585d97816a916871ca8d3c208c16d87cfd4780611766576117656121b3565b5b8a8b0909905060007f30644e72e131a029b85045b68181585d97816a916871ca8d3c208c16d87cfd478061179d5761179c6121b3565b5b887f30644e72e131a029b85045b68181585d97816a916871ca8d3c208c16d87cfd47806117cd576117cc6121b3565b5b8a8b090990507f30644e72e131a029b85045b68181585d97816a916871ca8d3c208c16d87cfd4780611802576118016121b3565b5b7f30644e72e131a029b85045b68181585d97816a916871ca8d3c208c16d87cfd4780611831576118306121b3565b5b7f30644e72e131a029b85045b68181585d97816a916871ca8d3c208c16d87cfd47806118605761185f6121b3565b5b8a860984087f2b149d40ceb8aaae81be18991be06ac3b5b4c5e559dbefa33267e6dc24a138e50896506119457f30644e72e131a029b85045b68181585d97816a916871ca8d3c208c16d87cfd47806118bb576118ba6121b3565b5b7f30644e72e131a029b85045b68181585d97816a916871ca8d3c208c16d87cfd47806118ea576118e96121b3565b5b7f30644e72e131a029b85045b68181585d97816a916871ca8d3c208c16d87cfd4780611919576119186121b3565b5b8c870984087f2fcd3ac2a640a154eb23960892a85a68f031ca0c8344b23a577dcf1052b9e77508611a23565b9550611952878786611afa565b809750819850505084156119775761196987611a23565b965061197486611a23565b95505b50505050505b92959194509250565b60006119b2827f0c19139cb84c680a6e14116da060561765e05aa45a1c72a34f082305b61f3f52611df7565b9050817f30644e72e131a029b85045b68181585d97816a916871ca8d3c208c16d87cfd47806119e4576119e36121b3565b5b82830914611a1e576040517f7fcdd1f400000000000000000000000000000000000000000000000000000000815260040160405180910390fd5b919050565b60007f30644e72e131a029b85045b68181585d97816a916871ca8d3c208c16d87cfd47808381611a5657611a556121b3565b5b067f30644e72e131a029b85045b68181585d97816a916871ca8d3c208c16d87cfd470381611a8757611a866121b3565b5b069050919050565b600080611abc837f0c19139cb84c680a6e14116da060561765e05aa45a1c72a34f082305b61f3f52611df7565b9050827f30644e72e131a029b85045b68181585d97816a916871ca8d3c208c16d87cfd4780611aee57611aed6121b3565b5b82830914915050919050565b6000806000611b9b7f30644e72e131a029b85045b68181585d97816a916871ca8d3c208c16d87cfd4780611b3157611b306121b3565b5b7f30644e72e131a029b85045b68181585d97816a916871ca8d3c208c16d87cfd4780611b6057611b5f6121b3565b5b8788097f30644e72e131a029b85045b68181585d97816a916871ca8d3c208c16d87cfd4780611b9257611b916121b3565b5b898a0908611986565b90508315611baf57611bac81611a23565b90505b611c3a7f30644e72e131a029b85045b68181585d97816a916871ca8d3c208c16d87cfd4780611be157611be06121b3565b5b7f183227397098d014dc2822db40c0ac2ecbc0b548b438e5469e10460b6c3e7ea47f30644e72e131a029b85045b68181585d97816a916871ca8d3c208c16d87cfd4780611c3157611c306121b3565b5b848a0809611986565b92507f30644e72e131a029b85045b68181585d97816a916871ca8d3c208c16d87cfd4780611c6b57611c6a6121b3565b5b611ca67f30644e72e131a029b85045b68181585d97816a916871ca8d3c208c16d87cfd4780611c9d57611c9c6121b3565b5b60028609611e8f565b860991507f30644e72e131a029b85045b68181585d97816a916871ca8d3c208c16d87cfd4780611cd957611cd86121b3565b5b611d137f30644e72e131a029b85045b68181585d97816a916871ca8d3c208c16d87cfd4780611d0b57611d0a6121b3565b5b848509611a23565b7f30644e72e131a029b85045b68181585d97816a916871ca8d3c208c16d87cfd4780611d4257611d416121b3565b5b8586090886141580611db757507f30644e72e131a029b85045b68181585d97816a916871ca8d3c208c16d87cfd4780611d7e57611d7d6121b3565b5b7f30644e72e131a029b85045b68181585d97816a916871ca8d3c208c16d87cfd4780611dad57611dac6121b3565b5b8385096002098514155b15611dee576040517f7fcdd1f400000000000000000000000000000000000000000000000000000000815260040160405180910390fd5b50935093915050565b60008060405160208152602080820152602060408201528460608201528360808201527f30644e72e131a029b85045b68181585d97816a916871ca8d3c208c16d87cfd4760a082015260208160c08360055afa9150805192505080611e88576040517f7fcdd1f400000000000000000000000000000000000000000000000000000000815260040160405180910390fd5b5092915050565b6000611ebb827f30644e72e131a029b85045b68181585d97816a916871ca8d3c208c16d87cfd45611df7565b905060017f30644e72e131a029b85045b68181585d97816a916871ca8d3c208c16d87cfd4780611eee57611eed6121b3565b5b82840914611f28576040517f7fcdd1f400000000000000000000000000000000000000000000000000000000815260040160405180910390fd5b919050565b6040518060800160405280600490602082028036833780820191505090505090565b604051806103000160405280601890602082028036833780820191505090505090565b6040518060200160405280600190602082028036833780820191505090505090565b600080fd5b600080fd5b600081905082602060080282011115611fba57611fb9611f99565b5b92915050565b60006101008284031215611fd757611fd6611f94565b5b6000611fe584828501611f9e565b91505092915050565b600060049050919050565b600081905092915050565b6000819050919050565b6000819050919050565b6120218161200e565b82525050565b60006120338383612018565b60208301905092915050565b6000602082019050919050565b61205581611fee565b61205f8184611ff9565b925061206a82612004565b8060005b8381101561209b5781516120828782612027565b965061208d8361203f565b92505060018101905061206e565b505050505050565b60006080820190506120b8600083018461204c565b92915050565b6000819050826020600302820111156120da576120d9611f99565b5b92915050565b60008061016083850312156120f8576120f7611f94565b5b600061210685828601611f9e565b925050610100612118858286016120be565b9150509250929050565b60008190508260206004028201111561213e5761213d611f99565b5b92915050565b60008060e0838503121561215b5761215a611f94565b5b600061216985828601612122565b925050608061217a858286016120be565b9150509250929050565b7f4e487b7100000000000000000000000000000000000000000000000000000000600052603260045260246000fd5b7f4e487b7100000000000000000000000000000000000000000000000000000000600052601260045260246000fd5b7f4e487b7100000000000000000000000000000000000000000000000000000000600052601160045260246000fd5b600061221c8261200e565b91506122278361200e565b925082820390508181111561223f5761223e6121e2565b5b9291505056fea26469706673582212204c6a2fbd5a17351ea141c243564ff02545e2b8dc93f29360c421bcbd671a383a64736f6c634300081c0033","opcodes":"PUSH1 0x80 PUSH1 0x40 MSTORE CALLVALUE DUP1 ISZERO PUSH1 0xF JUMPI PUSH1 0x0 DUP1 REVERT JUMPDEST POP PUSH2 0x227B DUP1 PUSH2 0x1F PUSH1 0x0 CODECOPY PUSH1 0x0 RETURN INVALID PUSH1 0x80 PUSH1 0x40 MSTORE CALLVALUE DUP1 ISZERO PUSH2 0x10 JUMPI PUSH1 0x0 DUP1 REVERT JUMPDEST POP PUSH1 0x4 CALLDATASIZE LT PUSH2 0x41 JUMPI PUSH1 0x0 CALLDATALOAD PUSH1 0xE0 SHR DUP1 PUSH4 0x44F63692 EQ PUSH2 0x46 JUMPI DUP1 PUSH4 0x65C03259 EQ PUSH2 0x76 JUMPI DUP1 PUSH4 0x98C13DB9 EQ PUSH2 0x92 JUMPI JUMPDEST PUSH1 0x0 DUP1 REVERT JUMPDEST PUSH2 0x60 PUSH1 0x4 DUP1 CALLDATASIZE SUB DUP2 ADD SWAP1 PUSH2 0x5B SWAP2 SWAP1 PUSH2 0x1FC0 JUMP JUMPDEST PUSH2 0xAE JUMP JUMPDEST PUSH1 0x40 MLOAD PUSH2 0x6D SWAP2 SWAP1 PUSH2 0x20A3 JUMP JUMPDEST PUSH1 0x40 MLOAD DUP1 SWAP2 SUB SWAP1 RETURN JUMPDEST PUSH2 0x90 PUSH1 0x4 DUP1 CALLDATASIZE SUB DUP2 ADD SWAP1 PUSH2 0x8B SWAP2 SWAP1 PUSH2 0x20E0 JUMP JUMPDEST PUSH2 0x20F JUMP JUMPDEST STOP JUMPDEST PUSH2 0xAC PUSH1 0x4 DUP1 CALLDATASIZE SUB DUP2 ADD SWAP1 PUSH2 0xA7 SWAP2 SWAP1 PUSH2 0x2144 JUMP JUMPDEST PUSH2 0x4AB JUMP JUMPDEST STOP JUMPDEST PUSH2 0xB6 PUSH2 0x1F2D JUMP JUMPDEST PUSH2 0xF0 DUP3 PUSH1 0x0 PUSH1 0x8 DUP2 LT PUSH2 0xCD JUMPI PUSH2 0xCC PUSH2 0x2184 JUMP JUMPDEST JUMPDEST PUSH1 0x20 MUL ADD CALLDATALOAD DUP4 PUSH1 0x1 PUSH1 0x8 DUP2 LT PUSH2 0xE6 JUMPI PUSH2 0xE5 PUSH2 0x2184 JUMP JUMPDEST JUMPDEST PUSH1 0x20 MUL ADD CALLDATALOAD PUSH2 0xA6F JUMP JUMPDEST DUP2 PUSH1 0x0 PUSH1 0x4 DUP2 LT PUSH2 0x104 JUMPI PUSH2 0x103 PUSH2 0x2184 JUMP JUMPDEST JUMPDEST PUSH1 0x20 MUL ADD DUP2 DUP2 MSTORE POP POP PUSH2 0x179 DUP3 PUSH1 0x3 PUSH1 0x8 DUP2 LT PUSH2 0x124 JUMPI PUSH2 0x123 PUSH2 0x2184 JUMP JUMPDEST JUMPDEST PUSH1 0x20 MUL ADD CALLDATALOAD DUP4 PUSH1 0x2 PUSH1 0x8 DUP2 LT PUSH2 0x13D JUMPI PUSH2 0x13C PUSH2 0x2184 JUMP JUMPDEST JUMPDEST PUSH1 0x20 MUL ADD CALLDATALOAD DUP5 PUSH1 0x5 PUSH1 0x8 DUP2 LT PUSH2 0x156 JUMPI PUSH2 0x155 PUSH2 0x2184 JUMP JUMPDEST JUMPDEST PUSH1 0x20 MUL ADD CALLDATALOAD DUP6 PUSH1 0x4 PUSH1 0x8 DUP2 LT PUSH2 0x16F JUMPI PUSH2 0x16E PUSH2 0x2184 JUMP JUMPDEST JUMPDEST PUSH1 0x20 MUL ADD CALLDATALOAD PUSH2 0xC23 JUMP JUMPDEST DUP3 PUSH1 0x2 PUSH1 0x4 DUP2 LT PUSH2 0x18D JUMPI PUSH2 0x18C PUSH2 0x2184 JUMP JUMPDEST JUMPDEST PUSH1 0x20 MUL ADD DUP4 PUSH1 0x1 PUSH1 0x4 DUP2 LT PUSH2 0x1A5 JUMPI PUSH2 0x1A4 PUSH2 0x2184 JUMP JUMPDEST JUMPDEST PUSH1 0x20 MUL ADD DUP3 DUP2 MSTORE POP DUP3 DUP2 MSTORE POP POP POP PUSH2 0x1ED DUP3 PUSH1 0x6 PUSH1 0x8 DUP2 LT PUSH2 0x1CA JUMPI PUSH2 0x1C9 PUSH2 0x2184 JUMP JUMPDEST JUMPDEST PUSH1 0x20 MUL ADD CALLDATALOAD DUP4 PUSH1 0x7 PUSH1 0x8 DUP2 LT PUSH2 0x1E3 JUMPI PUSH2 0x1E2 PUSH2 0x2184 JUMP JUMPDEST JUMPDEST PUSH1 0x20 MUL ADD CALLDATALOAD PUSH2 0xA6F JUMP JUMPDEST DUP2 PUSH1 0x3 PUSH1 0x4 DUP2 LT PUSH2 0x201 JUMPI PUSH2 0x200 PUSH2 0x2184 JUMP JUMPDEST JUMPDEST PUSH1 0x20 MUL ADD DUP2 DUP2 MSTORE POP POP SWAP2 SWAP1 POP JUMP JUMPDEST PUSH1 0x0 DUP1 PUSH2 0x21B DUP4 PUSH2 0x11FA JUMP JUMPDEST SWAP2 POP SWAP2 POP PUSH1 0x0 PUSH1 0x40 MLOAD PUSH2 0x100 DUP7 DUP3 CALLDATACOPY PUSH32 0x1BDE6A0A27D88F36599085C2CEEEBFFF4F38FA19E6BB2FAF9DA63868E7523206 PUSH2 0x100 DUP3 ADD MSTORE PUSH32 0x2CECC99A73AB174110C14E7BA985A18DA824CEECFF173BE2F6C48A255AEF31FA PUSH2 0x120 DUP3 ADD MSTORE PUSH32 0x17618FE8921EF72A48BCB7830F0338A542BEC58E5BA620FD045B6892C5B03488 PUSH2 0x140 DUP3 ADD MSTORE PUSH32 0x1A668CD734D2727149947B13B3682A1F2CE37ED811EEA454C83DC278C3292954 PUSH2 0x160 DUP3 ADD MSTORE PUSH32 0x234EDB49934F77E94BAC86BADC8D495C03D9DA1BD5649D24473174535A5C274F PUSH2 0x180 DUP3 ADD MSTORE PUSH32 0x3C380FAEEF32081994C20D3772F3BF2D2EEA5BFE8D948317B05E5198A8DD9DC PUSH2 0x1A0 DUP3 ADD MSTORE PUSH32 0x14DEBFC980EAEEFBFC0BDA101F004FA1138B5722DBFB5F767942E120B5DD40E3 PUSH2 0x1C0 DUP3 ADD MSTORE PUSH32 0x2DE9C06A977D1B2D6AC96A82E84BC3E29EC91A837E815BD100F8794ADFCBCABD PUSH2 0x1E0 DUP3 ADD MSTORE PUSH31 0x4BDA9ABD8F3DDE6326BAC008131AEA8A22FFAE9526A970E5C9FE4EE1187AB3 PUSH2 0x200 DUP3 ADD MSTORE PUSH32 0x22ADB3BA223BB09A4654E6770A2843D0173926E2715EE64F0E85BD25E3B19211 PUSH2 0x220 DUP3 ADD MSTORE DUP4 PUSH2 0x240 DUP3 ADD MSTORE DUP3 PUSH2 0x260 DUP3 ADD MSTORE PUSH32 0xC6ED05993FB9BF3DF0357025854A065F6F5FBCA87BFED08C01B683F1BF93385 PUSH2 0x280 DUP3 ADD MSTORE PUSH32 0x255376F141768241BB78B9039689BB452D0800725C7C46640C068F08D5033654 PUSH2 0x2A0 DUP3 ADD MSTORE PUSH32 0x1B85F96FDC7CCB94FD9EF79063083944E61F2B23AFCC261639B4A72E60D4ADC9 PUSH2 0x2C0 DUP3 ADD MSTORE PUSH32 0x1B2685CAB0007DFBE39D63966EC176C92F421ED927238FA70FB48E0075348323 PUSH2 0x2E0 DUP3 ADD MSTORE PUSH1 0x20 DUP2 PUSH2 0x300 DUP4 PUSH1 0x8 GAS STATICCALL SWAP2 POP DUP1 MLOAD DUP3 AND SWAP2 POP POP DUP1 PUSH2 0x4A4 JUMPI PUSH1 0x40 MLOAD PUSH32 0x7FCDD1F400000000000000000000000000000000000000000000000000000000 DUP2 MSTORE PUSH1 0x4 ADD PUSH1 0x40 MLOAD DUP1 SWAP2 SUB SWAP1 REVERT JUMPDEST POP POP POP POP POP JUMP JUMPDEST PUSH2 0x4B3 PUSH2 0x1F4F JUMP JUMPDEST PUSH1 0x0 DUP1 PUSH2 0x4D7 DUP6 PUSH1 0x0 PUSH1 0x4 DUP2 LT PUSH2 0x4CD JUMPI PUSH2 0x4CC PUSH2 0x2184 JUMP JUMPDEST JUMPDEST PUSH1 0x20 MUL ADD CALLDATALOAD PUSH2 0x1467 JUMP JUMPDEST SWAP2 POP SWAP2 POP PUSH1 0x0 DUP1 PUSH1 0x0 DUP1 PUSH2 0x51B DUP10 PUSH1 0x2 PUSH1 0x4 DUP2 LT PUSH2 0x4F8 JUMPI PUSH2 0x4F7 PUSH2 0x2184 JUMP JUMPDEST JUMPDEST PUSH1 0x20 MUL ADD CALLDATALOAD DUP11 PUSH1 0x1 PUSH1 0x4 DUP2 LT PUSH2 0x511 JUMPI PUSH2 0x510 PUSH2 0x2184 JUMP JUMPDEST JUMPDEST PUSH1 0x20 MUL ADD CALLDATALOAD PUSH2 0x15A0 JUMP JUMPDEST SWAP4 POP SWAP4 POP SWAP4 POP SWAP4 POP PUSH1 0x0 DUP1 PUSH2 0x547 DUP12 PUSH1 0x3 PUSH1 0x4 DUP2 LT PUSH2 0x53D JUMPI PUSH2 0x53C PUSH2 0x2184 JUMP JUMPDEST JUMPDEST PUSH1 0x20 MUL ADD CALLDATALOAD PUSH2 0x1467 JUMP JUMPDEST SWAP2 POP SWAP2 POP PUSH1 0x0 DUP1 PUSH2 0x557 DUP13 PUSH2 0x11FA JUMP JUMPDEST SWAP2 POP SWAP2 POP DUP10 DUP12 PUSH1 0x0 PUSH1 0x18 DUP2 LT PUSH2 0x570 JUMPI PUSH2 0x56F PUSH2 0x2184 JUMP JUMPDEST JUMPDEST PUSH1 0x20 MUL ADD DUP2 DUP2 MSTORE POP POP DUP9 DUP12 PUSH1 0x1 PUSH1 0x18 DUP2 LT PUSH2 0x58E JUMPI PUSH2 0x58D PUSH2 0x2184 JUMP JUMPDEST JUMPDEST PUSH1 0x20 MUL ADD DUP2 DUP2 MSTORE POP POP DUP7 DUP12 PUSH1 0x2 PUSH1 0x18 DUP2 LT PUSH2 0x5AC JUMPI PUSH2 0x5AB PUSH2 0x2184 JUMP JUMPDEST JUMPDEST PUSH1 0x20 MUL ADD DUP2 DUP2 MSTORE POP POP DUP8 DUP12 PUSH1 0x3 PUSH1 0x18 DUP2 LT PUSH2 0x5CA JUMPI PUSH2 0x5C9 PUSH2 0x2184 JUMP JUMPDEST JUMPDEST PUSH1 0x20 MUL ADD DUP2 DUP2 MSTORE POP POP DUP5 DUP12 PUSH1 0x4 PUSH1 0x18 DUP2 LT PUSH2 0x5E8 JUMPI PUSH2 0x5E7 PUSH2 0x2184 JUMP JUMPDEST JUMPDEST PUSH1 0x20 MUL ADD DUP2 DUP2 MSTORE POP POP DUP6 DUP12 PUSH1 0x5 PUSH1 0x18 DUP2 LT PUSH2 0x606 JUMPI PUSH2 0x605 PUSH2 0x2184 JUMP JUMPDEST JUMPDEST PUSH1 0x20 MUL ADD DUP2 DUP2 MSTORE POP POP DUP4 DUP12 PUSH1 0x6 PUSH1 0x18 DUP2 LT PUSH2 0x624 JUMPI PUSH2 0x623 PUSH2 0x2184 JUMP JUMPDEST JUMPDEST PUSH1 0x20 MUL ADD DUP2 DUP2 MSTORE POP POP DUP3 DUP12 PUSH1 0x7 PUSH1 0x18 DUP2 LT PUSH2 0x642 JUMPI PUSH2 0x641 PUSH2 0x2184 JUMP JUMPDEST JUMPDEST PUSH1 0x20 MUL ADD DUP2 DUP2 MSTORE POP POP PUSH32 0x1BDE6A0A27D88F36599085C2CEEEBFFF4F38FA19E6BB2FAF9DA63868E7523206 DUP12 PUSH1 0x8 PUSH1 0x18 DUP2 LT PUSH2 0x680 JUMPI PUSH2 0x67F PUSH2 0x2184 JUMP JUMPDEST JUMPDEST PUSH1 0x20 MUL ADD DUP2 DUP2 MSTORE POP POP PUSH32 0x2CECC99A73AB174110C14E7BA985A18DA824CEECFF173BE2F6C48A255AEF31FA DUP12 PUSH1 0x9 PUSH1 0x18 DUP2 LT PUSH2 0x6BE JUMPI PUSH2 0x6BD PUSH2 0x2184 JUMP JUMPDEST JUMPDEST PUSH1 0x20 MUL ADD DUP2 DUP2 MSTORE POP POP PUSH32 0x17618FE8921EF72A48BCB7830F0338A542BEC58E5BA620FD045B6892C5B03488 DUP12 PUSH1 0xA PUSH1 0x18 DUP2 LT PUSH2 0x6FC JUMPI PUSH2 0x6FB PUSH2 0x2184 JUMP JUMPDEST JUMPDEST PUSH1 0x20 MUL ADD DUP2 DUP2 MSTORE POP POP PUSH32 0x1A668CD734D2727149947B13B3682A1F2CE37ED811EEA454C83DC278C3292954 DUP12 PUSH1 0xB PUSH1 0x18 DUP2 LT PUSH2 0x73A JUMPI PUSH2 0x739 PUSH2 0x2184 JUMP JUMPDEST JUMPDEST PUSH1 0x20 MUL ADD DUP2 DUP2 MSTORE POP POP PUSH32 0x234EDB49934F77E94BAC86BADC8D495C03D9DA1BD5649D24473174535A5C274F DUP12 PUSH1 0xC PUSH1 0x18 DUP2 LT PUSH2 0x778 JUMPI PUSH2 0x777 PUSH2 0x2184 JUMP JUMPDEST JUMPDEST PUSH1 0x20 MUL ADD DUP2 DUP2 MSTORE POP POP PUSH32 0x3C380FAEEF32081994C20D3772F3BF2D2EEA5BFE8D948317B05E5198A8DD9DC DUP12 PUSH1 0xD PUSH1 0x18 DUP2 LT PUSH2 0x7B6 JUMPI PUSH2 0x7B5 PUSH2 0x2184 JUMP JUMPDEST JUMPDEST PUSH1 0x20 MUL ADD DUP2 DUP2 MSTORE POP POP PUSH32 0x14DEBFC980EAEEFBFC0BDA101F004FA1138B5722DBFB5F767942E120B5DD40E3 DUP12 PUSH1 0xE PUSH1 0x18 DUP2 LT PUSH2 0x7F4 JUMPI PUSH2 0x7F3 PUSH2 0x2184 JUMP JUMPDEST JUMPDEST PUSH1 0x20 MUL ADD DUP2 DUP2 MSTORE POP POP PUSH32 0x2DE9C06A977D1B2D6AC96A82E84BC3E29EC91A837E815BD100F8794ADFCBCABD DUP12 PUSH1 0xF PUSH1 0x18 DUP2 LT PUSH2 0x832 JUMPI PUSH2 0x831 PUSH2 0x2184 JUMP JUMPDEST JUMPDEST PUSH1 0x20 MUL ADD DUP2 DUP2 MSTORE POP POP PUSH31 0x4BDA9ABD8F3DDE6326BAC008131AEA8A22FFAE9526A970E5C9FE4EE1187AB3 DUP12 PUSH1 0x10 PUSH1 0x18 DUP2 LT PUSH2 0x86F JUMPI PUSH2 0x86E PUSH2 0x2184 JUMP JUMPDEST JUMPDEST PUSH1 0x20 MUL ADD DUP2 DUP2 MSTORE POP POP PUSH32 0x22ADB3BA223BB09A4654E6770A2843D0173926E2715EE64F0E85BD25E3B19211 DUP12 PUSH1 0x11 PUSH1 0x18 DUP2 LT PUSH2 0x8AD JUMPI PUSH2 0x8AC PUSH2 0x2184 JUMP JUMPDEST JUMPDEST PUSH1 0x20 MUL ADD DUP2 DUP2 MSTORE POP POP DUP2 DUP12 PUSH1 0x12 PUSH1 0x18 DUP2 LT PUSH2 0x8CB JUMPI PUSH2 0x8CA PUSH2 0x2184 JUMP JUMPDEST JUMPDEST PUSH1 0x20 MUL ADD DUP2 DUP2 MSTORE POP POP DUP1 DUP12 PUSH1 0x13 PUSH1 0x18 DUP2 LT PUSH2 0x8E9 JUMPI PUSH2 0x8E8 PUSH2 0x2184 JUMP JUMPDEST JUMPDEST PUSH1 0x20 MUL ADD DUP2 DUP2 MSTORE POP POP PUSH32 0xC6ED05993FB9BF3DF0357025854A065F6F5FBCA87BFED08C01B683F1BF93385 DUP12 PUSH1 0x14 PUSH1 0x18 DUP2 LT PUSH2 0x927 JUMPI PUSH2 0x926 PUSH2 0x2184 JUMP JUMPDEST JUMPDEST PUSH1 0x20 MUL ADD DUP2 DUP2 MSTORE POP POP PUSH32 0x255376F141768241BB78B9039689BB452D0800725C7C46640C068F08D5033654 DUP12 PUSH1 0x15 PUSH1 0x18 DUP2 LT PUSH2 0x965 JUMPI PUSH2 0x964 PUSH2 0x2184 JUMP JUMPDEST JUMPDEST PUSH1 0x20 MUL ADD DUP2 DUP2 MSTORE POP POP PUSH32 0x1B85F96FDC7CCB94FD9EF79063083944E61F2B23AFCC261639B4A72E60D4ADC9 DUP12 PUSH1 0x16 PUSH1 0x18 DUP2 LT PUSH2 0x9A3 JUMPI PUSH2 0x9A2 PUSH2 0x2184 JUMP JUMPDEST JUMPDEST PUSH1 0x20 MUL ADD DUP2 DUP2 MSTORE POP POP PUSH32 0x1B2685CAB0007DFBE39D63966EC176C92F421ED927238FA70FB48E0075348323 DUP12 PUSH1 0x17 PUSH1 0x18 DUP2 LT PUSH2 0x9E1 JUMPI PUSH2 0x9E0 PUSH2 0x2184 JUMP JUMPDEST JUMPDEST PUSH1 0x20 MUL ADD DUP2 DUP2 MSTORE POP POP PUSH1 0x0 PUSH2 0x9F4 PUSH2 0x1F72 JUMP JUMPDEST PUSH1 0x20 DUP2 PUSH2 0x300 DUP16 PUSH1 0x8 GAS STATICCALL SWAP2 POP DUP2 ISZERO DUP1 PUSH2 0xA27 JUMPI POP PUSH1 0x1 DUP2 PUSH1 0x0 PUSH1 0x1 DUP2 LT PUSH2 0xA1F JUMPI PUSH2 0xA1E PUSH2 0x2184 JUMP JUMPDEST JUMPDEST PUSH1 0x20 MUL ADD MLOAD EQ ISZERO JUMPDEST ISZERO PUSH2 0xA5E JUMPI PUSH1 0x40 MLOAD PUSH32 0x7FCDD1F400000000000000000000000000000000000000000000000000000000 DUP2 MSTORE PUSH1 0x4 ADD PUSH1 0x40 MLOAD DUP1 SWAP2 SUB SWAP1 REVERT JUMPDEST POP POP POP POP POP POP POP POP POP POP POP POP POP POP POP JUMP JUMPDEST PUSH1 0x0 PUSH32 0x30644E72E131A029B85045B68181585D97816A916871CA8D3C208C16D87CFD47 DUP4 LT ISZERO DUP1 PUSH2 0xAC0 JUMPI POP PUSH32 0x30644E72E131A029B85045B68181585D97816A916871CA8D3C208C16D87CFD47 DUP3 LT ISZERO JUMPDEST ISZERO PUSH2 0xAF7 JUMPI PUSH1 0x40 MLOAD PUSH32 0x7FCDD1F400000000000000000000000000000000000000000000000000000000 DUP2 MSTORE PUSH1 0x4 ADD PUSH1 0x40 MLOAD DUP1 SWAP2 SUB SWAP1 REVERT JUMPDEST PUSH1 0x0 DUP4 EQ DUP1 ISZERO PUSH2 0xB07 JUMPI POP PUSH1 0x0 DUP3 EQ JUMPDEST ISZERO PUSH2 0xB15 JUMPI PUSH1 0x0 SWAP1 POP PUSH2 0xC1D JUMP JUMPDEST PUSH1 0x0 PUSH2 0xBB4 PUSH32 0x30644E72E131A029B85045B68181585D97816A916871CA8D3C208C16D87CFD47 DUP1 PUSH2 0xB49 JUMPI PUSH2 0xB48 PUSH2 0x21B3 JUMP JUMPDEST JUMPDEST PUSH1 0x3 PUSH32 0x30644E72E131A029B85045B68181585D97816A916871CA8D3C208C16D87CFD47 DUP1 PUSH2 0xB7A JUMPI PUSH2 0xB79 PUSH2 0x21B3 JUMP JUMPDEST JUMPDEST DUP8 PUSH32 0x30644E72E131A029B85045B68181585D97816A916871CA8D3C208C16D87CFD47 DUP1 PUSH2 0xBAA JUMPI PUSH2 0xBA9 PUSH2 0x21B3 JUMP JUMPDEST JUMPDEST DUP10 DUP11 MULMOD MULMOD ADDMOD PUSH2 0x1986 JUMP JUMPDEST SWAP1 POP DUP1 DUP4 SUB PUSH2 0xBCD JUMPI PUSH1 0x0 PUSH1 0x1 DUP6 SWAP1 SHL OR SWAP2 POP POP PUSH2 0xC1D JUMP JUMPDEST PUSH2 0xBD6 DUP2 PUSH2 0x1A23 JUMP JUMPDEST DUP4 SUB PUSH2 0xBEB JUMPI PUSH1 0x1 DUP1 DUP6 SWAP1 SHL OR SWAP2 POP POP PUSH2 0xC1D JUMP JUMPDEST PUSH1 0x40 MLOAD PUSH32 0x7FCDD1F400000000000000000000000000000000000000000000000000000000 DUP2 MSTORE PUSH1 0x4 ADD PUSH1 0x40 MLOAD DUP1 SWAP2 SUB SWAP1 REVERT JUMPDEST SWAP3 SWAP2 POP POP JUMP JUMPDEST PUSH1 0x0 DUP1 PUSH32 0x30644E72E131A029B85045B68181585D97816A916871CA8D3C208C16D87CFD47 DUP7 LT ISZERO DUP1 PUSH2 0xC75 JUMPI POP PUSH32 0x30644E72E131A029B85045B68181585D97816A916871CA8D3C208C16D87CFD47 DUP6 LT ISZERO JUMPDEST DUP1 PUSH2 0xCA0 JUMPI POP PUSH32 0x30644E72E131A029B85045B68181585D97816A916871CA8D3C208C16D87CFD47 DUP5 LT ISZERO JUMPDEST DUP1 PUSH2 0xCCB JUMPI POP PUSH32 0x30644E72E131A029B85045B68181585D97816A916871CA8D3C208C16D87CFD47 DUP4 LT ISZERO JUMPDEST ISZERO PUSH2 0xD02 JUMPI PUSH1 0x40 MLOAD PUSH32 0x7FCDD1F400000000000000000000000000000000000000000000000000000000 DUP2 MSTORE PUSH1 0x4 ADD PUSH1 0x40 MLOAD DUP1 SWAP2 SUB SWAP1 REVERT JUMPDEST PUSH1 0x0 DUP4 DUP6 DUP8 DUP10 OR OR OR SUB PUSH2 0xD1C JUMPI PUSH1 0x0 DUP1 SWAP2 POP SWAP2 POP PUSH2 0x11F1 JUMP JUMPDEST PUSH1 0x0 DUP1 PUSH1 0x0 PUSH32 0x30644E72E131A029B85045B68181585D97816A916871CA8D3C208C16D87CFD47 DUP1 PUSH2 0xD50 JUMPI PUSH2 0xD4F PUSH2 0x21B3 JUMP JUMPDEST JUMPDEST PUSH1 0x3 PUSH32 0x30644E72E131A029B85045B68181585D97816A916871CA8D3C208C16D87CFD47 PUSH2 0xD7D SWAP2 SWAP1 PUSH2 0x2211 JUMP JUMPDEST PUSH32 0x30644E72E131A029B85045B68181585D97816A916871CA8D3C208C16D87CFD47 DUP1 PUSH2 0xDAC JUMPI PUSH2 0xDAB PUSH2 0x21B3 JUMP JUMPDEST JUMPDEST DUP11 DUP13 MULMOD MULMOD SWAP1 POP PUSH1 0x0 PUSH32 0x30644E72E131A029B85045B68181585D97816A916871CA8D3C208C16D87CFD47 DUP1 PUSH2 0xDE3 JUMPI PUSH2 0xDE2 PUSH2 0x21B3 JUMP JUMPDEST JUMPDEST DUP11 PUSH32 0x30644E72E131A029B85045B68181585D97816A916871CA8D3C208C16D87CFD47 DUP1 PUSH2 0xE13 JUMPI PUSH2 0xE12 PUSH2 0x21B3 JUMP JUMPDEST JUMPDEST DUP13 DUP14 MULMOD MULMOD SWAP1 POP PUSH1 0x0 PUSH32 0x30644E72E131A029B85045B68181585D97816A916871CA8D3C208C16D87CFD47 DUP1 PUSH2 0xE4A JUMPI PUSH2 0xE49 PUSH2 0x21B3 JUMP JUMPDEST JUMPDEST DUP11 PUSH32 0x30644E72E131A029B85045B68181585D97816A916871CA8D3C208C16D87CFD47 DUP1 PUSH2 0xE7A JUMPI PUSH2 0xE79 PUSH2 0x21B3 JUMP JUMPDEST JUMPDEST DUP13 DUP14 MULMOD MULMOD SWAP1 POP PUSH32 0x30644E72E131A029B85045B68181585D97816A916871CA8D3C208C16D87CFD47 DUP1 PUSH2 0xEAF JUMPI PUSH2 0xEAE PUSH2 0x21B3 JUMP JUMPDEST JUMPDEST PUSH32 0x30644E72E131A029B85045B68181585D97816A916871CA8D3C208C16D87CFD47 DUP1 PUSH2 0xEDE JUMPI PUSH2 0xEDD PUSH2 0x21B3 JUMP JUMPDEST JUMPDEST PUSH32 0x30644E72E131A029B85045B68181585D97816A916871CA8D3C208C16D87CFD47 DUP1 PUSH2 0xF0D JUMPI PUSH2 0xF0C PUSH2 0x21B3 JUMP JUMPDEST JUMPDEST DUP13 DUP7 MULMOD DUP5 ADDMOD PUSH32 0x2B149D40CEB8AAAE81BE18991BE06AC3B5B4C5E559DBEFA33267E6DC24A138E5 ADDMOD SWAP5 POP PUSH2 0xFF2 PUSH32 0x30644E72E131A029B85045B68181585D97816A916871CA8D3C208C16D87CFD47 DUP1 PUSH2 0xF68 JUMPI PUSH2 0xF67 PUSH2 0x21B3 JUMP JUMPDEST JUMPDEST PUSH32 0x30644E72E131A029B85045B68181585D97816A916871CA8D3C208C16D87CFD47 DUP1 PUSH2 0xF97 JUMPI PUSH2 0xF96 PUSH2 0x21B3 JUMP JUMPDEST JUMPDEST PUSH32 0x30644E72E131A029B85045B68181585D97816A916871CA8D3C208C16D87CFD47 DUP1 PUSH2 0xFC6 JUMPI PUSH2 0xFC5 PUSH2 0x21B3 JUMP JUMPDEST JUMPDEST DUP15 DUP8 MULMOD DUP5 ADDMOD PUSH32 0x2FCD3AC2A640A154EB23960892A85A68F031CA0C8344B23A577DCF1052B9E775 ADDMOD PUSH2 0x1A23 JUMP JUMPDEST SWAP4 POP POP POP POP PUSH1 0x0 DUP1 PUSH2 0x1096 PUSH32 0x30644E72E131A029B85045B68181585D97816A916871CA8D3C208C16D87CFD47 DUP1 PUSH2 0x102C JUMPI PUSH2 0x102B PUSH2 0x21B3 JUMP JUMPDEST JUMPDEST PUSH32 0x30644E72E131A029B85045B68181585D97816A916871CA8D3C208C16D87CFD47 DUP1 PUSH2 0x105B JUMPI PUSH2 0x105A PUSH2 0x21B3 JUMP JUMPDEST JUMPDEST DUP6 DUP7 MULMOD PUSH32 0x30644E72E131A029B85045B68181585D97816A916871CA8D3C208C16D87CFD47 DUP1 PUSH2 0x108D JUMPI PUSH2 0x108C PUSH2 0x21B3 JUMP JUMPDEST JUMPDEST DUP8 DUP9 MULMOD ADDMOD PUSH2 0x1986 JUMP JUMPDEST SWAP1 POP PUSH2 0x1123 PUSH32 0x30644E72E131A029B85045B68181585D97816A916871CA8D3C208C16D87CFD47 DUP1 PUSH2 0x10CA JUMPI PUSH2 0x10C9 PUSH2 0x21B3 JUMP JUMPDEST JUMPDEST PUSH32 0x183227397098D014DC2822DB40C0AC2ECBC0B548B438E5469E10460B6C3E7EA4 PUSH32 0x30644E72E131A029B85045B68181585D97816A916871CA8D3C208C16D87CFD47 DUP1 PUSH2 0x111A JUMPI PUSH2 0x1119 PUSH2 0x21B3 JUMP JUMPDEST JUMPDEST DUP5 DUP9 ADDMOD MULMOD PUSH2 0x1A8F JUMP JUMPDEST ISZERO SWAP2 POP POP PUSH2 0x1132 DUP4 DUP4 DUP4 PUSH2 0x1AFA JUMP JUMPDEST DUP1 SWAP4 POP DUP2 SWAP5 POP POP POP DUP3 DUP8 EQ DUP1 ISZERO PUSH2 0x1148 JUMPI POP DUP2 DUP7 EQ JUMPDEST ISZERO PUSH2 0x1172 JUMPI PUSH1 0x0 DUP2 PUSH2 0x115B JUMPI PUSH1 0x0 PUSH2 0x115E JUMP JUMPDEST PUSH1 0x2 JUMPDEST PUSH1 0xFF AND PUSH1 0x2 DUP12 SWAP1 SHL OR OR SWAP5 POP DUP8 SWAP4 POP PUSH2 0x11ED JUMP JUMPDEST PUSH2 0x117B DUP4 PUSH2 0x1A23 JUMP JUMPDEST DUP8 EQ DUP1 ISZERO PUSH2 0x1190 JUMPI POP PUSH2 0x118D DUP3 PUSH2 0x1A23 JUMP JUMPDEST DUP7 EQ JUMPDEST ISZERO PUSH2 0x11BA JUMPI PUSH1 0x1 DUP2 PUSH2 0x11A3 JUMPI PUSH1 0x0 PUSH2 0x11A6 JUMP JUMPDEST PUSH1 0x2 JUMPDEST PUSH1 0xFF AND PUSH1 0x2 DUP12 SWAP1 SHL OR OR SWAP5 POP DUP8 SWAP4 POP PUSH2 0x11EC JUMP JUMPDEST PUSH1 0x40 MLOAD PUSH32 0x7FCDD1F400000000000000000000000000000000000000000000000000000000 DUP2 MSTORE PUSH1 0x4 ADD PUSH1 0x40 MLOAD DUP1 SWAP2 SUB SWAP1 REVERT JUMPDEST JUMPDEST POP POP POP JUMPDEST SWAP5 POP SWAP5 SWAP3 POP POP POP JUMP JUMPDEST PUSH1 0x0 DUP1 PUSH1 0x0 PUSH1 0x1 SWAP1 POP PUSH1 0x40 MLOAD PUSH1 0x40 DUP2 ADD PUSH1 0x0 PUSH32 0x232F319BD7DACF9463C42B7C14F8E9B3192079E36E27507645FF1B392E239012 DUP4 MSTORE PUSH32 0x4F4C15652CCE680B45CE92C721317A31C4AC9BD51D33C01BD2F8BCE12C3BE86 PUSH1 0x20 DUP5 ADD MSTORE PUSH32 0x1D35EAE7103FD82B52AE321A560AC534F1A9731E95FD93D7F4B6160192D5295A DUP3 MSTORE PUSH32 0x85BCAE62873FBBF24625CD26773873E461FD92AB7D81774B6419050E67A52B1 PUSH1 0x20 DUP4 ADD MSTORE DUP7 CALLDATALOAD SWAP1 POP DUP1 PUSH1 0x40 DUP4 ADD MSTORE PUSH32 0x30644E72E131A029B85045B68181585D2833E84879B9709143E1F593F0000001 DUP2 LT DUP5 AND SWAP4 POP PUSH1 0x40 DUP3 PUSH1 0x60 DUP5 PUSH1 0x7 GAS STATICCALL DUP5 AND SWAP4 POP PUSH1 0x40 DUP4 PUSH1 0x80 DUP6 PUSH1 0x6 GAS STATICCALL DUP5 AND SWAP4 POP PUSH32 0x4902B7F42340C765DB4DD42E94B2271BCA7B1FA56FBFD6613D0D8E5E38669FE DUP3 MSTORE PUSH32 0x65D110E254EACD1C26A3C98FF080EF30DA1A19B33F8C98FB86F66EFE35727B0 PUSH1 0x20 DUP4 ADD MSTORE PUSH1 0x20 DUP8 ADD CALLDATALOAD SWAP1 POP DUP1 PUSH1 0x40 DUP4 ADD MSTORE PUSH32 0x30644E72E131A029B85045B68181585D2833E84879B9709143E1F593F0000001 DUP2 LT DUP5 AND SWAP4 POP PUSH1 0x40 DUP3 PUSH1 0x60 DUP5 PUSH1 0x7 GAS STATICCALL DUP5 AND SWAP4 POP PUSH1 0x40 DUP4 PUSH1 0x80 DUP6 PUSH1 0x6 GAS STATICCALL DUP5 AND SWAP4 POP PUSH32 0x2A353B96604F7494C769521FBBD1F0FB4703B3B6D5E410C9F996D745EDB5781F DUP3 MSTORE PUSH31 0x1CC879B69FF641ADE969D66D2666C5E3C5142C950D173474E1FEB437142765 PUSH1 0x20 DUP4 ADD MSTORE PUSH1 0x40 DUP8 ADD CALLDATALOAD SWAP1 POP DUP1 PUSH1 0x40 DUP4 ADD MSTORE PUSH32 0x30644E72E131A029B85045B68181585D2833E84879B9709143E1F593F0000001 DUP2 LT DUP5 AND SWAP4 POP PUSH1 0x40 DUP3 PUSH1 0x60 DUP5 PUSH1 0x7 GAS STATICCALL DUP5 AND SWAP4 POP PUSH1 0x40 DUP4 PUSH1 0x80 DUP6 PUSH1 0x6 GAS STATICCALL DUP5 AND SWAP4 POP DUP3 MLOAD SWAP6 POP PUSH1 0x20 DUP4 ADD MLOAD SWAP5 POP POP POP POP DUP1 PUSH2 0x1461 JUMPI PUSH1 0x40 MLOAD PUSH32 0xA54F8E2700000000000000000000000000000000000000000000000000000000 DUP2 MSTORE PUSH1 0x4 ADD PUSH1 0x40 MLOAD DUP1 SWAP2 SUB SWAP1 REVERT JUMPDEST POP SWAP2 POP SWAP2 JUMP JUMPDEST PUSH1 0x0 DUP1 PUSH1 0x0 DUP4 SUB PUSH2 0x147E JUMPI PUSH1 0x0 DUP1 SWAP2 POP SWAP2 POP PUSH2 0x159B JUMP JUMPDEST PUSH1 0x0 PUSH1 0x1 DUP1 DUP6 AND EQ SWAP1 POP PUSH1 0x1 DUP5 SWAP1 SHR SWAP3 POP PUSH32 0x30644E72E131A029B85045B68181585D97816A916871CA8D3C208C16D87CFD47 DUP4 LT PUSH2 0x14E8 JUMPI PUSH1 0x40 MLOAD PUSH32 0x7FCDD1F400000000000000000000000000000000000000000000000000000000 DUP2 MSTORE PUSH1 0x4 ADD PUSH1 0x40 MLOAD DUP1 SWAP2 SUB SWAP1 REVERT JUMPDEST PUSH2 0x1585 PUSH32 0x30644E72E131A029B85045B68181585D97816A916871CA8D3C208C16D87CFD47 DUP1 PUSH2 0x151A JUMPI PUSH2 0x1519 PUSH2 0x21B3 JUMP JUMPDEST JUMPDEST PUSH1 0x3 PUSH32 0x30644E72E131A029B85045B68181585D97816A916871CA8D3C208C16D87CFD47 DUP1 PUSH2 0x154B JUMPI PUSH2 0x154A PUSH2 0x21B3 JUMP JUMPDEST JUMPDEST DUP7 PUSH32 0x30644E72E131A029B85045B68181585D97816A916871CA8D3C208C16D87CFD47 DUP1 PUSH2 0x157B JUMPI PUSH2 0x157A PUSH2 0x21B3 JUMP JUMPDEST JUMPDEST DUP9 DUP10 MULMOD MULMOD ADDMOD PUSH2 0x1986 JUMP JUMPDEST SWAP2 POP DUP1 ISZERO PUSH2 0x1599 JUMPI PUSH2 0x1596 DUP3 PUSH2 0x1A23 JUMP JUMPDEST SWAP2 POP JUMPDEST POP JUMPDEST SWAP2 POP SWAP2 JUMP JUMPDEST PUSH1 0x0 DUP1 PUSH1 0x0 DUP1 PUSH1 0x0 DUP7 EQ DUP1 ISZERO PUSH2 0x15B6 JUMPI POP PUSH1 0x0 DUP6 EQ JUMPDEST ISZERO PUSH2 0x15CE JUMPI PUSH1 0x0 DUP1 PUSH1 0x0 DUP1 SWAP4 POP SWAP4 POP SWAP4 POP SWAP4 POP PUSH2 0x197D JUMP JUMPDEST PUSH1 0x0 PUSH1 0x1 DUP1 DUP9 AND EQ SWAP1 POP PUSH1 0x0 PUSH1 0x2 DUP1 DUP10 AND EQ SWAP1 POP PUSH1 0x2 DUP9 SWAP1 SHR SWAP6 POP DUP7 SWAP5 POP PUSH32 0x30644E72E131A029B85045B68181585D97816A916871CA8D3C208C16D87CFD47 DUP7 LT ISZERO DUP1 PUSH2 0x163B JUMPI POP PUSH32 0x30644E72E131A029B85045B68181585D97816A916871CA8D3C208C16D87CFD47 DUP6 LT ISZERO JUMPDEST ISZERO PUSH2 0x1672 JUMPI PUSH1 0x40 MLOAD PUSH32 0x7FCDD1F400000000000000000000000000000000000000000000000000000000 DUP2 MSTORE PUSH1 0x4 ADD PUSH1 0x40 MLOAD DUP1 SWAP2 SUB SWAP1 REVERT JUMPDEST PUSH1 0x0 PUSH32 0x30644E72E131A029B85045B68181585D97816A916871CA8D3C208C16D87CFD47 DUP1 PUSH2 0x16A3 JUMPI PUSH2 0x16A2 PUSH2 0x21B3 JUMP JUMPDEST JUMPDEST PUSH1 0x3 PUSH32 0x30644E72E131A029B85045B68181585D97816A916871CA8D3C208C16D87CFD47 PUSH2 0x16D0 SWAP2 SWAP1 PUSH2 0x2211 JUMP JUMPDEST PUSH32 0x30644E72E131A029B85045B68181585D97816A916871CA8D3C208C16D87CFD47 DUP1 PUSH2 0x16FF JUMPI PUSH2 0x16FE PUSH2 0x21B3 JUMP JUMPDEST JUMPDEST DUP9 DUP11 MULMOD MULMOD SWAP1 POP PUSH1 0x0 PUSH32 0x30644E72E131A029B85045B68181585D97816A916871CA8D3C208C16D87CFD47 DUP1 PUSH2 0x1736 JUMPI PUSH2 0x1735 PUSH2 0x21B3 JUMP JUMPDEST JUMPDEST DUP9 PUSH32 0x30644E72E131A029B85045B68181585D97816A916871CA8D3C208C16D87CFD47 DUP1 PUSH2 0x1766 JUMPI PUSH2 0x1765 PUSH2 0x21B3 JUMP JUMPDEST JUMPDEST DUP11 DUP12 MULMOD MULMOD SWAP1 POP PUSH1 0x0 PUSH32 0x30644E72E131A029B85045B68181585D97816A916871CA8D3C208C16D87CFD47 DUP1 PUSH2 0x179D JUMPI PUSH2 0x179C PUSH2 0x21B3 JUMP JUMPDEST JUMPDEST DUP9 PUSH32 0x30644E72E131A029B85045B68181585D97816A916871CA8D3C208C16D87CFD47 DUP1 PUSH2 0x17CD JUMPI PUSH2 0x17CC PUSH2 0x21B3 JUMP JUMPDEST JUMPDEST DUP11 DUP12 MULMOD MULMOD SWAP1 POP PUSH32 0x30644E72E131A029B85045B68181585D97816A916871CA8D3C208C16D87CFD47 DUP1 PUSH2 0x1802 JUMPI PUSH2 0x1801 PUSH2 0x21B3 JUMP JUMPDEST JUMPDEST PUSH32 0x30644E72E131A029B85045B68181585D97816A916871CA8D3C208C16D87CFD47 DUP1 PUSH2 0x1831 JUMPI PUSH2 0x1830 PUSH2 0x21B3 JUMP JUMPDEST JUMPDEST PUSH32 0x30644E72E131A029B85045B68181585D97816A916871CA8D3C208C16D87CFD47 DUP1 PUSH2 0x1860 JUMPI PUSH2 0x185F PUSH2 0x21B3 JUMP JUMPDEST JUMPDEST DUP11 DUP7 MULMOD DUP5 ADDMOD PUSH32 0x2B149D40CEB8AAAE81BE18991BE06AC3B5B4C5E559DBEFA33267E6DC24A138E5 ADDMOD SWAP7 POP PUSH2 0x1945 PUSH32 0x30644E72E131A029B85045B68181585D97816A916871CA8D3C208C16D87CFD47 DUP1 PUSH2 0x18BB JUMPI PUSH2 0x18BA PUSH2 0x21B3 JUMP JUMPDEST JUMPDEST PUSH32 0x30644E72E131A029B85045B68181585D97816A916871CA8D3C208C16D87CFD47 DUP1 PUSH2 0x18EA JUMPI PUSH2 0x18E9 PUSH2 0x21B3 JUMP JUMPDEST JUMPDEST PUSH32 0x30644E72E131A029B85045B68181585D97816A916871CA8D3C208C16D87CFD47 DUP1 PUSH2 0x1919 JUMPI PUSH2 0x1918 PUSH2 0x21B3 JUMP JUMPDEST JUMPDEST DUP13 DUP8 MULMOD DUP5 ADDMOD PUSH32 0x2FCD3AC2A640A154EB23960892A85A68F031CA0C8344B23A577DCF1052B9E775 ADDMOD PUSH2 0x1A23 JUMP JUMPDEST SWAP6 POP PUSH2 0x1952 DUP8 DUP8 DUP7 PUSH2 0x1AFA JUMP JUMPDEST DUP1 SWAP8 POP DUP2 SWAP9 POP POP POP DUP5 ISZERO PUSH2 0x1977 JUMPI PUSH2 0x1969 DUP8 PUSH2 0x1A23 JUMP JUMPDEST SWAP7 POP PUSH2 0x1974 DUP7 PUSH2 0x1A23 JUMP JUMPDEST SWAP6 POP JUMPDEST POP POP POP POP POP JUMPDEST SWAP3 SWAP6 SWAP2 SWAP5 POP SWAP3 POP JUMP JUMPDEST PUSH1 0x0 PUSH2 0x19B2 DUP3 PUSH32 0xC19139CB84C680A6E14116DA060561765E05AA45A1C72A34F082305B61F3F52 PUSH2 0x1DF7 JUMP JUMPDEST SWAP1 POP DUP2 PUSH32 0x30644E72E131A029B85045B68181585D97816A916871CA8D3C208C16D87CFD47 DUP1 PUSH2 0x19E4 JUMPI PUSH2 0x19E3 PUSH2 0x21B3 JUMP JUMPDEST JUMPDEST DUP3 DUP4 MULMOD EQ PUSH2 0x1A1E JUMPI PUSH1 0x40 MLOAD PUSH32 0x7FCDD1F400000000000000000000000000000000000000000000000000000000 DUP2 MSTORE PUSH1 0x4 ADD PUSH1 0x40 MLOAD DUP1 SWAP2 SUB SWAP1 REVERT JUMPDEST SWAP2 SWAP1 POP JUMP JUMPDEST PUSH1 0x0 PUSH32 0x30644E72E131A029B85045B68181585D97816A916871CA8D3C208C16D87CFD47 DUP1 DUP4 DUP2 PUSH2 0x1A56 JUMPI PUSH2 0x1A55 PUSH2 0x21B3 JUMP JUMPDEST JUMPDEST MOD PUSH32 0x30644E72E131A029B85045B68181585D97816A916871CA8D3C208C16D87CFD47 SUB DUP2 PUSH2 0x1A87 JUMPI PUSH2 0x1A86 PUSH2 0x21B3 JUMP JUMPDEST JUMPDEST MOD SWAP1 POP SWAP2 SWAP1 POP JUMP JUMPDEST PUSH1 0x0 DUP1 PUSH2 0x1ABC DUP4 PUSH32 0xC19139CB84C680A6E14116DA060561765E05AA45A1C72A34F082305B61F3F52 PUSH2 0x1DF7 JUMP JUMPDEST SWAP1 POP DUP3 PUSH32 0x30644E72E131A029B85045B68181585D97816A916871CA8D3C208C16D87CFD47 DUP1 PUSH2 0x1AEE JUMPI PUSH2 0x1AED PUSH2 0x21B3 JUMP JUMPDEST JUMPDEST DUP3 DUP4 MULMOD EQ SWAP2 POP POP SWAP2 SWAP1 POP JUMP JUMPDEST PUSH1 0x0 DUP1 PUSH1 0x0 PUSH2 0x1B9B PUSH32 0x30644E72E131A029B85045B68181585D97816A916871CA8D3C208C16D87CFD47 DUP1 PUSH2 0x1B31 JUMPI PUSH2 0x1B30 PUSH2 0x21B3 JUMP JUMPDEST JUMPDEST PUSH32 0x30644E72E131A029B85045B68181585D97816A916871CA8D3C208C16D87CFD47 DUP1 PUSH2 0x1B60 JUMPI PUSH2 0x1B5F PUSH2 0x21B3 JUMP JUMPDEST JUMPDEST DUP8 DUP9 MULMOD PUSH32 0x30644E72E131A029B85045B68181585D97816A916871CA8D3C208C16D87CFD47 DUP1 PUSH2 0x1B92 JUMPI PUSH2 0x1B91 PUSH2 0x21B3 JUMP JUMPDEST JUMPDEST DUP10 DUP11 MULMOD ADDMOD PUSH2 0x1986 JUMP JUMPDEST SWAP1 POP DUP4 ISZERO PUSH2 0x1BAF JUMPI PUSH2 0x1BAC DUP2 PUSH2 0x1A23 JUMP JUMPDEST SWAP1 POP JUMPDEST PUSH2 0x1C3A PUSH32 0x30644E72E131A029B85045B68181585D97816A916871CA8D3C208C16D87CFD47 DUP1 PUSH2 0x1BE1 JUMPI PUSH2 0x1BE0 PUSH2 0x21B3 JUMP JUMPDEST JUMPDEST PUSH32 0x183227397098D014DC2822DB40C0AC2ECBC0B548B438E5469E10460B6C3E7EA4 PUSH32 0x30644E72E131A029B85045B68181585D97816A916871CA8D3C208C16D87CFD47 DUP1 PUSH2 0x1C31 JUMPI PUSH2 0x1C30 PUSH2 0x21B3 JUMP JUMPDEST JUMPDEST DUP5 DUP11 ADDMOD MULMOD PUSH2 0x1986 JUMP JUMPDEST SWAP3 POP PUSH32 0x30644E72E131A029B85045B68181585D97816A916871CA8D3C208C16D87CFD47 DUP1 PUSH2 0x1C6B JUMPI PUSH2 0x1C6A PUSH2 0x21B3 JUMP JUMPDEST JUMPDEST PUSH2 0x1CA6 PUSH32 0x30644E72E131A029B85045B68181585D97816A916871CA8D3C208C16D87CFD47 DUP1 PUSH2 0x1C9D JUMPI PUSH2 0x1C9C PUSH2 0x21B3 JUMP JUMPDEST JUMPDEST PUSH1 0x2 DUP7 MULMOD PUSH2 0x1E8F JUMP JUMPDEST DUP7 MULMOD SWAP2 POP PUSH32 0x30644E72E131A029B85045B68181585D97816A916871CA8D3C208C16D87CFD47 DUP1 PUSH2 0x1CD9 JUMPI PUSH2 0x1CD8 PUSH2 0x21B3 JUMP JUMPDEST JUMPDEST PUSH2 0x1D13 PUSH32 0x30644E72E131A029B85045B68181585D97816A916871CA8D3C208C16D87CFD47 DUP1 PUSH2 0x1D0B JUMPI PUSH2 0x1D0A PUSH2 0x21B3 JUMP JUMPDEST JUMPDEST DUP5 DUP6 MULMOD PUSH2 0x1A23 JUMP JUMPDEST PUSH32 0x30644E72E131A029B85045B68181585D97816A916871CA8D3C208C16D87CFD47 DUP1 PUSH2 0x1D42 JUMPI PUSH2 0x1D41 PUSH2 0x21B3 JUMP JUMPDEST JUMPDEST DUP6 DUP7 MULMOD ADDMOD DUP7 EQ ISZERO DUP1 PUSH2 0x1DB7 JUMPI POP PUSH32 0x30644E72E131A029B85045B68181585D97816A916871CA8D3C208C16D87CFD47 DUP1 PUSH2 0x1D7E JUMPI PUSH2 0x1D7D PUSH2 0x21B3 JUMP JUMPDEST JUMPDEST PUSH32 0x30644E72E131A029B85045B68181585D97816A916871CA8D3C208C16D87CFD47 DUP1 PUSH2 0x1DAD JUMPI PUSH2 0x1DAC PUSH2 0x21B3 JUMP JUMPDEST JUMPDEST DUP4 DUP6 MULMOD PUSH1 0x2 MULMOD DUP6 EQ ISZERO JUMPDEST ISZERO PUSH2 0x1DEE JUMPI PUSH1 0x40 MLOAD PUSH32 0x7FCDD1F400000000000000000000000000000000000000000000000000000000 DUP2 MSTORE PUSH1 0x4 ADD PUSH1 0x40 MLOAD DUP1 SWAP2 SUB SWAP1 REVERT JUMPDEST POP SWAP4 POP SWAP4 SWAP2 POP POP JUMP JUMPDEST PUSH1 0x0 DUP1 PUSH1 0x40 MLOAD PUSH1 0x20 DUP2 MSTORE PUSH1 0x20 DUP1 DUP3 ADD MSTORE PUSH1 0x20 PUSH1 0x40 DUP3 ADD MSTORE DUP5 PUSH1 0x60 DUP3 ADD MSTORE DUP4 PUSH1 0x80 DUP3 ADD MSTORE PUSH32 0x30644E72E131A029B85045B68181585D97816A916871CA8D3C208C16D87CFD47 PUSH1 0xA0 DUP3 ADD MSTORE PUSH1 0x20 DUP2 PUSH1 0xC0 DUP4 PUSH1 0x5 GAS STATICCALL SWAP2 POP DUP1 MLOAD SWAP3 POP POP DUP1 PUSH2 0x1E88 JUMPI PUSH1 0x40 MLOAD PUSH32 0x7FCDD1F400000000000000000000000000000000000000000000000000000000 DUP2 MSTORE PUSH1 0x4 ADD PUSH1 0x40 MLOAD DUP1 SWAP2 SUB SWAP1 REVERT JUMPDEST POP SWAP3 SWAP2 POP POP JUMP JUMPDEST PUSH1 0x0 PUSH2 0x1EBB DUP3 PUSH32 0x30644E72E131A029B85045B68181585D97816A916871CA8D3C208C16D87CFD45 PUSH2 0x1DF7 JUMP JUMPDEST SWAP1 POP PUSH1 0x1 PUSH32 0x30644E72E131A029B85045B68181585D97816A916871CA8D3C208C16D87CFD47 DUP1 PUSH2 0x1EEE JUMPI PUSH2 0x1EED PUSH2 0x21B3 JUMP JUMPDEST JUMPDEST DUP3 DUP5 MULMOD EQ PUSH2 0x1F28 JUMPI PUSH1 0x40 MLOAD PUSH32 0x7FCDD1F400000000000000000000000000000000000000000000000000000000 DUP2 MSTORE PUSH1 0x4 ADD PUSH1 0x40 MLOAD DUP1 SWAP2 SUB SWAP1 REVERT JUMPDEST SWAP2 SWAP1 POP JUMP JUMPDEST PUSH1 0x40 MLOAD DUP1 PUSH1 0x80 ADD PUSH1 0x40 MSTORE DUP1 PUSH1 0x4 SWAP1 PUSH1 0x20 DUP3 MUL DUP1 CALLDATASIZE DUP4 CALLDATACOPY DUP1 DUP3 ADD SWAP2 POP POP SWAP1 POP POP SWAP1 JUMP JUMPDEST PUSH1 0x40 MLOAD DUP1 PUSH2 0x300 ADD PUSH1 0x40 MSTORE DUP1 PUSH1 0x18 SWAP1 PUSH1 0x20 DUP3 MUL DUP1 CALLDATASIZE DUP4 CALLDATACOPY DUP1 DUP3 ADD SWAP2 POP POP SWAP1 POP POP SWAP1 JUMP JUMPDEST PUSH1 0x40 MLOAD DUP1 PUSH1 0x20 ADD PUSH1 0x40 MSTORE DUP1 PUSH1 0x1 SWAP1 PUSH1 0x20 DUP3 MUL DUP1 CALLDATASIZE DUP4 CALLDATACOPY DUP1 DUP3 ADD SWAP2 POP POP SWAP1 POP POP SWAP1 JUMP JUMPDEST PUSH1 0x0 DUP1 REVERT JUMPDEST PUSH1 0x0 DUP1 REVERT JUMPDEST PUSH1 0x0 DUP2 SWAP1 POP DUP3 PUSH1 0x20 PUSH1 0x8 MUL DUP3 ADD GT ISZERO PUSH2 0x1FBA JUMPI PUSH2 0x1FB9 PUSH2 0x1F99 JUMP JUMPDEST JUMPDEST SWAP3 SWAP2 POP POP JUMP JUMPDEST PUSH1 0x0 PUSH2 0x100 DUP3 DUP5 SUB SLT ISZERO PUSH2 0x1FD7 JUMPI PUSH2 0x1FD6 PUSH2 0x1F94 JUMP JUMPDEST JUMPDEST PUSH1 0x0 PUSH2 0x1FE5 DUP5 DUP3 DUP6 ADD PUSH2 0x1F9E JUMP JUMPDEST SWAP2 POP POP SWAP3 SWAP2 POP POP JUMP JUMPDEST PUSH1 0x0 PUSH1 0x4 SWAP1 POP SWAP2 SWAP1 POP JUMP JUMPDEST PUSH1 0x0 DUP2 SWAP1 POP SWAP3 SWAP2 POP POP JUMP JUMPDEST PUSH1 0x0 DUP2 SWAP1 POP SWAP2 SWAP1 POP JUMP JUMPDEST PUSH1 0x0 DUP2 SWAP1 POP SWAP2 SWAP1 POP JUMP JUMPDEST PUSH2 0x2021 DUP2 PUSH2 0x200E JUMP JUMPDEST DUP3 MSTORE POP POP JUMP JUMPDEST PUSH1 0x0 PUSH2 0x2033 DUP4 DUP4 PUSH2 0x2018 JUMP JUMPDEST PUSH1 0x20 DUP4 ADD SWAP1 POP SWAP3 SWAP2 POP POP JUMP JUMPDEST PUSH1 0x0 PUSH1 0x20 DUP3 ADD SWAP1 POP SWAP2 SWAP1 POP JUMP JUMPDEST PUSH2 0x2055 DUP2 PUSH2 0x1FEE JUMP JUMPDEST PUSH2 0x205F DUP2 DUP5 PUSH2 0x1FF9 JUMP JUMPDEST SWAP3 POP PUSH2 0x206A DUP3 PUSH2 0x2004 JUMP JUMPDEST DUP1 PUSH1 0x0 JUMPDEST DUP4 DUP2 LT ISZERO PUSH2 0x209B JUMPI DUP2 MLOAD PUSH2 0x2082 DUP8 DUP3 PUSH2 0x2027 JUMP JUMPDEST SWAP7 POP PUSH2 0x208D DUP4 PUSH2 0x203F JUMP JUMPDEST SWAP3 POP POP PUSH1 0x1 DUP2 ADD SWAP1 POP PUSH2 0x206E JUMP JUMPDEST POP POP POP POP POP POP JUMP JUMPDEST PUSH1 0x0 PUSH1 0x80 DUP3 ADD SWAP1 POP PUSH2 0x20B8 PUSH1 0x0 DUP4 ADD DUP5 PUSH2 0x204C JUMP JUMPDEST SWAP3 SWAP2 POP POP JUMP JUMPDEST PUSH1 0x0 DUP2 SWAP1 POP DUP3 PUSH1 0x20 PUSH1 0x3 MUL DUP3 ADD GT ISZERO PUSH2 0x20DA JUMPI PUSH2 0x20D9 PUSH2 0x1F99 JUMP JUMPDEST JUMPDEST SWAP3 SWAP2 POP POP JUMP JUMPDEST PUSH1 0x0 DUP1 PUSH2 0x160 DUP4 DUP6 SUB SLT ISZERO PUSH2 0x20F8 JUMPI PUSH2 0x20F7 PUSH2 0x1F94 JUMP JUMPDEST JUMPDEST PUSH1 0x0 PUSH2 0x2106 DUP6 DUP3 DUP7 ADD PUSH2 0x1F9E JUMP JUMPDEST SWAP3 POP POP PUSH2 0x100 PUSH2 0x2118 DUP6 DUP3 DUP7 ADD PUSH2 0x20BE JUMP JUMPDEST SWAP2 POP POP SWAP3 POP SWAP3 SWAP1 POP JUMP JUMPDEST PUSH1 0x0 DUP2 SWAP1 POP DUP3 PUSH1 0x20 PUSH1 0x4 MUL DUP3 ADD GT ISZERO PUSH2 0x213E JUMPI PUSH2 0x213D PUSH2 0x1F99 JUMP JUMPDEST JUMPDEST SWAP3 SWAP2 POP POP JUMP JUMPDEST PUSH1 0x0 DUP1 PUSH1 0xE0 DUP4 DUP6 SUB SLT ISZERO PUSH2 0x215B JUMPI PUSH2 0x215A PUSH2 0x1F94 JUMP JUMPDEST JUMPDEST PUSH1 0x0 PUSH2 0x2169 DUP6 DUP3 DUP7 ADD PUSH2 0x2122 JUMP JUMPDEST SWAP3 POP POP PUSH1 0x80 PUSH2 0x217A DUP6 DUP3 DUP7 ADD PUSH2 0x20BE JUMP JUMPDEST SWAP2 POP POP SWAP3 POP SWAP3 SWAP1 POP JUMP JUMPDEST PUSH32 0x4E487B7100000000000000000000000000000000000000000000000000000000 PUSH1 0x0 MSTORE PUSH1 0x32 PUSH1 0x4 MSTORE PUSH1 0x24 PUSH1 0x0 REVERT JUMPDEST PUSH32 0x4E487B7100000000000000000000000000000000000000000000000000000000 PUSH1 0x0 MSTORE PUSH1 0x12 PUSH1 0x4 MSTORE PUSH1 0x24 PUSH1 0x0 REVERT JUMPDEST PUSH32 0x4E487B7100000000000000000000000000000000000000000000000000000000 PUSH1 0x0 MSTORE PUSH1 0x11 PUSH1 0x4 MSTORE PUSH1 0x24 PUSH1 0x0 REVERT JUMPDEST PUSH1 0x0 PUSH2 0x221C DUP3 PUSH2 0x200E JUMP JUMPDEST SWAP2 POP PUSH2 0x2227 DUP4 PUSH2 0x200E JUMP JUMPDEST SWAP3 POP DUP3 DUP3 SUB SWAP1 POP DUP2 DUP2 GT ISZERO PUSH2 0x223F JUMPI PUSH2 0x223E PUSH2 0x21E2 JUMP JUMPDEST JUMPDEST SWAP3 SWAP2 POP POP JUMP INVALID LOG2 PUSH5 0x6970667358 0x22 SLT KECCAK256 0x4C PUSH11 0x2FBD5A17351EA141C24356 0x4F CREATE 0x25 GASLIMIT 0xE2 0xB8 0xDC SWAP4 CALLCODE SWAP4 PUSH1 0xC4 0x21 0xBC 0xBD PUSH8 0x1A383A64736F6C63 NUMBER STOP ADDMOD SHR STOP CALLER "},"methodIdentifiers":{"compressProof(uint256[8])":"44f63692","verifyCompressedProof(uint256[4],uint256[3])":"98c13db9","verifyProof(uint256[8],uint256[3])":"65c03259"}}}}}