{"contracts/UnlockVerifier.sol":{"UnlockVerifier":{"abi":[{"inputs":[],"name":"ProofInvalid","type":"error"},{"inputs":[],"name":"PublicInputNotInField","type":"error"},{"inputs":[{"internalType":"uint256[8]","name":"proof","type":"uint256[8]"}],"name":"compressProof","outputs":[{"internalType":"uint256[4]","name":"compressed","type":"uint256[4]"}],"stateMutability":"view","type":"function"},{"inputs":[{"internalType":"uint256[4]","name":"compressedProof","type":"uint256[4]"},{"internalType":"uint256[2]","name":"input","type":"uint256[2]"}],"name":"verifyCompressedProof","outputs":[],"stateMutability":"view","type":"function"},{"inputs":[{"internalType":"uint256[8]","name":"proof","type":"uint256[8]"},{"internalType":"uint256[2]","name":"input","type":"uint256[2]"}],"name":"verifyProof","outputs":[],"stateMutability":"view","type":"function"}],"evm":{"bytecode":{"linkReferences":{},"object":"6080604052348015600f57600080fd5b506121e58061001f6000396000f3fe608060405234801561001057600080fd5b50600436106100415760003560e01c806344f63692146100465780635fe24f2314610076578063f11817b214610092575b600080fd5b610060600480360381019061005b9190611f2a565b6100ae565b60405161006d919061200d565b60405180910390f35b610090600480360381019061008b919061204a565b61020f565b005b6100ac60048036038101906100a791906120ae565b6104ac565b005b6100b6611e97565b6100f0826000600881106100cd576100cc6120ee565b5b6020020135836001600881106100e6576100e56120ee565b5b6020020135610a71565b81600060048110610104576101036120ee565b5b60200201818152505061017982600360088110610124576101236120ee565b5b60200201358360026008811061013d5761013c6120ee565b5b602002013584600560088110610156576101556120ee565b5b60200201358560046008811061016f5761016e6120ee565b5b6020020135610c25565b8260026004811061018d5761018c6120ee565b5b60200201836001600481106101a5576101a46120ee565b5b60200201828152508281525050506101ed826006600881106101ca576101c96120ee565b5b6020020135836007600881106101e3576101e26120ee565b5b6020020135610a71565b81600360048110610201576102006120ee565b5b602002018181525050919050565b60008061021b836111fc565b9150915060006040516101008682377f16745d03a639192c704ce964b6ec33e6a1b479752ece322a2e13245cd889d05a6101008201527f043b80c398ee93a8628c9a5a125d8ebb5c849c39d46eaa2d1e845d28c7de63bb6101208201527f25db9c7ffac50cd04e9509107bf5bdf38c2c7616003a73ddcad6f931fc5730e16101408201527f0a47ceea621b2ab035fb3157da1305e645234bd9e14302daf659d47cf36aa0436101608201527f17b5ecdd33654c0d7b7c0921f48e8af9658e7714c4d734d0f9d3bad9869ab55e6101808201527f06215dcf6156043194f350132b0cf49530eeab6fa2872e8a506ecf7b6fab48206101a08201527f051d3b53f49ba8bdacb1c75adce20d5ad9a63721a50f2f5b768e126f0b6d64696101c08201527f27c5f8e589b6406ebe5598a0cdde5ff1c39d1bfa6d5ed0a380387fdf3240df056101e08201527f04feca6b64fedb3a23d83c45fbc540b1ea0a240696d2c96f2b5a9c81045486db6102008201527f14c846e30b855a1cd0562fd97497277dc57eacc71f484ce7375a7073be34bda661022082015283610240820152826102608201527f0569baede9121de6470244e5d6580a6291319e9f2f3713eda171e2a5f692f8956102808201527f3047359b6a4c9b1b0c76c171632d7d1ab8fcce50e46489a93d0aa4ca3957f08b6102a08201527f1761eee4daeb7cbb22c886cdaa05c60950972313fb7aea58419f12c74c526bce6102c08201527f2d5f24211f35a6ad1cc6e780466e7e84bc92cfd68c64ee7e6d71f4cf46b1f3dc6102e08201526020816103008360085afa915080518216915050806104a5576040517f7fcdd1f400000000000000000000000000000000000000000000000000000000815260040160405180910390fd5b5050505050565b6104b4611eb9565b6000806104d8856000600481106104ce576104cd6120ee565b5b60200201356113d1565b9150915060008060008061051c896002600481106104f9576104f86120ee565b5b60200201358a600160048110610512576105116120ee565b5b602002013561150a565b93509350935093506000806105488b60036004811061053e5761053d6120ee565b5b60200201356113d1565b915091506000806105588c6111fc565b91509150898b600060188110610571576105706120ee565b5b602002018181525050888b60016018811061058f5761058e6120ee565b5b602002018181525050868b6002601881106105ad576105ac6120ee565b5b602002018181525050878b6003601881106105cb576105ca6120ee565b5b602002018181525050848b6004601881106105e9576105e86120ee565b5b602002018181525050858b600560188110610607576106066120ee565b5b602002018181525050838b600660188110610625576106246120ee565b5b602002018181525050828b600760188110610643576106426120ee565b5b6020020181815250507f16745d03a639192c704ce964b6ec33e6a1b479752ece322a2e13245cd889d05a8b600860188110610681576106806120ee565b5b6020020181815250507f043b80c398ee93a8628c9a5a125d8ebb5c849c39d46eaa2d1e845d28c7de63bb8b6009601881106106bf576106be6120ee565b5b6020020181815250507f25db9c7ffac50cd04e9509107bf5bdf38c2c7616003a73ddcad6f931fc5730e18b600a601881106106fd576106fc6120ee565b5b6020020181815250507f0a47ceea621b2ab035fb3157da1305e645234bd9e14302daf659d47cf36aa0438b600b6018811061073b5761073a6120ee565b5b6020020181815250507f17b5ecdd33654c0d7b7c0921f48e8af9658e7714c4d734d0f9d3bad9869ab55e8b600c60188110610779576107786120ee565b5b6020020181815250507f06215dcf6156043194f350132b0cf49530eeab6fa2872e8a506ecf7b6fab48208b600d601881106107b7576107b66120ee565b5b6020020181815250507f051d3b53f49ba8bdacb1c75adce20d5ad9a63721a50f2f5b768e126f0b6d64698b600e601881106107f5576107f46120ee565b5b6020020181815250507f27c5f8e589b6406ebe5598a0cdde5ff1c39d1bfa6d5ed0a380387fdf3240df058b600f60188110610833576108326120ee565b5b6020020181815250507f04feca6b64fedb3a23d83c45fbc540b1ea0a240696d2c96f2b5a9c81045486db8b601060188110610871576108706120ee565b5b6020020181815250507f14c846e30b855a1cd0562fd97497277dc57eacc71f484ce7375a7073be34bda68b6011601881106108af576108ae6120ee565b5b602002018181525050818b6012601881106108cd576108cc6120ee565b5b602002018181525050808b6013601881106108eb576108ea6120ee565b5b6020020181815250507f0569baede9121de6470244e5d6580a6291319e9f2f3713eda171e2a5f692f8958b601460188110610929576109286120ee565b5b6020020181815250507f3047359b6a4c9b1b0c76c171632d7d1ab8fcce50e46489a93d0aa4ca3957f08b8b601560188110610967576109666120ee565b5b6020020181815250507f1761eee4daeb7cbb22c886cdaa05c60950972313fb7aea58419f12c74c526bce8b6016601881106109a5576109a46120ee565b5b6020020181815250507f2d5f24211f35a6ad1cc6e780466e7e84bc92cfd68c64ee7e6d71f4cf46b1f3dc8b6017601881106109e3576109e26120ee565b5b60200201818152505060006109f6611edc565b6020816103008f60085afa9150811580610a295750600181600060018110610a2157610a206120ee565b5b602002015114155b15610a60576040517f7fcdd1f400000000000000000000000000000000000000000000000000000000815260040160405180910390fd5b505050505050505050505050505050565b60007f30644e72e131a029b85045b68181585d97816a916871ca8d3c208c16d87cfd4783101580610ac257507f30644e72e131a029b85045b68181585d97816a916871ca8d3c208c16d87cfd478210155b15610af9576040517f7fcdd1f400000000000000000000000000000000000000000000000000000000815260040160405180910390fd5b600083148015610b095750600082145b15610b175760009050610c1f565b6000610bb67f30644e72e131a029b85045b68181585d97816a916871ca8d3c208c16d87cfd4780610b4b57610b4a61211d565b5b60037f30644e72e131a029b85045b68181585d97816a916871ca8d3c208c16d87cfd4780610b7c57610b7b61211d565b5b877f30644e72e131a029b85045b68181585d97816a916871ca8d3c208c16d87cfd4780610bac57610bab61211d565b5b898a0909086118f0565b9050808303610bcf576000600185901b17915050610c1f565b610bd88161198d565b8303610bed5760018085901b17915050610c1f565b6040517f7fcdd1f400000000000000000000000000000000000000000000000000000000815260040160405180910390fd5b92915050565b6000807f30644e72e131a029b85045b68181585d97816a916871ca8d3c208c16d87cfd4786101580610c7757507f30644e72e131a029b85045b68181585d97816a916871ca8d3c208c16d87cfd478510155b80610ca257507f30644e72e131a029b85045b68181585d97816a916871ca8d3c208c16d87cfd478410155b80610ccd57507f30644e72e131a029b85045b68181585d97816a916871ca8d3c208c16d87cfd478310155b15610d04576040517f7fcdd1f400000000000000000000000000000000000000000000000000000000815260040160405180910390fd5b60008385878917171703610d1e57600080915091506111f3565b60008060007f30644e72e131a029b85045b68181585d97816a916871ca8d3c208c16d87cfd4780610d5257610d5161211d565b5b60037f30644e72e131a029b85045b68181585d97816a916871ca8d3c208c16d87cfd47610d7f919061217b565b7f30644e72e131a029b85045b68181585d97816a916871ca8d3c208c16d87cfd4780610dae57610dad61211d565b5b8a8c0909905060007f30644e72e131a029b85045b68181585d97816a916871ca8d3c208c16d87cfd4780610de557610de461211d565b5b8a7f30644e72e131a029b85045b68181585d97816a916871ca8d3c208c16d87cfd4780610e1557610e1461211d565b5b8c8d0909905060007f30644e72e131a029b85045b68181585d97816a916871ca8d3c208c16d87cfd4780610e4c57610e4b61211d565b5b8a7f30644e72e131a029b85045b68181585d97816a916871ca8d3c208c16d87cfd4780610e7c57610e7b61211d565b5b8c8d090990507f30644e72e131a029b85045b68181585d97816a916871ca8d3c208c16d87cfd4780610eb157610eb061211d565b5b7f30644e72e131a029b85045b68181585d97816a916871ca8d3c208c16d87cfd4780610ee057610edf61211d565b5b7f30644e72e131a029b85045b68181585d97816a916871ca8d3c208c16d87cfd4780610f0f57610f0e61211d565b5b8c860984087f2b149d40ceb8aaae81be18991be06ac3b5b4c5e559dbefa33267e6dc24a138e5089450610ff47f30644e72e131a029b85045b68181585d97816a916871ca8d3c208c16d87cfd4780610f6a57610f6961211d565b5b7f30644e72e131a029b85045b68181585d97816a916871ca8d3c208c16d87cfd4780610f9957610f9861211d565b5b7f30644e72e131a029b85045b68181585d97816a916871ca8d3c208c16d87cfd4780610fc857610fc761211d565b5b8e870984087f2fcd3ac2a640a154eb23960892a85a68f031ca0c8344b23a577dcf1052b9e7750861198d565b93505050506000806110987f30644e72e131a029b85045b68181585d97816a916871ca8d3c208c16d87cfd478061102e5761102d61211d565b5b7f30644e72e131a029b85045b68181585d97816a916871ca8d3c208c16d87cfd478061105d5761105c61211d565b5b8586097f30644e72e131a029b85045b68181585d97816a916871ca8d3c208c16d87cfd478061108f5761108e61211d565b5b878809086118f0565b90506111257f30644e72e131a029b85045b68181585d97816a916871ca8d3c208c16d87cfd47806110cc576110cb61211d565b5b7f183227397098d014dc2822db40c0ac2ecbc0b548b438e5469e10460b6c3e7ea47f30644e72e131a029b85045b68181585d97816a916871ca8d3c208c16d87cfd478061111c5761111b61211d565b5b848808096119f9565b15915050611134838383611a64565b8093508194505050828714801561114a57508186145b156111745760008161115d576000611160565b60025b60ff1660028b901b171794508793506111ef565b61117d8361198d565b87148015611192575061118f8261198d565b86145b156111bc576001816111a55760006111a8565b60025b60ff1660028b901b171794508793506111ee565b6040517f7fcdd1f400000000000000000000000000000000000000000000000000000000815260040160405180910390fd5b5b5050505b94509492505050565b6000806000600190506040516040810160007f19eff5f0997da2495123c32580dba70afd862097f504b7ae568809dc461b944583527f17b2f4f6999c24dd22cf20f2fcfbb1cee658c9e461e8f4bc83c5d9c6ae1aba3460208401527f0b1b3dc482086ca799e85a2fe9377045fb665f47da3893522ac3ce6c702e071982527f035930494c8ad98e3cc51df06ec46113a4a831685cd9d74d01a74cfa4e3643d96020830152863590508060408301527f30644e72e131a029b85045b68181585d2833e84879b9709143e1f593f000000181108416935060408260608460075afa8416935060408360808560065afa841693507f02fa58ac9a6c60b0a12b35412571f140e68cf62beeb9a84e7e0aaeaa3c2d715482527f1308aef5e9d9c681d69a9f83d8b772e61fd10872c15acfb99f96387a13e4c1596020830152602087013590508060408301527f30644e72e131a029b85045b68181585d2833e84879b9709143e1f593f000000181108416935060408260608460075afa8416935060408360808560065afa841693508251955060208301519450505050806113cb576040517fa54f8e2700000000000000000000000000000000000000000000000000000000815260040160405180910390fd5b50915091565b600080600083036113e85760008091509150611505565b60006001808516149050600184901c92507f30644e72e131a029b85045b68181585d97816a916871ca8d3c208c16d87cfd478310611452576040517f7fcdd1f400000000000000000000000000000000000000000000000000000000815260040160405180910390fd5b6114ef7f30644e72e131a029b85045b68181585d97816a916871ca8d3c208c16d87cfd47806114845761148361211d565b5b60037f30644e72e131a029b85045b68181585d97816a916871ca8d3c208c16d87cfd47806114b5576114b461211d565b5b867f30644e72e131a029b85045b68181585d97816a916871ca8d3c208c16d87cfd47806114e5576114e461211d565b5b88890909086118f0565b91508015611503576115008261198d565b91505b505b915091565b6000806000806000861480156115205750600085145b156115385760008060008093509350935093506118e7565b6000600180881614905060006002808916149050600288901c95508694507f30644e72e131a029b85045b68181585d97816a916871ca8d3c208c16d87cfd47861015806115a557507f30644e72e131a029b85045b68181585d97816a916871ca8d3c208c16d87cfd478510155b156115dc576040517f7fcdd1f400000000000000000000000000000000000000000000000000000000815260040160405180910390fd5b60007f30644e72e131a029b85045b68181585d97816a916871ca8d3c208c16d87cfd478061160d5761160c61211d565b5b60037f30644e72e131a029b85045b68181585d97816a916871ca8d3c208c16d87cfd4761163a919061217b565b7f30644e72e131a029b85045b68181585d97816a916871ca8d3c208c16d87cfd47806116695761166861211d565b5b888a0909905060007f30644e72e131a029b85045b68181585d97816a916871ca8d3c208c16d87cfd47806116a05761169f61211d565b5b887f30644e72e131a029b85045b68181585d97816a916871ca8d3c208c16d87cfd47806116d0576116cf61211d565b5b8a8b0909905060007f30644e72e131a029b85045b68181585d97816a916871ca8d3c208c16d87cfd47806117075761170661211d565b5b887f30644e72e131a029b85045b68181585d97816a916871ca8d3c208c16d87cfd47806117375761173661211d565b5b8a8b090990507f30644e72e131a029b85045b68181585d97816a916871ca8d3c208c16d87cfd478061176c5761176b61211d565b5b7f30644e72e131a029b85045b68181585d97816a916871ca8d3c208c16d87cfd478061179b5761179a61211d565b5b7f30644e72e131a029b85045b68181585d97816a916871ca8d3c208c16d87cfd47806117ca576117c961211d565b5b8a860984087f2b149d40ceb8aaae81be18991be06ac3b5b4c5e559dbefa33267e6dc24a138e50896506118af7f30644e72e131a029b85045b68181585d97816a916871ca8d3c208c16d87cfd47806118255761182461211d565b5b7f30644e72e131a029b85045b68181585d97816a916871ca8d3c208c16d87cfd47806118545761185361211d565b5b7f30644e72e131a029b85045b68181585d97816a916871ca8d3c208c16d87cfd47806118835761188261211d565b5b8c870984087f2fcd3ac2a640a154eb23960892a85a68f031ca0c8344b23a577dcf1052b9e7750861198d565b95506118bc878786611a64565b809750819850505084156118e1576118d38761198d565b96506118de8661198d565b95505b50505050505b92959194509250565b600061191c827f0c19139cb84c680a6e14116da060561765e05aa45a1c72a34f082305b61f3f52611d61565b9050817f30644e72e131a029b85045b68181585d97816a916871ca8d3c208c16d87cfd478061194e5761194d61211d565b5b82830914611988576040517f7fcdd1f400000000000000000000000000000000000000000000000000000000815260040160405180910390fd5b919050565b60007f30644e72e131a029b85045b68181585d97816a916871ca8d3c208c16d87cfd478083816119c0576119bf61211d565b5b067f30644e72e131a029b85045b68181585d97816a916871ca8d3c208c16d87cfd4703816119f1576119f061211d565b5b069050919050565b600080611a26837f0c19139cb84c680a6e14116da060561765e05aa45a1c72a34f082305b61f3f52611d61565b9050827f30644e72e131a029b85045b68181585d97816a916871ca8d3c208c16d87cfd4780611a5857611a5761211d565b5b82830914915050919050565b6000806000611b057f30644e72e131a029b85045b68181585d97816a916871ca8d3c208c16d87cfd4780611a9b57611a9a61211d565b5b7f30644e72e131a029b85045b68181585d97816a916871ca8d3c208c16d87cfd4780611aca57611ac961211d565b5b8788097f30644e72e131a029b85045b68181585d97816a916871ca8d3c208c16d87cfd4780611afc57611afb61211d565b5b898a09086118f0565b90508315611b1957611b168161198d565b90505b611ba47f30644e72e131a029b85045b68181585d97816a916871ca8d3c208c16d87cfd4780611b4b57611b4a61211d565b5b7f183227397098d014dc2822db40c0ac2ecbc0b548b438e5469e10460b6c3e7ea47f30644e72e131a029b85045b68181585d97816a916871ca8d3c208c16d87cfd4780611b9b57611b9a61211d565b5b848a08096118f0565b92507f30644e72e131a029b85045b68181585d97816a916871ca8d3c208c16d87cfd4780611bd557611bd461211d565b5b611c107f30644e72e131a029b85045b68181585d97816a916871ca8d3c208c16d87cfd4780611c0757611c0661211d565b5b60028609611df9565b860991507f30644e72e131a029b85045b68181585d97816a916871ca8d3c208c16d87cfd4780611c4357611c4261211d565b5b611c7d7f30644e72e131a029b85045b68181585d97816a916871ca8d3c208c16d87cfd4780611c7557611c7461211d565b5b84850961198d565b7f30644e72e131a029b85045b68181585d97816a916871ca8d3c208c16d87cfd4780611cac57611cab61211d565b5b8586090886141580611d2157507f30644e72e131a029b85045b68181585d97816a916871ca8d3c208c16d87cfd4780611ce857611ce761211d565b5b7f30644e72e131a029b85045b68181585d97816a916871ca8d3c208c16d87cfd4780611d1757611d1661211d565b5b8385096002098514155b15611d58576040517f7fcdd1f400000000000000000000000000000000000000000000000000000000815260040160405180910390fd5b50935093915050565b60008060405160208152602080820152602060408201528460608201528360808201527f30644e72e131a029b85045b68181585d97816a916871ca8d3c208c16d87cfd4760a082015260208160c08360055afa9150805192505080611df2576040517f7fcdd1f400000000000000000000000000000000000000000000000000000000815260040160405180910390fd5b5092915050565b6000611e25827f30644e72e131a029b85045b68181585d97816a916871ca8d3c208c16d87cfd45611d61565b905060017f30644e72e131a029b85045b68181585d97816a916871ca8d3c208c16d87cfd4780611e5857611e5761211d565b5b82840914611e92576040517f7fcdd1f400000000000000000000000000000000000000000000000000000000815260040160405180910390fd5b919050565b6040518060800160405280600490602082028036833780820191505090505090565b604051806103000160405280601890602082028036833780820191505090505090565b6040518060200160405280600190602082028036833780820191505090505090565b600080fd5b600080fd5b600081905082602060080282011115611f2457611f23611f03565b5b92915050565b60006101008284031215611f4157611f40611efe565b5b6000611f4f84828501611f08565b91505092915050565b600060049050919050565b600081905092915050565b6000819050919050565b6000819050919050565b611f8b81611f78565b82525050565b6000611f9d8383611f82565b60208301905092915050565b6000602082019050919050565b611fbf81611f58565b611fc98184611f63565b9250611fd482611f6e565b8060005b83811015612005578151611fec8782611f91565b9650611ff783611fa9565b925050600181019050611fd8565b505050505050565b60006080820190506120226000830184611fb6565b92915050565b60008190508260206002028201111561204457612043611f03565b5b92915050565b600080610140838503121561206257612061611efe565b5b600061207085828601611f08565b92505061010061208285828601612028565b9150509250929050565b6000819050826020600402820111156120a8576120a7611f03565b5b92915050565b60008060c083850312156120c5576120c4611efe565b5b60006120d38582860161208c565b92505060806120e485828601612028565b9150509250929050565b7f4e487b7100000000000000000000000000000000000000000000000000000000600052603260045260246000fd5b7f4e487b7100000000000000000000000000000000000000000000000000000000600052601260045260246000fd5b7f4e487b7100000000000000000000000000000000000000000000000000000000600052601160045260246000fd5b600061218682611f78565b915061219183611f78565b92508282039050818111156121a9576121a861214c565b5b9291505056fea2646970667358221220445b5c3be7130849ec39566f7a520a8ea377685491993b8d9f9e0728a999e0eb64736f6c634300081c0033","opcodes":"PUSH1 0x80 PUSH1 0x40 MSTORE CALLVALUE DUP1 ISZERO PUSH1 0xF JUMPI PUSH1 0x0 DUP1 REVERT JUMPDEST POP PUSH2 0x21E5 DUP1 PUSH2 0x1F PUSH1 0x0 CODECOPY PUSH1 0x0 RETURN INVALID PUSH1 0x80 PUSH1 0x40 MSTORE CALLVALUE DUP1 ISZERO PUSH2 0x10 JUMPI PUSH1 0x0 DUP1 REVERT JUMPDEST POP PUSH1 0x4 CALLDATASIZE LT PUSH2 0x41 JUMPI PUSH1 0x0 CALLDATALOAD PUSH1 0xE0 SHR DUP1 PUSH4 0x44F63692 EQ PUSH2 0x46 JUMPI DUP1 PUSH4 0x5FE24F23 EQ PUSH2 0x76 JUMPI DUP1 PUSH4 0xF11817B2 EQ PUSH2 0x92 JUMPI JUMPDEST PUSH1 0x0 DUP1 REVERT JUMPDEST PUSH2 0x60 PUSH1 0x4 DUP1 CALLDATASIZE SUB DUP2 ADD SWAP1 PUSH2 0x5B SWAP2 SWAP1 PUSH2 0x1F2A JUMP JUMPDEST PUSH2 0xAE JUMP JUMPDEST PUSH1 0x40 MLOAD PUSH2 0x6D SWAP2 SWAP1 PUSH2 0x200D JUMP JUMPDEST PUSH1 0x40 MLOAD DUP1 SWAP2 SUB SWAP1 RETURN JUMPDEST PUSH2 0x90 PUSH1 0x4 DUP1 CALLDATASIZE SUB DUP2 ADD SWAP1 PUSH2 0x8B SWAP2 SWAP1 PUSH2 0x204A JUMP JUMPDEST PUSH2 0x20F JUMP JUMPDEST STOP JUMPDEST PUSH2 0xAC PUSH1 0x4 DUP1 CALLDATASIZE SUB DUP2 ADD SWAP1 PUSH2 0xA7 SWAP2 SWAP1 PUSH2 0x20AE JUMP JUMPDEST PUSH2 0x4AC JUMP JUMPDEST STOP JUMPDEST PUSH2 0xB6 PUSH2 0x1E97 JUMP JUMPDEST PUSH2 0xF0 DUP3 PUSH1 0x0 PUSH1 0x8 DUP2 LT PUSH2 0xCD JUMPI PUSH2 0xCC PUSH2 0x20EE JUMP JUMPDEST JUMPDEST PUSH1 0x20 MUL ADD CALLDATALOAD DUP4 PUSH1 0x1 PUSH1 0x8 DUP2 LT PUSH2 0xE6 JUMPI PUSH2 0xE5 PUSH2 0x20EE JUMP JUMPDEST JUMPDEST PUSH1 0x20 MUL ADD CALLDATALOAD PUSH2 0xA71 JUMP JUMPDEST DUP2 PUSH1 0x0 PUSH1 0x4 DUP2 LT PUSH2 0x104 JUMPI PUSH2 0x103 PUSH2 0x20EE JUMP JUMPDEST JUMPDEST PUSH1 0x20 MUL ADD DUP2 DUP2 MSTORE POP POP PUSH2 0x179 DUP3 PUSH1 0x3 PUSH1 0x8 DUP2 LT PUSH2 0x124 JUMPI PUSH2 0x123 PUSH2 0x20EE JUMP JUMPDEST JUMPDEST PUSH1 0x20 MUL ADD CALLDATALOAD DUP4 PUSH1 0x2 PUSH1 0x8 DUP2 LT PUSH2 0x13D JUMPI PUSH2 0x13C PUSH2 0x20EE JUMP JUMPDEST JUMPDEST PUSH1 0x20 MUL ADD CALLDATALOAD DUP5 PUSH1 0x5 PUSH1 0x8 DUP2 LT PUSH2 0x156 JUMPI PUSH2 0x155 PUSH2 0x20EE JUMP JUMPDEST JUMPDEST PUSH1 0x20 MUL ADD CALLDATALOAD DUP6 PUSH1 0x4 PUSH1 0x8 DUP2 LT PUSH2 0x16F JUMPI PUSH2 0x16E PUSH2 0x20EE JUMP JUMPDEST JUMPDEST PUSH1 0x20 MUL ADD CALLDATALOAD PUSH2 0xC25 JUMP JUMPDEST DUP3 PUSH1 0x2 PUSH1 0x4 DUP2 LT PUSH2 0x18D JUMPI PUSH2 0x18C PUSH2 0x20EE JUMP JUMPDEST JUMPDEST PUSH1 0x20 MUL ADD DUP4 PUSH1 0x1 PUSH1 0x4 DUP2 LT PUSH2 0x1A5 JUMPI PUSH2 0x1A4 PUSH2 0x20EE JUMP JUMPDEST JUMPDEST PUSH1 0x20 MUL ADD DUP3 DUP2 MSTORE POP DUP3 DUP2 MSTORE POP POP POP PUSH2 0x1ED DUP3 PUSH1 0x6 PUSH1 0x8 DUP2 LT PUSH2 0x1CA JUMPI PUSH2 0x1C9 PUSH2 0x20EE JUMP JUMPDEST JUMPDEST PUSH1 0x20 MUL ADD CALLDATALOAD DUP4 PUSH1 0x7 PUSH1 0x8 DUP2 LT PUSH2 0x1E3 JUMPI PUSH2 0x1E2 PUSH2 0x20EE JUMP JUMPDEST JUMPDEST PUSH1 0x20 MUL ADD CALLDATALOAD PUSH2 0xA71 JUMP JUMPDEST DUP2 PUSH1 0x3 PUSH1 0x4 DUP2 LT PUSH2 0x201 JUMPI PUSH2 0x200 PUSH2 0x20EE JUMP JUMPDEST JUMPDEST PUSH1 0x20 MUL ADD DUP2 DUP2 MSTORE POP POP SWAP2 SWAP1 POP JUMP JUMPDEST PUSH1 0x0 DUP1 PUSH2 0x21B DUP4 PUSH2 0x11FC JUMP JUMPDEST SWAP2 POP SWAP2 POP PUSH1 0x0 PUSH1 0x40 MLOAD PUSH2 0x100 DUP7 DUP3 CALLDATACOPY PUSH32 0x16745D03A639192C704CE964B6EC33E6A1B479752ECE322A2E13245CD889D05A PUSH2 0x100 DUP3 ADD MSTORE PUSH32 0x43B80C398EE93A8628C9A5A125D8EBB5C849C39D46EAA2D1E845D28C7DE63BB PUSH2 0x120 DUP3 ADD MSTORE PUSH32 0x25DB9C7FFAC50CD04E9509107BF5BDF38C2C7616003A73DDCAD6F931FC5730E1 PUSH2 0x140 DUP3 ADD MSTORE PUSH32 0xA47CEEA621B2AB035FB3157DA1305E645234BD9E14302DAF659D47CF36AA043 PUSH2 0x160 DUP3 ADD MSTORE PUSH32 0x17B5ECDD33654C0D7B7C0921F48E8AF9658E7714C4D734D0F9D3BAD9869AB55E PUSH2 0x180 DUP3 ADD MSTORE PUSH32 0x6215DCF6156043194F350132B0CF49530EEAB6FA2872E8A506ECF7B6FAB4820 PUSH2 0x1A0 DUP3 ADD MSTORE PUSH32 0x51D3B53F49BA8BDACB1C75ADCE20D5AD9A63721A50F2F5B768E126F0B6D6469 PUSH2 0x1C0 DUP3 ADD MSTORE PUSH32 0x27C5F8E589B6406EBE5598A0CDDE5FF1C39D1BFA6D5ED0A380387FDF3240DF05 PUSH2 0x1E0 DUP3 ADD MSTORE PUSH32 0x4FECA6B64FEDB3A23D83C45FBC540B1EA0A240696D2C96F2B5A9C81045486DB PUSH2 0x200 DUP3 ADD MSTORE PUSH32 0x14C846E30B855A1CD0562FD97497277DC57EACC71F484CE7375A7073BE34BDA6 PUSH2 0x220 DUP3 ADD MSTORE DUP4 PUSH2 0x240 DUP3 ADD MSTORE DUP3 PUSH2 0x260 DUP3 ADD MSTORE PUSH32 0x569BAEDE9121DE6470244E5D6580A6291319E9F2F3713EDA171E2A5F692F895 PUSH2 0x280 DUP3 ADD MSTORE PUSH32 0x3047359B6A4C9B1B0C76C171632D7D1AB8FCCE50E46489A93D0AA4CA3957F08B PUSH2 0x2A0 DUP3 ADD MSTORE PUSH32 0x1761EEE4DAEB7CBB22C886CDAA05C60950972313FB7AEA58419F12C74C526BCE PUSH2 0x2C0 DUP3 ADD MSTORE PUSH32 0x2D5F24211F35A6AD1CC6E780466E7E84BC92CFD68C64EE7E6D71F4CF46B1F3DC PUSH2 0x2E0 DUP3 ADD MSTORE PUSH1 0x20 DUP2 PUSH2 0x300 DUP4 PUSH1 0x8 GAS STATICCALL SWAP2 POP DUP1 MLOAD DUP3 AND SWAP2 POP POP DUP1 PUSH2 0x4A5 JUMPI PUSH1 0x40 MLOAD PUSH32 0x7FCDD1F400000000000000000000000000000000000000000000000000000000 DUP2 MSTORE PUSH1 0x4 ADD PUSH1 0x40 MLOAD DUP1 SWAP2 SUB SWAP1 REVERT JUMPDEST POP POP POP POP POP JUMP JUMPDEST PUSH2 0x4B4 PUSH2 0x1EB9 JUMP JUMPDEST PUSH1 0x0 DUP1 PUSH2 0x4D8 DUP6 PUSH1 0x0 PUSH1 0x4 DUP2 LT PUSH2 0x4CE JUMPI PUSH2 0x4CD PUSH2 0x20EE JUMP JUMPDEST JUMPDEST PUSH1 0x20 MUL ADD CALLDATALOAD PUSH2 0x13D1 JUMP JUMPDEST SWAP2 POP SWAP2 POP PUSH1 0x0 DUP1 PUSH1 0x0 DUP1 PUSH2 0x51C DUP10 PUSH1 0x2 PUSH1 0x4 DUP2 LT PUSH2 0x4F9 JUMPI PUSH2 0x4F8 PUSH2 0x20EE JUMP JUMPDEST JUMPDEST PUSH1 0x20 MUL ADD CALLDATALOAD DUP11 PUSH1 0x1 PUSH1 0x4 DUP2 LT PUSH2 0x512 JUMPI PUSH2 0x511 PUSH2 0x20EE JUMP JUMPDEST JUMPDEST PUSH1 0x20 MUL ADD CALLDATALOAD PUSH2 0x150A JUMP JUMPDEST SWAP4 POP SWAP4 POP SWAP4 POP SWAP4 POP PUSH1 0x0 DUP1 PUSH2 0x548 DUP12 PUSH1 0x3 PUSH1 0x4 DUP2 LT PUSH2 0x53E JUMPI PUSH2 0x53D PUSH2 0x20EE JUMP JUMPDEST JUMPDEST PUSH1 0x20 MUL ADD CALLDATALOAD PUSH2 0x13D1 JUMP JUMPDEST SWAP2 POP SWAP2 POP PUSH1 0x0 DUP1 PUSH2 0x558 DUP13 PUSH2 0x11FC JUMP JUMPDEST SWAP2 POP SWAP2 POP DUP10 DUP12 PUSH1 0x0 PUSH1 0x18 DUP2 LT PUSH2 0x571 JUMPI PUSH2 0x570 PUSH2 0x20EE JUMP JUMPDEST JUMPDEST PUSH1 0x20 MUL ADD DUP2 DUP2 MSTORE POP POP DUP9 DUP12 PUSH1 0x1 PUSH1 0x18 DUP2 LT PUSH2 0x58F JUMPI PUSH2 0x58E PUSH2 0x20EE JUMP JUMPDEST JUMPDEST PUSH1 0x20 MUL ADD DUP2 DUP2 MSTORE POP POP DUP7 DUP12 PUSH1 0x2 PUSH1 0x18 DUP2 LT PUSH2 0x5AD JUMPI PUSH2 0x5AC PUSH2 0x20EE JUMP JUMPDEST JUMPDEST PUSH1 0x20 MUL ADD DUP2 DUP2 MSTORE POP POP DUP8 DUP12 PUSH1 0x3 PUSH1 0x18 DUP2 LT PUSH2 0x5CB JUMPI PUSH2 0x5CA PUSH2 0x20EE JUMP JUMPDEST JUMPDEST PUSH1 0x20 MUL ADD DUP2 DUP2 MSTORE POP POP DUP5 DUP12 PUSH1 0x4 PUSH1 0x18 DUP2 LT PUSH2 0x5E9 JUMPI PUSH2 0x5E8 PUSH2 0x20EE JUMP JUMPDEST JUMPDEST PUSH1 0x20 MUL ADD DUP2 DUP2 MSTORE POP POP DUP6 DUP12 PUSH1 0x5 PUSH1 0x18 DUP2 LT PUSH2 0x607 JUMPI PUSH2 0x606 PUSH2 0x20EE JUMP JUMPDEST JUMPDEST PUSH1 0x20 MUL ADD DUP2 DUP2 MSTORE POP POP DUP4 DUP12 PUSH1 0x6 PUSH1 0x18 DUP2 LT PUSH2 0x625 JUMPI PUSH2 0x624 PUSH2 0x20EE JUMP JUMPDEST JUMPDEST PUSH1 0x20 MUL ADD DUP2 DUP2 MSTORE POP POP DUP3 DUP12 PUSH1 0x7 PUSH1 0x18 DUP2 LT PUSH2 0x643 JUMPI PUSH2 0x642 PUSH2 0x20EE JUMP JUMPDEST JUMPDEST PUSH1 0x20 MUL ADD DUP2 DUP2 MSTORE POP POP PUSH32 0x16745D03A639192C704CE964B6EC33E6A1B479752ECE322A2E13245CD889D05A DUP12 PUSH1 0x8 PUSH1 0x18 DUP2 LT PUSH2 0x681 JUMPI PUSH2 0x680 PUSH2 0x20EE JUMP JUMPDEST JUMPDEST PUSH1 0x20 MUL ADD DUP2 DUP2 MSTORE POP POP PUSH32 0x43B80C398EE93A8628C9A5A125D8EBB5C849C39D46EAA2D1E845D28C7DE63BB DUP12 PUSH1 0x9 PUSH1 0x18 DUP2 LT PUSH2 0x6BF JUMPI PUSH2 0x6BE PUSH2 0x20EE JUMP JUMPDEST JUMPDEST PUSH1 0x20 MUL ADD DUP2 DUP2 MSTORE POP POP PUSH32 0x25DB9C7FFAC50CD04E9509107BF5BDF38C2C7616003A73DDCAD6F931FC5730E1 DUP12 PUSH1 0xA PUSH1 0x18 DUP2 LT PUSH2 0x6FD JUMPI PUSH2 0x6FC PUSH2 0x20EE JUMP JUMPDEST JUMPDEST PUSH1 0x20 MUL ADD DUP2 DUP2 MSTORE POP POP PUSH32 0xA47CEEA621B2AB035FB3157DA1305E645234BD9E14302DAF659D47CF36AA043 DUP12 PUSH1 0xB PUSH1 0x18 DUP2 LT PUSH2 0x73B JUMPI PUSH2 0x73A PUSH2 0x20EE JUMP JUMPDEST JUMPDEST PUSH1 0x20 MUL ADD DUP2 DUP2 MSTORE POP POP PUSH32 0x17B5ECDD33654C0D7B7C0921F48E8AF9658E7714C4D734D0F9D3BAD9869AB55E DUP12 PUSH1 0xC PUSH1 0x18 DUP2 LT PUSH2 0x779 JUMPI PUSH2 0x778 PUSH2 0x20EE JUMP JUMPDEST JUMPDEST PUSH1 0x20 MUL ADD DUP2 DUP2 MSTORE POP POP PUSH32 0x6215DCF6156043194F350132B0CF49530EEAB6FA2872E8A506ECF7B6FAB4820 DUP12 PUSH1 0xD PUSH1 0x18 DUP2 LT PUSH2 0x7B7 JUMPI PUSH2 0x7B6 PUSH2 0x20EE JUMP JUMPDEST JUMPDEST PUSH1 0x20 MUL ADD DUP2 DUP2 MSTORE POP POP PUSH32 0x51D3B53F49BA8BDACB1C75ADCE20D5AD9A63721A50F2F5B768E126F0B6D6469 DUP12 PUSH1 0xE PUSH1 0x18 DUP2 LT PUSH2 0x7F5 JUMPI PUSH2 0x7F4 PUSH2 0x20EE JUMP JUMPDEST JUMPDEST PUSH1 0x20 MUL ADD DUP2 DUP2 MSTORE POP POP PUSH32 0x27C5F8E589B6406EBE5598A0CDDE5FF1C39D1BFA6D5ED0A380387FDF3240DF05 DUP12 PUSH1 0xF PUSH1 0x18 DUP2 LT PUSH2 0x833 JUMPI PUSH2 0x832 PUSH2 0x20EE JUMP JUMPDEST JUMPDEST PUSH1 0x20 MUL ADD DUP2 DUP2 MSTORE POP POP PUSH32 0x4FECA6B64FEDB3A23D83C45FBC540B1EA0A240696D2C96F2B5A9C81045486DB DUP12 PUSH1 0x10 PUSH1 0x18 DUP2 LT PUSH2 0x871 JUMPI PUSH2 0x870 PUSH2 0x20EE JUMP JUMPDEST JUMPDEST PUSH1 0x20 MUL ADD DUP2 DUP2 MSTORE POP POP PUSH32 0x14C846E30B855A1CD0562FD97497277DC57EACC71F484CE7375A7073BE34BDA6 DUP12 PUSH1 0x11 PUSH1 0x18 DUP2 LT PUSH2 0x8AF JUMPI PUSH2 0x8AE PUSH2 0x20EE JUMP JUMPDEST JUMPDEST PUSH1 0x20 MUL ADD DUP2 DUP2 MSTORE POP POP DUP2 DUP12 PUSH1 0x12 PUSH1 0x18 DUP2 LT PUSH2 0x8CD JUMPI PUSH2 0x8CC PUSH2 0x20EE JUMP JUMPDEST JUMPDEST PUSH1 0x20 MUL ADD DUP2 DUP2 MSTORE POP POP DUP1 DUP12 PUSH1 0x13 PUSH1 0x18 DUP2 LT PUSH2 0x8EB JUMPI PUSH2 0x8EA PUSH2 0x20EE JUMP JUMPDEST JUMPDEST PUSH1 0x20 MUL ADD DUP2 DUP2 MSTORE POP POP PUSH32 0x569BAEDE9121DE6470244E5D6580A6291319E9F2F3713EDA171E2A5F692F895 DUP12 PUSH1 0x14 PUSH1 0x18 DUP2 LT PUSH2 0x929 JUMPI PUSH2 0x928 PUSH2 0x20EE JUMP JUMPDEST JUMPDEST PUSH1 0x20 MUL ADD DUP2 DUP2 MSTORE POP POP PUSH32 0x3047359B6A4C9B1B0C76C171632D7D1AB8FCCE50E46489A93D0AA4CA3957F08B DUP12 PUSH1 0x15 PUSH1 0x18 DUP2 LT PUSH2 0x967 JUMPI PUSH2 0x966 PUSH2 0x20EE JUMP JUMPDEST JUMPDEST PUSH1 0x20 MUL ADD DUP2 DUP2 MSTORE POP POP PUSH32 0x1761EEE4DAEB7CBB22C886CDAA05C60950972313FB7AEA58419F12C74C526BCE DUP12 PUSH1 0x16 PUSH1 0x18 DUP2 LT PUSH2 0x9A5 JUMPI PUSH2 0x9A4 PUSH2 0x20EE JUMP JUMPDEST JUMPDEST PUSH1 0x20 MUL ADD DUP2 DUP2 MSTORE POP POP PUSH32 0x2D5F24211F35A6AD1CC6E780466E7E84BC92CFD68C64EE7E6D71F4CF46B1F3DC DUP12 PUSH1 0x17 PUSH1 0x18 DUP2 LT PUSH2 0x9E3 JUMPI PUSH2 0x9E2 PUSH2 0x20EE JUMP JUMPDEST JUMPDEST PUSH1 0x20 MUL ADD DUP2 DUP2 MSTORE POP POP PUSH1 0x0 PUSH2 0x9F6 PUSH2 0x1EDC JUMP JUMPDEST PUSH1 0x20 DUP2 PUSH2 0x300 DUP16 PUSH1 0x8 GAS STATICCALL SWAP2 POP DUP2 ISZERO DUP1 PUSH2 0xA29 JUMPI POP PUSH1 0x1 DUP2 PUSH1 0x0 PUSH1 0x1 DUP2 LT PUSH2 0xA21 JUMPI PUSH2 0xA20 PUSH2 0x20EE JUMP JUMPDEST JUMPDEST PUSH1 0x20 MUL ADD MLOAD EQ ISZERO JUMPDEST ISZERO PUSH2 0xA60 JUMPI PUSH1 0x40 MLOAD PUSH32 0x7FCDD1F400000000000000000000000000000000000000000000000000000000 DUP2 MSTORE PUSH1 0x4 ADD PUSH1 0x40 MLOAD DUP1 SWAP2 SUB SWAP1 REVERT JUMPDEST POP POP POP POP POP POP POP POP POP POP POP POP POP POP POP JUMP JUMPDEST PUSH1 0x0 PUSH32 0x30644E72E131A029B85045B68181585D97816A916871CA8D3C208C16D87CFD47 DUP4 LT ISZERO DUP1 PUSH2 0xAC2 JUMPI POP PUSH32 0x30644E72E131A029B85045B68181585D97816A916871CA8D3C208C16D87CFD47 DUP3 LT ISZERO JUMPDEST ISZERO PUSH2 0xAF9 JUMPI PUSH1 0x40 MLOAD PUSH32 0x7FCDD1F400000000000000000000000000000000000000000000000000000000 DUP2 MSTORE PUSH1 0x4 ADD PUSH1 0x40 MLOAD DUP1 SWAP2 SUB SWAP1 REVERT JUMPDEST PUSH1 0x0 DUP4 EQ DUP1 ISZERO PUSH2 0xB09 JUMPI POP PUSH1 0x0 DUP3 EQ JUMPDEST ISZERO PUSH2 0xB17 JUMPI PUSH1 0x0 SWAP1 POP PUSH2 0xC1F JUMP JUMPDEST PUSH1 0x0 PUSH2 0xBB6 PUSH32 0x30644E72E131A029B85045B68181585D97816A916871CA8D3C208C16D87CFD47 DUP1 PUSH2 0xB4B JUMPI PUSH2 0xB4A PUSH2 0x211D JUMP JUMPDEST JUMPDEST PUSH1 0x3 PUSH32 0x30644E72E131A029B85045B68181585D97816A916871CA8D3C208C16D87CFD47 DUP1 PUSH2 0xB7C JUMPI PUSH2 0xB7B PUSH2 0x211D JUMP JUMPDEST JUMPDEST DUP8 PUSH32 0x30644E72E131A029B85045B68181585D97816A916871CA8D3C208C16D87CFD47 DUP1 PUSH2 0xBAC JUMPI PUSH2 0xBAB PUSH2 0x211D JUMP JUMPDEST JUMPDEST DUP10 DUP11 MULMOD MULMOD ADDMOD PUSH2 0x18F0 JUMP JUMPDEST SWAP1 POP DUP1 DUP4 SUB PUSH2 0xBCF JUMPI PUSH1 0x0 PUSH1 0x1 DUP6 SWAP1 SHL OR SWAP2 POP POP PUSH2 0xC1F JUMP JUMPDEST PUSH2 0xBD8 DUP2 PUSH2 0x198D JUMP JUMPDEST DUP4 SUB PUSH2 0xBED JUMPI PUSH1 0x1 DUP1 DUP6 SWAP1 SHL OR SWAP2 POP POP PUSH2 0xC1F JUMP JUMPDEST PUSH1 0x40 MLOAD PUSH32 0x7FCDD1F400000000000000000000000000000000000000000000000000000000 DUP2 MSTORE PUSH1 0x4 ADD PUSH1 0x40 MLOAD DUP1 SWAP2 SUB SWAP1 REVERT JUMPDEST SWAP3 SWAP2 POP POP JUMP JUMPDEST PUSH1 0x0 DUP1 PUSH32 0x30644E72E131A029B85045B68181585D97816A916871CA8D3C208C16D87CFD47 DUP7 LT ISZERO DUP1 PUSH2 0xC77 JUMPI POP PUSH32 0x30644E72E131A029B85045B68181585D97816A916871CA8D3C208C16D87CFD47 DUP6 LT ISZERO JUMPDEST DUP1 PUSH2 0xCA2 JUMPI POP PUSH32 0x30644E72E131A029B85045B68181585D97816A916871CA8D3C208C16D87CFD47 DUP5 LT ISZERO JUMPDEST DUP1 PUSH2 0xCCD JUMPI POP PUSH32 0x30644E72E131A029B85045B68181585D97816A916871CA8D3C208C16D87CFD47 DUP4 LT ISZERO JUMPDEST ISZERO PUSH2 0xD04 JUMPI PUSH1 0x40 MLOAD PUSH32 0x7FCDD1F400000000000000000000000000000000000000000000000000000000 DUP2 MSTORE PUSH1 0x4 ADD PUSH1 0x40 MLOAD DUP1 SWAP2 SUB SWAP1 REVERT JUMPDEST PUSH1 0x0 DUP4 DUP6 DUP8 DUP10 OR OR OR SUB PUSH2 0xD1E JUMPI PUSH1 0x0 DUP1 SWAP2 POP SWAP2 POP PUSH2 0x11F3 JUMP JUMPDEST PUSH1 0x0 DUP1 PUSH1 0x0 PUSH32 0x30644E72E131A029B85045B68181585D97816A916871CA8D3C208C16D87CFD47 DUP1 PUSH2 0xD52 JUMPI PUSH2 0xD51 PUSH2 0x211D JUMP JUMPDEST JUMPDEST PUSH1 0x3 PUSH32 0x30644E72E131A029B85045B68181585D97816A916871CA8D3C208C16D87CFD47 PUSH2 0xD7F SWAP2 SWAP1 PUSH2 0x217B JUMP JUMPDEST PUSH32 0x30644E72E131A029B85045B68181585D97816A916871CA8D3C208C16D87CFD47 DUP1 PUSH2 0xDAE JUMPI PUSH2 0xDAD PUSH2 0x211D JUMP JUMPDEST JUMPDEST DUP11 DUP13 MULMOD MULMOD SWAP1 POP PUSH1 0x0 PUSH32 0x30644E72E131A029B85045B68181585D97816A916871CA8D3C208C16D87CFD47 DUP1 PUSH2 0xDE5 JUMPI PUSH2 0xDE4 PUSH2 0x211D JUMP JUMPDEST JUMPDEST DUP11 PUSH32 0x30644E72E131A029B85045B68181585D97816A916871CA8D3C208C16D87CFD47 DUP1 PUSH2 0xE15 JUMPI PUSH2 0xE14 PUSH2 0x211D JUMP JUMPDEST JUMPDEST DUP13 DUP14 MULMOD MULMOD SWAP1 POP PUSH1 0x0 PUSH32 0x30644E72E131A029B85045B68181585D97816A916871CA8D3C208C16D87CFD47 DUP1 PUSH2 0xE4C JUMPI PUSH2 0xE4B PUSH2 0x211D JUMP JUMPDEST JUMPDEST DUP11 PUSH32 0x30644E72E131A029B85045B68181585D97816A916871CA8D3C208C16D87CFD47 DUP1 PUSH2 0xE7C JUMPI PUSH2 0xE7B PUSH2 0x211D JUMP JUMPDEST JUMPDEST DUP13 DUP14 MULMOD MULMOD SWAP1 POP PUSH32 0x30644E72E131A029B85045B68181585D97816A916871CA8D3C208C16D87CFD47 DUP1 PUSH2 0xEB1 JUMPI PUSH2 0xEB0 PUSH2 0x211D JUMP JUMPDEST JUMPDEST PUSH32 0x30644E72E131A029B85045B68181585D97816A916871CA8D3C208C16D87CFD47 DUP1 PUSH2 0xEE0 JUMPI PUSH2 0xEDF PUSH2 0x211D JUMP JUMPDEST JUMPDEST PUSH32 0x30644E72E131A029B85045B68181585D97816A916871CA8D3C208C16D87CFD47 DUP1 PUSH2 0xF0F JUMPI PUSH2 0xF0E PUSH2 0x211D JUMP JUMPDEST JUMPDEST DUP13 DUP7 MULMOD DUP5 ADDMOD PUSH32 0x2B149D40CEB8AAAE81BE18991BE06AC3B5B4C5E559DBEFA33267E6DC24A138E5 ADDMOD SWAP5 POP PUSH2 0xFF4 PUSH32 0x30644E72E131A029B85045B68181585D97816A916871CA8D3C208C16D87CFD47 DUP1 PUSH2 0xF6A JUMPI PUSH2 0xF69 PUSH2 0x211D JUMP JUMPDEST JUMPDEST PUSH32 0x30644E72E131A029B85045B68181585D97816A916871CA8D3C208C16D87CFD47 DUP1 PUSH2 0xF99 JUMPI PUSH2 0xF98 PUSH2 0x211D JUMP JUMPDEST JUMPDEST PUSH32 0x30644E72E131A029B85045B68181585D97816A916871CA8D3C208C16D87CFD47 DUP1 PUSH2 0xFC8 JUMPI PUSH2 0xFC7 PUSH2 0x211D JUMP JUMPDEST JUMPDEST DUP15 DUP8 MULMOD DUP5 ADDMOD PUSH32 0x2FCD3AC2A640A154EB23960892A85A68F031CA0C8344B23A577DCF1052B9E775 ADDMOD PUSH2 0x198D JUMP JUMPDEST SWAP4 POP POP POP POP PUSH1 0x0 DUP1 PUSH2 0x1098 PUSH32 0x30644E72E131A029B85045B68181585D97816A916871CA8D3C208C16D87CFD47 DUP1 PUSH2 0x102E JUMPI PUSH2 0x102D PUSH2 0x211D JUMP JUMPDEST JUMPDEST PUSH32 0x30644E72E131A029B85045B68181585D97816A916871CA8D3C208C16D87CFD47 DUP1 PUSH2 0x105D JUMPI PUSH2 0x105C PUSH2 0x211D JUMP JUMPDEST JUMPDEST DUP6 DUP7 MULMOD PUSH32 0x30644E72E131A029B85045B68181585D97816A916871CA8D3C208C16D87CFD47 DUP1 PUSH2 0x108F JUMPI PUSH2 0x108E PUSH2 0x211D JUMP JUMPDEST JUMPDEST DUP8 DUP9 MULMOD ADDMOD PUSH2 0x18F0 JUMP JUMPDEST SWAP1 POP PUSH2 0x1125 PUSH32 0x30644E72E131A029B85045B68181585D97816A916871CA8D3C208C16D87CFD47 DUP1 PUSH2 0x10CC JUMPI PUSH2 0x10CB PUSH2 0x211D JUMP JUMPDEST JUMPDEST PUSH32 0x183227397098D014DC2822DB40C0AC2ECBC0B548B438E5469E10460B6C3E7EA4 PUSH32 0x30644E72E131A029B85045B68181585D97816A916871CA8D3C208C16D87CFD47 DUP1 PUSH2 0x111C JUMPI PUSH2 0x111B PUSH2 0x211D JUMP JUMPDEST JUMPDEST DUP5 DUP9 ADDMOD MULMOD PUSH2 0x19F9 JUMP JUMPDEST ISZERO SWAP2 POP POP PUSH2 0x1134 DUP4 DUP4 DUP4 PUSH2 0x1A64 JUMP JUMPDEST DUP1 SWAP4 POP DUP2 SWAP5 POP POP POP DUP3 DUP8 EQ DUP1 ISZERO PUSH2 0x114A JUMPI POP DUP2 DUP7 EQ JUMPDEST ISZERO PUSH2 0x1174 JUMPI PUSH1 0x0 DUP2 PUSH2 0x115D JUMPI PUSH1 0x0 PUSH2 0x1160 JUMP JUMPDEST PUSH1 0x2 JUMPDEST PUSH1 0xFF AND PUSH1 0x2 DUP12 SWAP1 SHL OR OR SWAP5 POP DUP8 SWAP4 POP PUSH2 0x11EF JUMP JUMPDEST PUSH2 0x117D DUP4 PUSH2 0x198D JUMP JUMPDEST DUP8 EQ DUP1 ISZERO PUSH2 0x1192 JUMPI POP PUSH2 0x118F DUP3 PUSH2 0x198D JUMP JUMPDEST DUP7 EQ JUMPDEST ISZERO PUSH2 0x11BC JUMPI PUSH1 0x1 DUP2 PUSH2 0x11A5 JUMPI PUSH1 0x0 PUSH2 0x11A8 JUMP JUMPDEST PUSH1 0x2 JUMPDEST PUSH1 0xFF AND PUSH1 0x2 DUP12 SWAP1 SHL OR OR SWAP5 POP DUP8 SWAP4 POP PUSH2 0x11EE JUMP JUMPDEST PUSH1 0x40 MLOAD PUSH32 0x7FCDD1F400000000000000000000000000000000000000000000000000000000 DUP2 MSTORE PUSH1 0x4 ADD PUSH1 0x40 MLOAD DUP1 SWAP2 SUB SWAP1 REVERT JUMPDEST JUMPDEST POP POP POP JUMPDEST SWAP5 POP SWAP5 SWAP3 POP POP POP JUMP JUMPDEST PUSH1 0x0 DUP1 PUSH1 0x0 PUSH1 0x1 SWAP1 POP PUSH1 0x40 MLOAD PUSH1 0x40 DUP2 ADD PUSH1 0x0 PUSH32 0x19EFF5F0997DA2495123C32580DBA70AFD862097F504B7AE568809DC461B9445 DUP4 MSTORE PUSH32 0x17B2F4F6999C24DD22CF20F2FCFBB1CEE658C9E461E8F4BC83C5D9C6AE1ABA34 PUSH1 0x20 DUP5 ADD MSTORE PUSH32 0xB1B3DC482086CA799E85A2FE9377045FB665F47DA3893522AC3CE6C702E0719 DUP3 MSTORE PUSH32 0x35930494C8AD98E3CC51DF06EC46113A4A831685CD9D74D01A74CFA4E3643D9 PUSH1 0x20 DUP4 ADD MSTORE DUP7 CALLDATALOAD SWAP1 POP DUP1 PUSH1 0x40 DUP4 ADD MSTORE PUSH32 0x30644E72E131A029B85045B68181585D2833E84879B9709143E1F593F0000001 DUP2 LT DUP5 AND SWAP4 POP PUSH1 0x40 DUP3 PUSH1 0x60 DUP5 PUSH1 0x7 GAS STATICCALL DUP5 AND SWAP4 POP PUSH1 0x40 DUP4 PUSH1 0x80 DUP6 PUSH1 0x6 GAS STATICCALL DUP5 AND SWAP4 POP PUSH32 0x2FA58AC9A6C60B0A12B35412571F140E68CF62BEEB9A84E7E0AAEAA3C2D7154 DUP3 MSTORE PUSH32 0x1308AEF5E9D9C681D69A9F83D8B772E61FD10872C15ACFB99F96387A13E4C159 PUSH1 0x20 DUP4 ADD MSTORE PUSH1 0x20 DUP8 ADD CALLDATALOAD SWAP1 POP DUP1 PUSH1 0x40 DUP4 ADD MSTORE PUSH32 0x30644E72E131A029B85045B68181585D2833E84879B9709143E1F593F0000001 DUP2 LT DUP5 AND SWAP4 POP PUSH1 0x40 DUP3 PUSH1 0x60 DUP5 PUSH1 0x7 GAS STATICCALL DUP5 AND SWAP4 POP PUSH1 0x40 DUP4 PUSH1 0x80 DUP6 PUSH1 0x6 GAS STATICCALL DUP5 AND SWAP4 POP DUP3 MLOAD SWAP6 POP PUSH1 0x20 DUP4 ADD MLOAD SWAP5 POP POP POP POP DUP1 PUSH2 0x13CB JUMPI PUSH1 0x40 MLOAD PUSH32 0xA54F8E2700000000000000000000000000000000000000000000000000000000 DUP2 MSTORE PUSH1 0x4 ADD PUSH1 0x40 MLOAD DUP1 SWAP2 SUB SWAP1 REVERT JUMPDEST POP SWAP2 POP SWAP2 JUMP JUMPDEST PUSH1 0x0 DUP1 PUSH1 0x0 DUP4 SUB PUSH2 0x13E8 JUMPI PUSH1 0x0 DUP1 SWAP2 POP SWAP2 POP PUSH2 0x1505 JUMP JUMPDEST PUSH1 0x0 PUSH1 0x1 DUP1 DUP6 AND EQ SWAP1 POP PUSH1 0x1 DUP5 SWAP1 SHR SWAP3 POP PUSH32 0x30644E72E131A029B85045B68181585D97816A916871CA8D3C208C16D87CFD47 DUP4 LT PUSH2 0x1452 JUMPI PUSH1 0x40 MLOAD PUSH32 0x7FCDD1F400000000000000000000000000000000000000000000000000000000 DUP2 MSTORE PUSH1 0x4 ADD PUSH1 0x40 MLOAD DUP1 SWAP2 SUB SWAP1 REVERT JUMPDEST PUSH2 0x14EF PUSH32 0x30644E72E131A029B85045B68181585D97816A916871CA8D3C208C16D87CFD47 DUP1 PUSH2 0x1484 JUMPI PUSH2 0x1483 PUSH2 0x211D JUMP JUMPDEST JUMPDEST PUSH1 0x3 PUSH32 0x30644E72E131A029B85045B68181585D97816A916871CA8D3C208C16D87CFD47 DUP1 PUSH2 0x14B5 JUMPI PUSH2 0x14B4 PUSH2 0x211D JUMP JUMPDEST JUMPDEST DUP7 PUSH32 0x30644E72E131A029B85045B68181585D97816A916871CA8D3C208C16D87CFD47 DUP1 PUSH2 0x14E5 JUMPI PUSH2 0x14E4 PUSH2 0x211D JUMP JUMPDEST JUMPDEST DUP9 DUP10 MULMOD MULMOD ADDMOD PUSH2 0x18F0 JUMP JUMPDEST SWAP2 POP DUP1 ISZERO PUSH2 0x1503 JUMPI PUSH2 0x1500 DUP3 PUSH2 0x198D JUMP JUMPDEST SWAP2 POP JUMPDEST POP JUMPDEST SWAP2 POP SWAP2 JUMP JUMPDEST PUSH1 0x0 DUP1 PUSH1 0x0 DUP1 PUSH1 0x0 DUP7 EQ DUP1 ISZERO PUSH2 0x1520 JUMPI POP PUSH1 0x0 DUP6 EQ JUMPDEST ISZERO PUSH2 0x1538 JUMPI PUSH1 0x0 DUP1 PUSH1 0x0 DUP1 SWAP4 POP SWAP4 POP SWAP4 POP SWAP4 POP PUSH2 0x18E7 JUMP JUMPDEST PUSH1 0x0 PUSH1 0x1 DUP1 DUP9 AND EQ SWAP1 POP PUSH1 0x0 PUSH1 0x2 DUP1 DUP10 AND EQ SWAP1 POP PUSH1 0x2 DUP9 SWAP1 SHR SWAP6 POP DUP7 SWAP5 POP PUSH32 0x30644E72E131A029B85045B68181585D97816A916871CA8D3C208C16D87CFD47 DUP7 LT ISZERO DUP1 PUSH2 0x15A5 JUMPI POP PUSH32 0x30644E72E131A029B85045B68181585D97816A916871CA8D3C208C16D87CFD47 DUP6 LT ISZERO JUMPDEST ISZERO PUSH2 0x15DC JUMPI PUSH1 0x40 MLOAD PUSH32 0x7FCDD1F400000000000000000000000000000000000000000000000000000000 DUP2 MSTORE PUSH1 0x4 ADD PUSH1 0x40 MLOAD DUP1 SWAP2 SUB SWAP1 REVERT JUMPDEST PUSH1 0x0 PUSH32 0x30644E72E131A029B85045B68181585D97816A916871CA8D3C208C16D87CFD47 DUP1 PUSH2 0x160D JUMPI PUSH2 0x160C PUSH2 0x211D JUMP JUMPDEST JUMPDEST PUSH1 0x3 PUSH32 0x30644E72E131A029B85045B68181585D97816A916871CA8D3C208C16D87CFD47 PUSH2 0x163A SWAP2 SWAP1 PUSH2 0x217B JUMP JUMPDEST PUSH32 0x30644E72E131A029B85045B68181585D97816A916871CA8D3C208C16D87CFD47 DUP1 PUSH2 0x1669 JUMPI PUSH2 0x1668 PUSH2 0x211D JUMP JUMPDEST JUMPDEST DUP9 DUP11 MULMOD MULMOD SWAP1 POP PUSH1 0x0 PUSH32 0x30644E72E131A029B85045B68181585D97816A916871CA8D3C208C16D87CFD47 DUP1 PUSH2 0x16A0 JUMPI PUSH2 0x169F PUSH2 0x211D JUMP JUMPDEST JUMPDEST DUP9 PUSH32 0x30644E72E131A029B85045B68181585D97816A916871CA8D3C208C16D87CFD47 DUP1 PUSH2 0x16D0 JUMPI PUSH2 0x16CF PUSH2 0x211D JUMP JUMPDEST JUMPDEST DUP11 DUP12 MULMOD MULMOD SWAP1 POP PUSH1 0x0 PUSH32 0x30644E72E131A029B85045B68181585D97816A916871CA8D3C208C16D87CFD47 DUP1 PUSH2 0x1707 JUMPI PUSH2 0x1706 PUSH2 0x211D JUMP JUMPDEST JUMPDEST DUP9 PUSH32 0x30644E72E131A029B85045B68181585D97816A916871CA8D3C208C16D87CFD47 DUP1 PUSH2 0x1737 JUMPI PUSH2 0x1736 PUSH2 0x211D JUMP JUMPDEST JUMPDEST DUP11 DUP12 MULMOD MULMOD SWAP1 POP PUSH32 0x30644E72E131A029B85045B68181585D97816A916871CA8D3C208C16D87CFD47 DUP1 PUSH2 0x176C JUMPI PUSH2 0x176B PUSH2 0x211D JUMP JUMPDEST JUMPDEST PUSH32 0x30644E72E131A029B85045B68181585D97816A916871CA8D3C208C16D87CFD47 DUP1 PUSH2 0x179B JUMPI PUSH2 0x179A PUSH2 0x211D JUMP JUMPDEST JUMPDEST PUSH32 0x30644E72E131A029B85045B68181585D97816A916871CA8D3C208C16D87CFD47 DUP1 PUSH2 0x17CA JUMPI PUSH2 0x17C9 PUSH2 0x211D JUMP JUMPDEST JUMPDEST DUP11 DUP7 MULMOD DUP5 ADDMOD PUSH32 0x2B149D40CEB8AAAE81BE18991BE06AC3B5B4C5E559DBEFA33267E6DC24A138E5 ADDMOD SWAP7 POP PUSH2 0x18AF PUSH32 0x30644E72E131A029B85045B68181585D97816A916871CA8D3C208C16D87CFD47 DUP1 PUSH2 0x1825 JUMPI PUSH2 0x1824 PUSH2 0x211D JUMP JUMPDEST JUMPDEST PUSH32 0x30644E72E131A029B85045B68181585D97816A916871CA8D3C208C16D87CFD47 DUP1 PUSH2 0x1854 JUMPI PUSH2 0x1853 PUSH2 0x211D JUMP JUMPDEST JUMPDEST PUSH32 0x30644E72E131A029B85045B68181585D97816A916871CA8D3C208C16D87CFD47 DUP1 PUSH2 0x1883 JUMPI PUSH2 0x1882 PUSH2 0x211D JUMP JUMPDEST JUMPDEST DUP13 DUP8 MULMOD DUP5 ADDMOD PUSH32 0x2FCD3AC2A640A154EB23960892A85A68F031CA0C8344B23A577DCF1052B9E775 ADDMOD PUSH2 0x198D JUMP JUMPDEST SWAP6 POP PUSH2 0x18BC DUP8 DUP8 DUP7 PUSH2 0x1A64 JUMP JUMPDEST DUP1 SWAP8 POP DUP2 SWAP9 POP POP POP DUP5 ISZERO PUSH2 0x18E1 JUMPI PUSH2 0x18D3 DUP8 PUSH2 0x198D JUMP JUMPDEST SWAP7 POP PUSH2 0x18DE DUP7 PUSH2 0x198D JUMP JUMPDEST SWAP6 POP JUMPDEST POP POP POP POP POP JUMPDEST SWAP3 SWAP6 SWAP2 SWAP5 POP SWAP3 POP JUMP JUMPDEST PUSH1 0x0 PUSH2 0x191C DUP3 PUSH32 0xC19139CB84C680A6E14116DA060561765E05AA45A1C72A34F082305B61F3F52 PUSH2 0x1D61 JUMP JUMPDEST SWAP1 POP DUP2 PUSH32 0x30644E72E131A029B85045B68181585D97816A916871CA8D3C208C16D87CFD47 DUP1 PUSH2 0x194E JUMPI PUSH2 0x194D PUSH2 0x211D JUMP JUMPDEST JUMPDEST DUP3 DUP4 MULMOD EQ PUSH2 0x1988 JUMPI PUSH1 0x40 MLOAD PUSH32 0x7FCDD1F400000000000000000000000000000000000000000000000000000000 DUP2 MSTORE PUSH1 0x4 ADD PUSH1 0x40 MLOAD DUP1 SWAP2 SUB SWAP1 REVERT JUMPDEST SWAP2 SWAP1 POP JUMP JUMPDEST PUSH1 0x0 PUSH32 0x30644E72E131A029B85045B68181585D97816A916871CA8D3C208C16D87CFD47 DUP1 DUP4 DUP2 PUSH2 0x19C0 JUMPI PUSH2 0x19BF PUSH2 0x211D JUMP JUMPDEST JUMPDEST MOD PUSH32 0x30644E72E131A029B85045B68181585D97816A916871CA8D3C208C16D87CFD47 SUB DUP2 PUSH2 0x19F1 JUMPI PUSH2 0x19F0 PUSH2 0x211D JUMP JUMPDEST JUMPDEST MOD SWAP1 POP SWAP2 SWAP1 POP JUMP JUMPDEST PUSH1 0x0 DUP1 PUSH2 0x1A26 DUP4 PUSH32 0xC19139CB84C680A6E14116DA060561765E05AA45A1C72A34F082305B61F3F52 PUSH2 0x1D61 JUMP JUMPDEST SWAP1 POP DUP3 PUSH32 0x30644E72E131A029B85045B68181585D97816A916871CA8D3C208C16D87CFD47 DUP1 PUSH2 0x1A58 JUMPI PUSH2 0x1A57 PUSH2 0x211D JUMP JUMPDEST JUMPDEST DUP3 DUP4 MULMOD EQ SWAP2 POP POP SWAP2 SWAP1 POP JUMP JUMPDEST PUSH1 0x0 DUP1 PUSH1 0x0 PUSH2 0x1B05 PUSH32 0x30644E72E131A029B85045B68181585D97816A916871CA8D3C208C16D87CFD47 DUP1 PUSH2 0x1A9B JUMPI PUSH2 0x1A9A PUSH2 0x211D JUMP JUMPDEST JUMPDEST PUSH32 0x30644E72E131A029B85045B68181585D97816A916871CA8D3C208C16D87CFD47 DUP1 PUSH2 0x1ACA JUMPI PUSH2 0x1AC9 PUSH2 0x211D JUMP JUMPDEST JUMPDEST DUP8 DUP9 MULMOD PUSH32 0x30644E72E131A029B85045B68181585D97816A916871CA8D3C208C16D87CFD47 DUP1 PUSH2 0x1AFC JUMPI PUSH2 0x1AFB PUSH2 0x211D JUMP JUMPDEST JUMPDEST DUP10 DUP11 MULMOD ADDMOD PUSH2 0x18F0 JUMP JUMPDEST SWAP1 POP DUP4 ISZERO PUSH2 0x1B19 JUMPI PUSH2 0x1B16 DUP2 PUSH2 0x198D JUMP JUMPDEST SWAP1 POP JUMPDEST PUSH2 0x1BA4 PUSH32 0x30644E72E131A029B85045B68181585D97816A916871CA8D3C208C16D87CFD47 DUP1 PUSH2 0x1B4B JUMPI PUSH2 0x1B4A PUSH2 0x211D JUMP JUMPDEST JUMPDEST PUSH32 0x183227397098D014DC2822DB40C0AC2ECBC0B548B438E5469E10460B6C3E7EA4 PUSH32 0x30644E72E131A029B85045B68181585D97816A916871CA8D3C208C16D87CFD47 DUP1 PUSH2 0x1B9B JUMPI PUSH2 0x1B9A PUSH2 0x211D JUMP JUMPDEST JUMPDEST DUP5 DUP11 ADDMOD MULMOD PUSH2 0x18F0 JUMP JUMPDEST SWAP3 POP PUSH32 0x30644E72E131A029B85045B68181585D97816A916871CA8D3C208C16D87CFD47 DUP1 PUSH2 0x1BD5 JUMPI PUSH2 0x1BD4 PUSH2 0x211D JUMP JUMPDEST JUMPDEST PUSH2 0x1C10 PUSH32 0x30644E72E131A029B85045B68181585D97816A916871CA8D3C208C16D87CFD47 DUP1 PUSH2 0x1C07 JUMPI PUSH2 0x1C06 PUSH2 0x211D JUMP JUMPDEST JUMPDEST PUSH1 0x2 DUP7 MULMOD PUSH2 0x1DF9 JUMP JUMPDEST DUP7 MULMOD SWAP2 POP PUSH32 0x30644E72E131A029B85045B68181585D97816A916871CA8D3C208C16D87CFD47 DUP1 PUSH2 0x1C43 JUMPI PUSH2 0x1C42 PUSH2 0x211D JUMP JUMPDEST JUMPDEST PUSH2 0x1C7D PUSH32 0x30644E72E131A029B85045B68181585D97816A916871CA8D3C208C16D87CFD47 DUP1 PUSH2 0x1C75 JUMPI PUSH2 0x1C74 PUSH2 0x211D JUMP JUMPDEST JUMPDEST DUP5 DUP6 MULMOD PUSH2 0x198D JUMP JUMPDEST PUSH32 0x30644E72E131A029B85045B68181585D97816A916871CA8D3C208C16D87CFD47 DUP1 PUSH2 0x1CAC JUMPI PUSH2 0x1CAB PUSH2 0x211D JUMP JUMPDEST JUMPDEST DUP6 DUP7 MULMOD ADDMOD DUP7 EQ ISZERO DUP1 PUSH2 0x1D21 JUMPI POP PUSH32 0x30644E72E131A029B85045B68181585D97816A916871CA8D3C208C16D87CFD47 DUP1 PUSH2 0x1CE8 JUMPI PUSH2 0x1CE7 PUSH2 0x211D JUMP JUMPDEST JUMPDEST PUSH32 0x30644E72E131A029B85045B68181585D97816A916871CA8D3C208C16D87CFD47 DUP1 PUSH2 0x1D17 JUMPI PUSH2 0x1D16 PUSH2 0x211D JUMP JUMPDEST JUMPDEST DUP4 DUP6 MULMOD PUSH1 0x2 MULMOD DUP6 EQ ISZERO JUMPDEST ISZERO PUSH2 0x1D58 JUMPI PUSH1 0x40 MLOAD PUSH32 0x7FCDD1F400000000000000000000000000000000000000000000000000000000 DUP2 MSTORE PUSH1 0x4 ADD PUSH1 0x40 MLOAD DUP1 SWAP2 SUB SWAP1 REVERT JUMPDEST POP SWAP4 POP SWAP4 SWAP2 POP POP JUMP JUMPDEST PUSH1 0x0 DUP1 PUSH1 0x40 MLOAD PUSH1 0x20 DUP2 MSTORE PUSH1 0x20 DUP1 DUP3 ADD MSTORE PUSH1 0x20 PUSH1 0x40 DUP3 ADD MSTORE DUP5 PUSH1 0x60 DUP3 ADD MSTORE DUP4 PUSH1 0x80 DUP3 ADD MSTORE PUSH32 0x30644E72E131A029B85045B68181585D97816A916871CA8D3C208C16D87CFD47 PUSH1 0xA0 DUP3 ADD MSTORE PUSH1 0x20 DUP2 PUSH1 0xC0 DUP4 PUSH1 0x5 GAS STATICCALL SWAP2 POP DUP1 MLOAD SWAP3 POP POP DUP1 PUSH2 0x1DF2 JUMPI PUSH1 0x40 MLOAD PUSH32 0x7FCDD1F400000000000000000000000000000000000000000000000000000000 DUP2 MSTORE PUSH1 0x4 ADD PUSH1 0x40 MLOAD DUP1 SWAP2 SUB SWAP1 REVERT JUMPDEST POP SWAP3 SWAP2 POP POP JUMP JUMPDEST PUSH1 0x0 PUSH2 0x1E25 DUP3 PUSH32 0x30644E72E131A029B85045B68181585D97816A916871CA8D3C208C16D87CFD45 PUSH2 0x1D61 JUMP JUMPDEST SWAP1 POP PUSH1 0x1 PUSH32 0x30644E72E131A029B85045B68181585D97816A916871CA8D3C208C16D87CFD47 DUP1 PUSH2 0x1E58 JUMPI PUSH2 0x1E57 PUSH2 0x211D JUMP JUMPDEST JUMPDEST DUP3 DUP5 MULMOD EQ PUSH2 0x1E92 JUMPI PUSH1 0x40 MLOAD PUSH32 0x7FCDD1F400000000000000000000000000000000000000000000000000000000 DUP2 MSTORE PUSH1 0x4 ADD PUSH1 0x40 MLOAD DUP1 SWAP2 SUB SWAP1 REVERT JUMPDEST SWAP2 SWAP1 POP JUMP JUMPDEST PUSH1 0x40 MLOAD DUP1 PUSH1 0x80 ADD PUSH1 0x40 MSTORE DUP1 PUSH1 0x4 SWAP1 PUSH1 0x20 DUP3 MUL DUP1 CALLDATASIZE DUP4 CALLDATACOPY DUP1 DUP3 ADD SWAP2 POP POP SWAP1 POP POP SWAP1 JUMP JUMPDEST PUSH1 0x40 MLOAD DUP1 PUSH2 0x300 ADD PUSH1 0x40 MSTORE DUP1 PUSH1 0x18 SWAP1 PUSH1 0x20 DUP3 MUL DUP1 CALLDATASIZE DUP4 CALLDATACOPY DUP1 DUP3 ADD SWAP2 POP POP SWAP1 POP POP SWAP1 JUMP JUMPDEST PUSH1 0x40 MLOAD DUP1 PUSH1 0x20 ADD PUSH1 0x40 MSTORE DUP1 PUSH1 0x1 SWAP1 PUSH1 0x20 DUP3 MUL DUP1 CALLDATASIZE DUP4 CALLDATACOPY DUP1 DUP3 ADD SWAP2 POP POP SWAP1 POP POP SWAP1 JUMP JUMPDEST PUSH1 0x0 DUP1 REVERT JUMPDEST PUSH1 0x0 DUP1 REVERT JUMPDEST PUSH1 0x0 DUP2 SWAP1 POP DUP3 PUSH1 0x20 PUSH1 0x8 MUL DUP3 ADD GT ISZERO PUSH2 0x1F24 JUMPI PUSH2 0x1F23 PUSH2 0x1F03 JUMP JUMPDEST JUMPDEST SWAP3 SWAP2 POP POP JUMP JUMPDEST PUSH1 0x0 PUSH2 0x100 DUP3 DUP5 SUB SLT ISZERO PUSH2 0x1F41 JUMPI PUSH2 0x1F40 PUSH2 0x1EFE JUMP JUMPDEST JUMPDEST PUSH1 0x0 PUSH2 0x1F4F DUP5 DUP3 DUP6 ADD PUSH2 0x1F08 JUMP JUMPDEST SWAP2 POP POP SWAP3 SWAP2 POP POP JUMP JUMPDEST PUSH1 0x0 PUSH1 0x4 SWAP1 POP SWAP2 SWAP1 POP JUMP JUMPDEST PUSH1 0x0 DUP2 SWAP1 POP SWAP3 SWAP2 POP POP JUMP JUMPDEST PUSH1 0x0 DUP2 SWAP1 POP SWAP2 SWAP1 POP JUMP JUMPDEST PUSH1 0x0 DUP2 SWAP1 POP SWAP2 SWAP1 POP JUMP JUMPDEST PUSH2 0x1F8B DUP2 PUSH2 0x1F78 JUMP JUMPDEST DUP3 MSTORE POP POP JUMP JUMPDEST PUSH1 0x0 PUSH2 0x1F9D DUP4 DUP4 PUSH2 0x1F82 JUMP JUMPDEST PUSH1 0x20 DUP4 ADD SWAP1 POP SWAP3 SWAP2 POP POP JUMP JUMPDEST PUSH1 0x0 PUSH1 0x20 DUP3 ADD SWAP1 POP SWAP2 SWAP1 POP JUMP JUMPDEST PUSH2 0x1FBF DUP2 PUSH2 0x1F58 JUMP JUMPDEST PUSH2 0x1FC9 DUP2 DUP5 PUSH2 0x1F63 JUMP JUMPDEST SWAP3 POP PUSH2 0x1FD4 DUP3 PUSH2 0x1F6E JUMP JUMPDEST DUP1 PUSH1 0x0 JUMPDEST DUP4 DUP2 LT ISZERO PUSH2 0x2005 JUMPI DUP2 MLOAD PUSH2 0x1FEC DUP8 DUP3 PUSH2 0x1F91 JUMP JUMPDEST SWAP7 POP PUSH2 0x1FF7 DUP4 PUSH2 0x1FA9 JUMP JUMPDEST SWAP3 POP POP PUSH1 0x1 DUP2 ADD SWAP1 POP PUSH2 0x1FD8 JUMP JUMPDEST POP POP POP POP POP POP JUMP JUMPDEST PUSH1 0x0 PUSH1 0x80 DUP3 ADD SWAP1 POP PUSH2 0x2022 PUSH1 0x0 DUP4 ADD DUP5 PUSH2 0x1FB6 JUMP JUMPDEST SWAP3 SWAP2 POP POP JUMP JUMPDEST PUSH1 0x0 DUP2 SWAP1 POP DUP3 PUSH1 0x20 PUSH1 0x2 MUL DUP3 ADD GT ISZERO PUSH2 0x2044 JUMPI PUSH2 0x2043 PUSH2 0x1F03 JUMP JUMPDEST JUMPDEST SWAP3 SWAP2 POP POP JUMP JUMPDEST PUSH1 0x0 DUP1 PUSH2 0x140 DUP4 DUP6 SUB SLT ISZERO PUSH2 0x2062 JUMPI PUSH2 0x2061 PUSH2 0x1EFE JUMP JUMPDEST JUMPDEST PUSH1 0x0 PUSH2 0x2070 DUP6 DUP3 DUP7 ADD PUSH2 0x1F08 JUMP JUMPDEST SWAP3 POP POP PUSH2 0x100 PUSH2 0x2082 DUP6 DUP3 DUP7 ADD PUSH2 0x2028 JUMP JUMPDEST SWAP2 POP POP SWAP3 POP SWAP3 SWAP1 POP JUMP JUMPDEST PUSH1 0x0 DUP2 SWAP1 POP DUP3 PUSH1 0x20 PUSH1 0x4 MUL DUP3 ADD GT ISZERO PUSH2 0x20A8 JUMPI PUSH2 0x20A7 PUSH2 0x1F03 JUMP JUMPDEST JUMPDEST SWAP3 SWAP2 POP POP JUMP JUMPDEST PUSH1 0x0 DUP1 PUSH1 0xC0 DUP4 DUP6 SUB SLT ISZERO PUSH2 0x20C5 JUMPI PUSH2 0x20C4 PUSH2 0x1EFE JUMP JUMPDEST JUMPDEST PUSH1 0x0 PUSH2 0x20D3 DUP6 DUP3 DUP7 ADD PUSH2 0x208C JUMP JUMPDEST SWAP3 POP POP PUSH1 0x80 PUSH2 0x20E4 DUP6 DUP3 DUP7 ADD PUSH2 0x2028 JUMP JUMPDEST SWAP2 POP POP SWAP3 POP SWAP3 SWAP1 POP JUMP JUMPDEST PUSH32 0x4E487B7100000000000000000000000000000000000000000000000000000000 PUSH1 0x0 MSTORE PUSH1 0x32 PUSH1 0x4 MSTORE PUSH1 0x24 PUSH1 0x0 REVERT JUMPDEST PUSH32 0x4E487B7100000000000000000000000000000000000000000000000000000000 PUSH1 0x0 MSTORE PUSH1 0x12 PUSH1 0x4 MSTORE PUSH1 0x24 PUSH1 0x0 REVERT JUMPDEST PUSH32 0x4E487B7100000000000000000000000000000000000000000000000000000000 PUSH1 0x0 MSTORE PUSH1 0x11 PUSH1 0x4 MSTORE PUSH1 0x24 PUSH1 0x0 REVERT JUMPDEST PUSH1 0x0 PUSH2 0x2186 DUP3 PUSH2 0x1F78 JUMP JUMPDEST SWAP2 POP PUSH2 0x2191 DUP4 PUSH2 0x1F78 JUMP JUMPDEST SWAP3 POP DUP3 DUP3 SUB SWAP1 POP DUP2 DUP2 GT ISZERO PUSH2 0x21A9 JUMPI PUSH2 0x21A8 PUSH2 0x214C JUMP JUMPDEST JUMPDEST SWAP3 SWAP2 POP POP JUMP INVALID LOG2 PUSH5 0x6970667358 0x22 SLT KECCAK256 PREVRANDAO JUMPDEST TLOAD EXTCODESIZE 0xE7 SGT ADDMOD BLOBHASH 0xEC CODECOPY JUMP PUSH16 0x7A520A8EA377685491993B8D9F9E0728 0xA9 SWAP10 0xE0 0xEB PUSH5 0x736F6C6343 STOP ADDMOD SHR STOP CALLER "},"methodIdentifiers":{"compressProof(uint256[8])":"44f63692","verifyCompressedProof(uint256[4],uint256[2])":"f11817b2","verifyProof(uint256[8],uint256[2])":"5fe24f23"}}}}}