{"contracts/AuditVerifier_d13.sol":{"AuditVerifier_d13":{"abi":[{"inputs":[],"name":"ProofInvalid","type":"error"},{"inputs":[],"name":"PublicInputNotInField","type":"error"},{"inputs":[{"internalType":"uint256[8]","name":"proof","type":"uint256[8]"}],"name":"compressProof","outputs":[{"internalType":"uint256[4]","name":"compressed","type":"uint256[4]"}],"stateMutability":"view","type":"function"},{"inputs":[{"internalType":"uint256[4]","name":"compressedProof","type":"uint256[4]"},{"internalType":"uint256[3]","name":"input","type":"uint256[3]"}],"name":"verifyCompressedProof","outputs":[],"stateMutability":"view","type":"function"},{"inputs":[{"internalType":"uint256[8]","name":"proof","type":"uint256[8]"},{"internalType":"uint256[3]","name":"input","type":"uint256[3]"}],"name":"verifyProof","outputs":[],"stateMutability":"view","type":"function"}],"evm":{"bytecode":{"linkReferences":{},"object":"6080604052348015600f57600080fd5b5061227c8061001f6000396000f3fe608060405234801561001057600080fd5b50600436106100415760003560e01c806344f636921461004657806365c032591461007657806398c13db914610092575b600080fd5b610060600480360381019061005b9190611fc1565b6100ae565b60405161006d91906120a4565b60405180910390f35b610090600480360381019061008b91906120e1565b61020f565b005b6100ac60048036038101906100a79190612145565b6104ab565b005b6100b6611f2e565b6100f0826000600881106100cd576100cc612185565b5b6020020135836001600881106100e6576100e5612185565b5b6020020135610a6f565b8160006004811061010457610103612185565b5b6020020181815250506101798260036008811061012457610123612185565b5b60200201358360026008811061013d5761013c612185565b5b60200201358460056008811061015657610155612185565b5b60200201358560046008811061016f5761016e612185565b5b6020020135610c23565b8260026004811061018d5761018c612185565b5b60200201836001600481106101a5576101a4612185565b5b60200201828152508281525050506101ed826006600881106101ca576101c9612185565b5b6020020135836007600881106101e3576101e2612185565b5b6020020135610a6f565b8160036004811061020157610200612185565b5b602002018181525050919050565b60008061021b836111fa565b9150915060006040516101008682377f071d616671c7dd4bd3a4a12b68ea103c14e886a0614ec9a961a54dd4b8fe0e756101008201527f2453036f0b2ef5529601f044fc8643fc47525a9287c97a5aa14ceddd50bf7bf46101208201527f02f051f0d7cbf15cce1315319b6a471a9106b785c7298ac2dd768280334f3ea76101408201527f272a6a953ccc2cb89dae37c14fe6a6ad43c6f5d985caa0c6e93d0715ad76b3c06101608201527f21f96380bf6b1b48f07e428398c62e4401313a588af1f5cf2b038922d485d84e6101808201527f21cb117e47185389312cc1ef86f6c1c4f679b2f2eca40b7abe01bb5d5ab2ab116101a08201527f231762c7f43f50d8deb4028183bc086bdffd71b3f4a2825a2bcf1f23435969066101c08201527e393f1382303eb7deb9f2b4bbbe201c04af8d861c003f1d13fb149666efb7be6101e08201527f22b1a2aed6ba26bfe7cead1326164c07a7d64872f6ace476ea9d958ad408dbda6102008201527f02c286ef107d4e4e5e32c5b4640c116ded04ab86795f050354db0ade4b0fa41b61022082015283610240820152826102608201527f13f68334ab2e6aaf37d6141c2912914d8dc296dce0919b7f328510dc8fd6ab286102808201527f0c53cca9cadd54477a6f41903be127644effea4b8992cf3c87acfd41478c52aa6102a08201527f0ce02f8db72198e12d1e695925644d6fc974bc42d39f4dfcf6fea7180effe7cd6102c08201527f286d1c40ca840ffe74675f36e3c4fc6395745d92ecf45afc87eac12c98ffcca76102e08201526020816103008360085afa915080518216915050806104a4576040517f7fcdd1f400000000000000000000000000000000000000000000000000000000815260040160405180910390fd5b5050505050565b6104b3611f50565b6000806104d7856000600481106104cd576104cc612185565b5b6020020135611468565b9150915060008060008061051b896002600481106104f8576104f7612185565b5b60200201358a60016004811061051157610510612185565b5b60200201356115a1565b93509350935093506000806105478b60036004811061053d5761053c612185565b5b6020020135611468565b915091506000806105578c6111fa565b91509150898b6000601881106105705761056f612185565b5b602002018181525050888b60016018811061058e5761058d612185565b5b602002018181525050868b6002601881106105ac576105ab612185565b5b602002018181525050878b6003601881106105ca576105c9612185565b5b602002018181525050848b6004601881106105e8576105e7612185565b5b602002018181525050858b60056018811061060657610605612185565b5b602002018181525050838b60066018811061062457610623612185565b5b602002018181525050828b60076018811061064257610641612185565b5b6020020181815250507f071d616671c7dd4bd3a4a12b68ea103c14e886a0614ec9a961a54dd4b8fe0e758b6008601881106106805761067f612185565b5b6020020181815250507f2453036f0b2ef5529601f044fc8643fc47525a9287c97a5aa14ceddd50bf7bf48b6009601881106106be576106bd612185565b5b6020020181815250507f02f051f0d7cbf15cce1315319b6a471a9106b785c7298ac2dd768280334f3ea78b600a601881106106fc576106fb612185565b5b6020020181815250507f272a6a953ccc2cb89dae37c14fe6a6ad43c6f5d985caa0c6e93d0715ad76b3c08b600b6018811061073a57610739612185565b5b6020020181815250507f21f96380bf6b1b48f07e428398c62e4401313a588af1f5cf2b038922d485d84e8b600c6018811061077857610777612185565b5b6020020181815250507f21cb117e47185389312cc1ef86f6c1c4f679b2f2eca40b7abe01bb5d5ab2ab118b600d601881106107b6576107b5612185565b5b6020020181815250507f231762c7f43f50d8deb4028183bc086bdffd71b3f4a2825a2bcf1f23435969068b600e601881106107f4576107f3612185565b5b6020020181815250507e393f1382303eb7deb9f2b4bbbe201c04af8d861c003f1d13fb149666efb7be8b600f6018811061083157610830612185565b5b6020020181815250507f22b1a2aed6ba26bfe7cead1326164c07a7d64872f6ace476ea9d958ad408dbda8b60106018811061086f5761086e612185565b5b6020020181815250507f02c286ef107d4e4e5e32c5b4640c116ded04ab86795f050354db0ade4b0fa41b8b6011601881106108ad576108ac612185565b5b602002018181525050818b6012601881106108cb576108ca612185565b5b602002018181525050808b6013601881106108e9576108e8612185565b5b6020020181815250507f13f68334ab2e6aaf37d6141c2912914d8dc296dce0919b7f328510dc8fd6ab288b60146018811061092757610926612185565b5b6020020181815250507f0c53cca9cadd54477a6f41903be127644effea4b8992cf3c87acfd41478c52aa8b60156018811061096557610964612185565b5b6020020181815250507f0ce02f8db72198e12d1e695925644d6fc974bc42d39f4dfcf6fea7180effe7cd8b6016601881106109a3576109a2612185565b5b6020020181815250507f286d1c40ca840ffe74675f36e3c4fc6395745d92ecf45afc87eac12c98ffcca78b6017601881106109e1576109e0612185565b5b60200201818152505060006109f4611f73565b6020816103008f60085afa9150811580610a275750600181600060018110610a1f57610a1e612185565b5b602002015114155b15610a5e576040517f7fcdd1f400000000000000000000000000000000000000000000000000000000815260040160405180910390fd5b505050505050505050505050505050565b60007f30644e72e131a029b85045b68181585d97816a916871ca8d3c208c16d87cfd4783101580610ac057507f30644e72e131a029b85045b68181585d97816a916871ca8d3c208c16d87cfd478210155b15610af7576040517f7fcdd1f400000000000000000000000000000000000000000000000000000000815260040160405180910390fd5b600083148015610b075750600082145b15610b155760009050610c1d565b6000610bb47f30644e72e131a029b85045b68181585d97816a916871ca8d3c208c16d87cfd4780610b4957610b486121b4565b5b60037f30644e72e131a029b85045b68181585d97816a916871ca8d3c208c16d87cfd4780610b7a57610b796121b4565b5b877f30644e72e131a029b85045b68181585d97816a916871ca8d3c208c16d87cfd4780610baa57610ba96121b4565b5b898a090908611987565b9050808303610bcd576000600185901b17915050610c1d565b610bd681611a24565b8303610beb5760018085901b17915050610c1d565b6040517f7fcdd1f400000000000000000000000000000000000000000000000000000000815260040160405180910390fd5b92915050565b6000807f30644e72e131a029b85045b68181585d97816a916871ca8d3c208c16d87cfd4786101580610c7557507f30644e72e131a029b85045b68181585d97816a916871ca8d3c208c16d87cfd478510155b80610ca057507f30644e72e131a029b85045b68181585d97816a916871ca8d3c208c16d87cfd478410155b80610ccb57507f30644e72e131a029b85045b68181585d97816a916871ca8d3c208c16d87cfd478310155b15610d02576040517f7fcdd1f400000000000000000000000000000000000000000000000000000000815260040160405180910390fd5b60008385878917171703610d1c57600080915091506111f1565b60008060007f30644e72e131a029b85045b68181585d97816a916871ca8d3c208c16d87cfd4780610d5057610d4f6121b4565b5b60037f30644e72e131a029b85045b68181585d97816a916871ca8d3c208c16d87cfd47610d7d9190612212565b7f30644e72e131a029b85045b68181585d97816a916871ca8d3c208c16d87cfd4780610dac57610dab6121b4565b5b8a8c0909905060007f30644e72e131a029b85045b68181585d97816a916871ca8d3c208c16d87cfd4780610de357610de26121b4565b5b8a7f30644e72e131a029b85045b68181585d97816a916871ca8d3c208c16d87cfd4780610e1357610e126121b4565b5b8c8d0909905060007f30644e72e131a029b85045b68181585d97816a916871ca8d3c208c16d87cfd4780610e4a57610e496121b4565b5b8a7f30644e72e131a029b85045b68181585d97816a916871ca8d3c208c16d87cfd4780610e7a57610e796121b4565b5b8c8d090990507f30644e72e131a029b85045b68181585d97816a916871ca8d3c208c16d87cfd4780610eaf57610eae6121b4565b5b7f30644e72e131a029b85045b68181585d97816a916871ca8d3c208c16d87cfd4780610ede57610edd6121b4565b5b7f30644e72e131a029b85045b68181585d97816a916871ca8d3c208c16d87cfd4780610f0d57610f0c6121b4565b5b8c860984087f2b149d40ceb8aaae81be18991be06ac3b5b4c5e559dbefa33267e6dc24a138e5089450610ff27f30644e72e131a029b85045b68181585d97816a916871ca8d3c208c16d87cfd4780610f6857610f676121b4565b5b7f30644e72e131a029b85045b68181585d97816a916871ca8d3c208c16d87cfd4780610f9757610f966121b4565b5b7f30644e72e131a029b85045b68181585d97816a916871ca8d3c208c16d87cfd4780610fc657610fc56121b4565b5b8e870984087f2fcd3ac2a640a154eb23960892a85a68f031ca0c8344b23a577dcf1052b9e77508611a24565b93505050506000806110967f30644e72e131a029b85045b68181585d97816a916871ca8d3c208c16d87cfd478061102c5761102b6121b4565b5b7f30644e72e131a029b85045b68181585d97816a916871ca8d3c208c16d87cfd478061105b5761105a6121b4565b5b8586097f30644e72e131a029b85045b68181585d97816a916871ca8d3c208c16d87cfd478061108d5761108c6121b4565b5b87880908611987565b90506111237f30644e72e131a029b85045b68181585d97816a916871ca8d3c208c16d87cfd47806110ca576110c96121b4565b5b7f183227397098d014dc2822db40c0ac2ecbc0b548b438e5469e10460b6c3e7ea47f30644e72e131a029b85045b68181585d97816a916871ca8d3c208c16d87cfd478061111a576111196121b4565b5b84880809611a90565b15915050611132838383611afb565b8093508194505050828714801561114857508186145b156111725760008161115b57600061115e565b60025b60ff1660028b901b171794508793506111ed565b61117b83611a24565b87148015611190575061118d82611a24565b86145b156111ba576001816111a35760006111a6565b60025b60ff1660028b901b171794508793506111ec565b6040517f7fcdd1f400000000000000000000000000000000000000000000000000000000815260040160405180910390fd5b5b5050505b94509492505050565b6000806000600190506040516040810160007f08f1480c86ceda30f408083e3f518c99f05143d7ec0653f049f07084468a5b5383527f16239373418889ecb76b5b1b909efadaf5485aa536dfb2c64f93b76335f0aac360208401527f0e2c25dabb7b6bfc90114c1daaf7d2f7eceeccb50b2cb9296eef49fee6ef74d982527f01a176cd3dd2f07f86fa88e4189737fe716378353765b93b56e0ad8111366ee96020830152863590508060408301527f30644e72e131a029b85045b68181585d2833e84879b9709143e1f593f000000181108416935060408260608460075afa8416935060408360808560065afa841693507f129d1a5427e921a7d53e0138dc40abcb97e39bc36ab81e16715dafb71ac94b9482527f209eb4eb401515113e959b21f9f08e9e74f04fc56795dc29c82b27091075a3f86020830152602087013590508060408301527f30644e72e131a029b85045b68181585d2833e84879b9709143e1f593f000000181108416935060408260608460075afa8416935060408360808560065afa841693507f0d85318b95115f2d576a3dc8c15a572edd0e2e78679a05f0abb6364fd3889bc282527f20e621f0a40808ba3d5e7cf432329355c977f348d9d5d0afd9532445d4de68bb6020830152604087013590508060408301527f30644e72e131a029b85045b68181585d2833e84879b9709143e1f593f000000181108416935060408260608460075afa8416935060408360808560065afa84169350825195506020830151945050505080611462576040517fa54f8e2700000000000000000000000000000000000000000000000000000000815260040160405180910390fd5b50915091565b6000806000830361147f576000809150915061159c565b60006001808516149050600184901c92507f30644e72e131a029b85045b68181585d97816a916871ca8d3c208c16d87cfd4783106114e9576040517f7fcdd1f400000000000000000000000000000000000000000000000000000000815260040160405180910390fd5b6115867f30644e72e131a029b85045b68181585d97816a916871ca8d3c208c16d87cfd478061151b5761151a6121b4565b5b60037f30644e72e131a029b85045b68181585d97816a916871ca8d3c208c16d87cfd478061154c5761154b6121b4565b5b867f30644e72e131a029b85045b68181585d97816a916871ca8d3c208c16d87cfd478061157c5761157b6121b4565b5b8889090908611987565b9150801561159a5761159782611a24565b91505b505b915091565b6000806000806000861480156115b75750600085145b156115cf57600080600080935093509350935061197e565b6000600180881614905060006002808916149050600288901c95508694507f30644e72e131a029b85045b68181585d97816a916871ca8d3c208c16d87cfd478610158061163c57507f30644e72e131a029b85045b68181585d97816a916871ca8d3c208c16d87cfd478510155b15611673576040517f7fcdd1f400000000000000000000000000000000000000000000000000000000815260040160405180910390fd5b60007f30644e72e131a029b85045b68181585d97816a916871ca8d3c208c16d87cfd47806116a4576116a36121b4565b5b60037f30644e72e131a029b85045b68181585d97816a916871ca8d3c208c16d87cfd476116d19190612212565b7f30644e72e131a029b85045b68181585d97816a916871ca8d3c208c16d87cfd4780611700576116ff6121b4565b5b888a0909905060007f30644e72e131a029b85045b68181585d97816a916871ca8d3c208c16d87cfd4780611737576117366121b4565b5b887f30644e72e131a029b85045b68181585d97816a916871ca8d3c208c16d87cfd4780611767576117666121b4565b5b8a8b0909905060007f30644e72e131a029b85045b68181585d97816a916871ca8d3c208c16d87cfd478061179e5761179d6121b4565b5b887f30644e72e131a029b85045b68181585d97816a916871ca8d3c208c16d87cfd47806117ce576117cd6121b4565b5b8a8b090990507f30644e72e131a029b85045b68181585d97816a916871ca8d3c208c16d87cfd4780611803576118026121b4565b5b7f30644e72e131a029b85045b68181585d97816a916871ca8d3c208c16d87cfd4780611832576118316121b4565b5b7f30644e72e131a029b85045b68181585d97816a916871ca8d3c208c16d87cfd4780611861576118606121b4565b5b8a860984087f2b149d40ceb8aaae81be18991be06ac3b5b4c5e559dbefa33267e6dc24a138e50896506119467f30644e72e131a029b85045b68181585d97816a916871ca8d3c208c16d87cfd47806118bc576118bb6121b4565b5b7f30644e72e131a029b85045b68181585d97816a916871ca8d3c208c16d87cfd47806118eb576118ea6121b4565b5b7f30644e72e131a029b85045b68181585d97816a916871ca8d3c208c16d87cfd478061191a576119196121b4565b5b8c870984087f2fcd3ac2a640a154eb23960892a85a68f031ca0c8344b23a577dcf1052b9e77508611a24565b9550611953878786611afb565b809750819850505084156119785761196a87611a24565b965061197586611a24565b95505b50505050505b92959194509250565b60006119b3827f0c19139cb84c680a6e14116da060561765e05aa45a1c72a34f082305b61f3f52611df8565b9050817f30644e72e131a029b85045b68181585d97816a916871ca8d3c208c16d87cfd47806119e5576119e46121b4565b5b82830914611a1f576040517f7fcdd1f400000000000000000000000000000000000000000000000000000000815260040160405180910390fd5b919050565b60007f30644e72e131a029b85045b68181585d97816a916871ca8d3c208c16d87cfd47808381611a5757611a566121b4565b5b067f30644e72e131a029b85045b68181585d97816a916871ca8d3c208c16d87cfd470381611a8857611a876121b4565b5b069050919050565b600080611abd837f0c19139cb84c680a6e14116da060561765e05aa45a1c72a34f082305b61f3f52611df8565b9050827f30644e72e131a029b85045b68181585d97816a916871ca8d3c208c16d87cfd4780611aef57611aee6121b4565b5b82830914915050919050565b6000806000611b9c7f30644e72e131a029b85045b68181585d97816a916871ca8d3c208c16d87cfd4780611b3257611b316121b4565b5b7f30644e72e131a029b85045b68181585d97816a916871ca8d3c208c16d87cfd4780611b6157611b606121b4565b5b8788097f30644e72e131a029b85045b68181585d97816a916871ca8d3c208c16d87cfd4780611b9357611b926121b4565b5b898a0908611987565b90508315611bb057611bad81611a24565b90505b611c3b7f30644e72e131a029b85045b68181585d97816a916871ca8d3c208c16d87cfd4780611be257611be16121b4565b5b7f183227397098d014dc2822db40c0ac2ecbc0b548b438e5469e10460b6c3e7ea47f30644e72e131a029b85045b68181585d97816a916871ca8d3c208c16d87cfd4780611c3257611c316121b4565b5b848a0809611987565b92507f30644e72e131a029b85045b68181585d97816a916871ca8d3c208c16d87cfd4780611c6c57611c6b6121b4565b5b611ca77f30644e72e131a029b85045b68181585d97816a916871ca8d3c208c16d87cfd4780611c9e57611c9d6121b4565b5b60028609611e90565b860991507f30644e72e131a029b85045b68181585d97816a916871ca8d3c208c16d87cfd4780611cda57611cd96121b4565b5b611d147f30644e72e131a029b85045b68181585d97816a916871ca8d3c208c16d87cfd4780611d0c57611d0b6121b4565b5b848509611a24565b7f30644e72e131a029b85045b68181585d97816a916871ca8d3c208c16d87cfd4780611d4357611d426121b4565b5b8586090886141580611db857507f30644e72e131a029b85045b68181585d97816a916871ca8d3c208c16d87cfd4780611d7f57611d7e6121b4565b5b7f30644e72e131a029b85045b68181585d97816a916871ca8d3c208c16d87cfd4780611dae57611dad6121b4565b5b8385096002098514155b15611def576040517f7fcdd1f400000000000000000000000000000000000000000000000000000000815260040160405180910390fd5b50935093915050565b60008060405160208152602080820152602060408201528460608201528360808201527f30644e72e131a029b85045b68181585d97816a916871ca8d3c208c16d87cfd4760a082015260208160c08360055afa9150805192505080611e89576040517f7fcdd1f400000000000000000000000000000000000000000000000000000000815260040160405180910390fd5b5092915050565b6000611ebc827f30644e72e131a029b85045b68181585d97816a916871ca8d3c208c16d87cfd45611df8565b905060017f30644e72e131a029b85045b68181585d97816a916871ca8d3c208c16d87cfd4780611eef57611eee6121b4565b5b82840914611f29576040517f7fcdd1f400000000000000000000000000000000000000000000000000000000815260040160405180910390fd5b919050565b6040518060800160405280600490602082028036833780820191505090505090565b604051806103000160405280601890602082028036833780820191505090505090565b6040518060200160405280600190602082028036833780820191505090505090565b600080fd5b600080fd5b600081905082602060080282011115611fbb57611fba611f9a565b5b92915050565b60006101008284031215611fd857611fd7611f95565b5b6000611fe684828501611f9f565b91505092915050565b600060049050919050565b600081905092915050565b6000819050919050565b6000819050919050565b6120228161200f565b82525050565b60006120348383612019565b60208301905092915050565b6000602082019050919050565b61205681611fef565b6120608184611ffa565b925061206b82612005565b8060005b8381101561209c5781516120838782612028565b965061208e83612040565b92505060018101905061206f565b505050505050565b60006080820190506120b9600083018461204d565b92915050565b6000819050826020600302820111156120db576120da611f9a565b5b92915050565b60008061016083850312156120f9576120f8611f95565b5b600061210785828601611f9f565b925050610100612119858286016120bf565b9150509250929050565b60008190508260206004028201111561213f5761213e611f9a565b5b92915050565b60008060e0838503121561215c5761215b611f95565b5b600061216a85828601612123565b925050608061217b858286016120bf565b9150509250929050565b7f4e487b7100000000000000000000000000000000000000000000000000000000600052603260045260246000fd5b7f4e487b7100000000000000000000000000000000000000000000000000000000600052601260045260246000fd5b7f4e487b7100000000000000000000000000000000000000000000000000000000600052601160045260246000fd5b600061221d8261200f565b91506122288361200f565b92508282039050818111156122405761223f6121e3565b5b9291505056fea264697066735822122031cef3998dbc56f3af4ce5946631d74e6c543067a425b2050e00b132a2df597464736f6c634300081c0033","opcodes":"PUSH1 0x80 PUSH1 0x40 MSTORE CALLVALUE DUP1 ISZERO PUSH1 0xF JUMPI PUSH1 0x0 DUP1 REVERT JUMPDEST POP PUSH2 0x227C DUP1 PUSH2 0x1F PUSH1 0x0 CODECOPY PUSH1 0x0 RETURN INVALID PUSH1 0x80 PUSH1 0x40 MSTORE CALLVALUE DUP1 ISZERO PUSH2 0x10 JUMPI PUSH1 0x0 DUP1 REVERT JUMPDEST POP PUSH1 0x4 CALLDATASIZE LT PUSH2 0x41 JUMPI PUSH1 0x0 CALLDATALOAD PUSH1 0xE0 SHR DUP1 PUSH4 0x44F63692 EQ PUSH2 0x46 JUMPI DUP1 PUSH4 0x65C03259 EQ PUSH2 0x76 JUMPI DUP1 PUSH4 0x98C13DB9 EQ PUSH2 0x92 JUMPI JUMPDEST PUSH1 0x0 DUP1 REVERT JUMPDEST PUSH2 0x60 PUSH1 0x4 DUP1 CALLDATASIZE SUB DUP2 ADD SWAP1 PUSH2 0x5B SWAP2 SWAP1 PUSH2 0x1FC1 JUMP JUMPDEST PUSH2 0xAE JUMP JUMPDEST PUSH1 0x40 MLOAD PUSH2 0x6D SWAP2 SWAP1 PUSH2 0x20A4 JUMP JUMPDEST PUSH1 0x40 MLOAD DUP1 SWAP2 SUB SWAP1 RETURN JUMPDEST PUSH2 0x90 PUSH1 0x4 DUP1 CALLDATASIZE SUB DUP2 ADD SWAP1 PUSH2 0x8B SWAP2 SWAP1 PUSH2 0x20E1 JUMP JUMPDEST PUSH2 0x20F JUMP JUMPDEST STOP JUMPDEST PUSH2 0xAC PUSH1 0x4 DUP1 CALLDATASIZE SUB DUP2 ADD SWAP1 PUSH2 0xA7 SWAP2 SWAP1 PUSH2 0x2145 JUMP JUMPDEST PUSH2 0x4AB JUMP JUMPDEST STOP JUMPDEST PUSH2 0xB6 PUSH2 0x1F2E JUMP JUMPDEST PUSH2 0xF0 DUP3 PUSH1 0x0 PUSH1 0x8 DUP2 LT PUSH2 0xCD JUMPI PUSH2 0xCC PUSH2 0x2185 JUMP JUMPDEST JUMPDEST PUSH1 0x20 MUL ADD CALLDATALOAD DUP4 PUSH1 0x1 PUSH1 0x8 DUP2 LT PUSH2 0xE6 JUMPI PUSH2 0xE5 PUSH2 0x2185 JUMP JUMPDEST JUMPDEST PUSH1 0x20 MUL ADD CALLDATALOAD PUSH2 0xA6F JUMP JUMPDEST DUP2 PUSH1 0x0 PUSH1 0x4 DUP2 LT PUSH2 0x104 JUMPI PUSH2 0x103 PUSH2 0x2185 JUMP JUMPDEST JUMPDEST PUSH1 0x20 MUL ADD DUP2 DUP2 MSTORE POP POP PUSH2 0x179 DUP3 PUSH1 0x3 PUSH1 0x8 DUP2 LT PUSH2 0x124 JUMPI PUSH2 0x123 PUSH2 0x2185 JUMP JUMPDEST JUMPDEST PUSH1 0x20 MUL ADD CALLDATALOAD DUP4 PUSH1 0x2 PUSH1 0x8 DUP2 LT PUSH2 0x13D JUMPI PUSH2 0x13C PUSH2 0x2185 JUMP JUMPDEST JUMPDEST PUSH1 0x20 MUL ADD CALLDATALOAD DUP5 PUSH1 0x5 PUSH1 0x8 DUP2 LT PUSH2 0x156 JUMPI PUSH2 0x155 PUSH2 0x2185 JUMP JUMPDEST JUMPDEST PUSH1 0x20 MUL ADD CALLDATALOAD DUP6 PUSH1 0x4 PUSH1 0x8 DUP2 LT PUSH2 0x16F JUMPI PUSH2 0x16E PUSH2 0x2185 JUMP JUMPDEST JUMPDEST PUSH1 0x20 MUL ADD CALLDATALOAD PUSH2 0xC23 JUMP JUMPDEST DUP3 PUSH1 0x2 PUSH1 0x4 DUP2 LT PUSH2 0x18D JUMPI PUSH2 0x18C PUSH2 0x2185 JUMP JUMPDEST JUMPDEST PUSH1 0x20 MUL ADD DUP4 PUSH1 0x1 PUSH1 0x4 DUP2 LT PUSH2 0x1A5 JUMPI PUSH2 0x1A4 PUSH2 0x2185 JUMP JUMPDEST JUMPDEST PUSH1 0x20 MUL ADD DUP3 DUP2 MSTORE POP DUP3 DUP2 MSTORE POP POP POP PUSH2 0x1ED DUP3 PUSH1 0x6 PUSH1 0x8 DUP2 LT PUSH2 0x1CA JUMPI PUSH2 0x1C9 PUSH2 0x2185 JUMP JUMPDEST JUMPDEST PUSH1 0x20 MUL ADD CALLDATALOAD DUP4 PUSH1 0x7 PUSH1 0x8 DUP2 LT PUSH2 0x1E3 JUMPI PUSH2 0x1E2 PUSH2 0x2185 JUMP JUMPDEST JUMPDEST PUSH1 0x20 MUL ADD CALLDATALOAD PUSH2 0xA6F JUMP JUMPDEST DUP2 PUSH1 0x3 PUSH1 0x4 DUP2 LT PUSH2 0x201 JUMPI PUSH2 0x200 PUSH2 0x2185 JUMP JUMPDEST JUMPDEST PUSH1 0x20 MUL ADD DUP2 DUP2 MSTORE POP POP SWAP2 SWAP1 POP JUMP JUMPDEST PUSH1 0x0 DUP1 PUSH2 0x21B DUP4 PUSH2 0x11FA JUMP JUMPDEST SWAP2 POP SWAP2 POP PUSH1 0x0 PUSH1 0x40 MLOAD PUSH2 0x100 DUP7 DUP3 CALLDATACOPY PUSH32 0x71D616671C7DD4BD3A4A12B68EA103C14E886A0614EC9A961A54DD4B8FE0E75 PUSH2 0x100 DUP3 ADD MSTORE PUSH32 0x2453036F0B2EF5529601F044FC8643FC47525A9287C97A5AA14CEDDD50BF7BF4 PUSH2 0x120 DUP3 ADD MSTORE PUSH32 0x2F051F0D7CBF15CCE1315319B6A471A9106B785C7298AC2DD768280334F3EA7 PUSH2 0x140 DUP3 ADD MSTORE PUSH32 0x272A6A953CCC2CB89DAE37C14FE6A6AD43C6F5D985CAA0C6E93D0715AD76B3C0 PUSH2 0x160 DUP3 ADD MSTORE PUSH32 0x21F96380BF6B1B48F07E428398C62E4401313A588AF1F5CF2B038922D485D84E PUSH2 0x180 DUP3 ADD MSTORE PUSH32 0x21CB117E47185389312CC1EF86F6C1C4F679B2F2ECA40B7ABE01BB5D5AB2AB11 PUSH2 0x1A0 DUP3 ADD MSTORE PUSH32 0x231762C7F43F50D8DEB4028183BC086BDFFD71B3F4A2825A2BCF1F2343596906 PUSH2 0x1C0 DUP3 ADD MSTORE PUSH31 0x393F1382303EB7DEB9F2B4BBBE201C04AF8D861C003F1D13FB149666EFB7BE PUSH2 0x1E0 DUP3 ADD MSTORE PUSH32 0x22B1A2AED6BA26BFE7CEAD1326164C07A7D64872F6ACE476EA9D958AD408DBDA PUSH2 0x200 DUP3 ADD MSTORE PUSH32 0x2C286EF107D4E4E5E32C5B4640C116DED04AB86795F050354DB0ADE4B0FA41B PUSH2 0x220 DUP3 ADD MSTORE DUP4 PUSH2 0x240 DUP3 ADD MSTORE DUP3 PUSH2 0x260 DUP3 ADD MSTORE PUSH32 0x13F68334AB2E6AAF37D6141C2912914D8DC296DCE0919B7F328510DC8FD6AB28 PUSH2 0x280 DUP3 ADD MSTORE PUSH32 0xC53CCA9CADD54477A6F41903BE127644EFFEA4B8992CF3C87ACFD41478C52AA PUSH2 0x2A0 DUP3 ADD MSTORE PUSH32 0xCE02F8DB72198E12D1E695925644D6FC974BC42D39F4DFCF6FEA7180EFFE7CD PUSH2 0x2C0 DUP3 ADD MSTORE PUSH32 0x286D1C40CA840FFE74675F36E3C4FC6395745D92ECF45AFC87EAC12C98FFCCA7 PUSH2 0x2E0 DUP3 ADD MSTORE PUSH1 0x20 DUP2 PUSH2 0x300 DUP4 PUSH1 0x8 GAS STATICCALL SWAP2 POP DUP1 MLOAD DUP3 AND SWAP2 POP POP DUP1 PUSH2 0x4A4 JUMPI PUSH1 0x40 MLOAD PUSH32 0x7FCDD1F400000000000000000000000000000000000000000000000000000000 DUP2 MSTORE PUSH1 0x4 ADD PUSH1 0x40 MLOAD DUP1 SWAP2 SUB SWAP1 REVERT JUMPDEST POP POP POP POP POP JUMP JUMPDEST PUSH2 0x4B3 PUSH2 0x1F50 JUMP JUMPDEST PUSH1 0x0 DUP1 PUSH2 0x4D7 DUP6 PUSH1 0x0 PUSH1 0x4 DUP2 LT PUSH2 0x4CD JUMPI PUSH2 0x4CC PUSH2 0x2185 JUMP JUMPDEST JUMPDEST PUSH1 0x20 MUL ADD CALLDATALOAD PUSH2 0x1468 JUMP JUMPDEST SWAP2 POP SWAP2 POP PUSH1 0x0 DUP1 PUSH1 0x0 DUP1 PUSH2 0x51B DUP10 PUSH1 0x2 PUSH1 0x4 DUP2 LT PUSH2 0x4F8 JUMPI PUSH2 0x4F7 PUSH2 0x2185 JUMP JUMPDEST JUMPDEST PUSH1 0x20 MUL ADD CALLDATALOAD DUP11 PUSH1 0x1 PUSH1 0x4 DUP2 LT PUSH2 0x511 JUMPI PUSH2 0x510 PUSH2 0x2185 JUMP JUMPDEST JUMPDEST PUSH1 0x20 MUL ADD CALLDATALOAD PUSH2 0x15A1 JUMP JUMPDEST SWAP4 POP SWAP4 POP SWAP4 POP SWAP4 POP PUSH1 0x0 DUP1 PUSH2 0x547 DUP12 PUSH1 0x3 PUSH1 0x4 DUP2 LT PUSH2 0x53D JUMPI PUSH2 0x53C PUSH2 0x2185 JUMP JUMPDEST JUMPDEST PUSH1 0x20 MUL ADD CALLDATALOAD PUSH2 0x1468 JUMP JUMPDEST SWAP2 POP SWAP2 POP PUSH1 0x0 DUP1 PUSH2 0x557 DUP13 PUSH2 0x11FA JUMP JUMPDEST SWAP2 POP SWAP2 POP DUP10 DUP12 PUSH1 0x0 PUSH1 0x18 DUP2 LT PUSH2 0x570 JUMPI PUSH2 0x56F PUSH2 0x2185 JUMP JUMPDEST JUMPDEST PUSH1 0x20 MUL ADD DUP2 DUP2 MSTORE POP POP DUP9 DUP12 PUSH1 0x1 PUSH1 0x18 DUP2 LT PUSH2 0x58E JUMPI PUSH2 0x58D PUSH2 0x2185 JUMP JUMPDEST JUMPDEST PUSH1 0x20 MUL ADD DUP2 DUP2 MSTORE POP POP DUP7 DUP12 PUSH1 0x2 PUSH1 0x18 DUP2 LT PUSH2 0x5AC JUMPI PUSH2 0x5AB PUSH2 0x2185 JUMP JUMPDEST JUMPDEST PUSH1 0x20 MUL ADD DUP2 DUP2 MSTORE POP POP DUP8 DUP12 PUSH1 0x3 PUSH1 0x18 DUP2 LT PUSH2 0x5CA JUMPI PUSH2 0x5C9 PUSH2 0x2185 JUMP JUMPDEST JUMPDEST PUSH1 0x20 MUL ADD DUP2 DUP2 MSTORE POP POP DUP5 DUP12 PUSH1 0x4 PUSH1 0x18 DUP2 LT PUSH2 0x5E8 JUMPI PUSH2 0x5E7 PUSH2 0x2185 JUMP JUMPDEST JUMPDEST PUSH1 0x20 MUL ADD DUP2 DUP2 MSTORE POP POP DUP6 DUP12 PUSH1 0x5 PUSH1 0x18 DUP2 LT PUSH2 0x606 JUMPI PUSH2 0x605 PUSH2 0x2185 JUMP JUMPDEST JUMPDEST PUSH1 0x20 MUL ADD DUP2 DUP2 MSTORE POP POP DUP4 DUP12 PUSH1 0x6 PUSH1 0x18 DUP2 LT PUSH2 0x624 JUMPI PUSH2 0x623 PUSH2 0x2185 JUMP JUMPDEST JUMPDEST PUSH1 0x20 MUL ADD DUP2 DUP2 MSTORE POP POP DUP3 DUP12 PUSH1 0x7 PUSH1 0x18 DUP2 LT PUSH2 0x642 JUMPI PUSH2 0x641 PUSH2 0x2185 JUMP JUMPDEST JUMPDEST PUSH1 0x20 MUL ADD DUP2 DUP2 MSTORE POP POP PUSH32 0x71D616671C7DD4BD3A4A12B68EA103C14E886A0614EC9A961A54DD4B8FE0E75 DUP12 PUSH1 0x8 PUSH1 0x18 DUP2 LT PUSH2 0x680 JUMPI PUSH2 0x67F PUSH2 0x2185 JUMP JUMPDEST JUMPDEST PUSH1 0x20 MUL ADD DUP2 DUP2 MSTORE POP POP PUSH32 0x2453036F0B2EF5529601F044FC8643FC47525A9287C97A5AA14CEDDD50BF7BF4 DUP12 PUSH1 0x9 PUSH1 0x18 DUP2 LT PUSH2 0x6BE JUMPI PUSH2 0x6BD PUSH2 0x2185 JUMP JUMPDEST JUMPDEST PUSH1 0x20 MUL ADD DUP2 DUP2 MSTORE POP POP PUSH32 0x2F051F0D7CBF15CCE1315319B6A471A9106B785C7298AC2DD768280334F3EA7 DUP12 PUSH1 0xA PUSH1 0x18 DUP2 LT PUSH2 0x6FC JUMPI PUSH2 0x6FB PUSH2 0x2185 JUMP JUMPDEST JUMPDEST PUSH1 0x20 MUL ADD DUP2 DUP2 MSTORE POP POP PUSH32 0x272A6A953CCC2CB89DAE37C14FE6A6AD43C6F5D985CAA0C6E93D0715AD76B3C0 DUP12 PUSH1 0xB PUSH1 0x18 DUP2 LT PUSH2 0x73A JUMPI PUSH2 0x739 PUSH2 0x2185 JUMP JUMPDEST JUMPDEST PUSH1 0x20 MUL ADD DUP2 DUP2 MSTORE POP POP PUSH32 0x21F96380BF6B1B48F07E428398C62E4401313A588AF1F5CF2B038922D485D84E DUP12 PUSH1 0xC PUSH1 0x18 DUP2 LT PUSH2 0x778 JUMPI PUSH2 0x777 PUSH2 0x2185 JUMP JUMPDEST JUMPDEST PUSH1 0x20 MUL ADD DUP2 DUP2 MSTORE POP POP PUSH32 0x21CB117E47185389312CC1EF86F6C1C4F679B2F2ECA40B7ABE01BB5D5AB2AB11 DUP12 PUSH1 0xD PUSH1 0x18 DUP2 LT PUSH2 0x7B6 JUMPI PUSH2 0x7B5 PUSH2 0x2185 JUMP JUMPDEST JUMPDEST PUSH1 0x20 MUL ADD DUP2 DUP2 MSTORE POP POP PUSH32 0x231762C7F43F50D8DEB4028183BC086BDFFD71B3F4A2825A2BCF1F2343596906 DUP12 PUSH1 0xE PUSH1 0x18 DUP2 LT PUSH2 0x7F4 JUMPI PUSH2 0x7F3 PUSH2 0x2185 JUMP JUMPDEST JUMPDEST PUSH1 0x20 MUL ADD DUP2 DUP2 MSTORE POP POP PUSH31 0x393F1382303EB7DEB9F2B4BBBE201C04AF8D861C003F1D13FB149666EFB7BE DUP12 PUSH1 0xF PUSH1 0x18 DUP2 LT PUSH2 0x831 JUMPI PUSH2 0x830 PUSH2 0x2185 JUMP JUMPDEST JUMPDEST PUSH1 0x20 MUL ADD DUP2 DUP2 MSTORE POP POP PUSH32 0x22B1A2AED6BA26BFE7CEAD1326164C07A7D64872F6ACE476EA9D958AD408DBDA DUP12 PUSH1 0x10 PUSH1 0x18 DUP2 LT PUSH2 0x86F JUMPI PUSH2 0x86E PUSH2 0x2185 JUMP JUMPDEST JUMPDEST PUSH1 0x20 MUL ADD DUP2 DUP2 MSTORE POP POP PUSH32 0x2C286EF107D4E4E5E32C5B4640C116DED04AB86795F050354DB0ADE4B0FA41B DUP12 PUSH1 0x11 PUSH1 0x18 DUP2 LT PUSH2 0x8AD JUMPI PUSH2 0x8AC PUSH2 0x2185 JUMP JUMPDEST JUMPDEST PUSH1 0x20 MUL ADD DUP2 DUP2 MSTORE POP POP DUP2 DUP12 PUSH1 0x12 PUSH1 0x18 DUP2 LT PUSH2 0x8CB JUMPI PUSH2 0x8CA PUSH2 0x2185 JUMP JUMPDEST JUMPDEST PUSH1 0x20 MUL ADD DUP2 DUP2 MSTORE POP POP DUP1 DUP12 PUSH1 0x13 PUSH1 0x18 DUP2 LT PUSH2 0x8E9 JUMPI PUSH2 0x8E8 PUSH2 0x2185 JUMP JUMPDEST JUMPDEST PUSH1 0x20 MUL ADD DUP2 DUP2 MSTORE POP POP PUSH32 0x13F68334AB2E6AAF37D6141C2912914D8DC296DCE0919B7F328510DC8FD6AB28 DUP12 PUSH1 0x14 PUSH1 0x18 DUP2 LT PUSH2 0x927 JUMPI PUSH2 0x926 PUSH2 0x2185 JUMP JUMPDEST JUMPDEST PUSH1 0x20 MUL ADD DUP2 DUP2 MSTORE POP POP PUSH32 0xC53CCA9CADD54477A6F41903BE127644EFFEA4B8992CF3C87ACFD41478C52AA DUP12 PUSH1 0x15 PUSH1 0x18 DUP2 LT PUSH2 0x965 JUMPI PUSH2 0x964 PUSH2 0x2185 JUMP JUMPDEST JUMPDEST PUSH1 0x20 MUL ADD DUP2 DUP2 MSTORE POP POP PUSH32 0xCE02F8DB72198E12D1E695925644D6FC974BC42D39F4DFCF6FEA7180EFFE7CD DUP12 PUSH1 0x16 PUSH1 0x18 DUP2 LT PUSH2 0x9A3 JUMPI PUSH2 0x9A2 PUSH2 0x2185 JUMP JUMPDEST JUMPDEST PUSH1 0x20 MUL ADD DUP2 DUP2 MSTORE POP POP PUSH32 0x286D1C40CA840FFE74675F36E3C4FC6395745D92ECF45AFC87EAC12C98FFCCA7 DUP12 PUSH1 0x17 PUSH1 0x18 DUP2 LT PUSH2 0x9E1 JUMPI PUSH2 0x9E0 PUSH2 0x2185 JUMP JUMPDEST JUMPDEST PUSH1 0x20 MUL ADD DUP2 DUP2 MSTORE POP POP PUSH1 0x0 PUSH2 0x9F4 PUSH2 0x1F73 JUMP JUMPDEST PUSH1 0x20 DUP2 PUSH2 0x300 DUP16 PUSH1 0x8 GAS STATICCALL SWAP2 POP DUP2 ISZERO DUP1 PUSH2 0xA27 JUMPI POP PUSH1 0x1 DUP2 PUSH1 0x0 PUSH1 0x1 DUP2 LT PUSH2 0xA1F JUMPI PUSH2 0xA1E PUSH2 0x2185 JUMP JUMPDEST JUMPDEST PUSH1 0x20 MUL ADD MLOAD EQ ISZERO JUMPDEST ISZERO PUSH2 0xA5E JUMPI PUSH1 0x40 MLOAD PUSH32 0x7FCDD1F400000000000000000000000000000000000000000000000000000000 DUP2 MSTORE PUSH1 0x4 ADD PUSH1 0x40 MLOAD DUP1 SWAP2 SUB SWAP1 REVERT JUMPDEST POP POP POP POP POP POP POP POP POP POP POP POP POP POP POP JUMP JUMPDEST PUSH1 0x0 PUSH32 0x30644E72E131A029B85045B68181585D97816A916871CA8D3C208C16D87CFD47 DUP4 LT ISZERO DUP1 PUSH2 0xAC0 JUMPI POP PUSH32 0x30644E72E131A029B85045B68181585D97816A916871CA8D3C208C16D87CFD47 DUP3 LT ISZERO JUMPDEST ISZERO PUSH2 0xAF7 JUMPI PUSH1 0x40 MLOAD PUSH32 0x7FCDD1F400000000000000000000000000000000000000000000000000000000 DUP2 MSTORE PUSH1 0x4 ADD PUSH1 0x40 MLOAD DUP1 SWAP2 SUB SWAP1 REVERT JUMPDEST PUSH1 0x0 DUP4 EQ DUP1 ISZERO PUSH2 0xB07 JUMPI POP PUSH1 0x0 DUP3 EQ JUMPDEST ISZERO PUSH2 0xB15 JUMPI PUSH1 0x0 SWAP1 POP PUSH2 0xC1D JUMP JUMPDEST PUSH1 0x0 PUSH2 0xBB4 PUSH32 0x30644E72E131A029B85045B68181585D97816A916871CA8D3C208C16D87CFD47 DUP1 PUSH2 0xB49 JUMPI PUSH2 0xB48 PUSH2 0x21B4 JUMP JUMPDEST JUMPDEST PUSH1 0x3 PUSH32 0x30644E72E131A029B85045B68181585D97816A916871CA8D3C208C16D87CFD47 DUP1 PUSH2 0xB7A JUMPI PUSH2 0xB79 PUSH2 0x21B4 JUMP JUMPDEST JUMPDEST DUP8 PUSH32 0x30644E72E131A029B85045B68181585D97816A916871CA8D3C208C16D87CFD47 DUP1 PUSH2 0xBAA JUMPI PUSH2 0xBA9 PUSH2 0x21B4 JUMP JUMPDEST JUMPDEST DUP10 DUP11 MULMOD MULMOD ADDMOD PUSH2 0x1987 JUMP JUMPDEST SWAP1 POP DUP1 DUP4 SUB PUSH2 0xBCD JUMPI PUSH1 0x0 PUSH1 0x1 DUP6 SWAP1 SHL OR SWAP2 POP POP PUSH2 0xC1D JUMP JUMPDEST PUSH2 0xBD6 DUP2 PUSH2 0x1A24 JUMP JUMPDEST DUP4 SUB PUSH2 0xBEB JUMPI PUSH1 0x1 DUP1 DUP6 SWAP1 SHL OR SWAP2 POP POP PUSH2 0xC1D JUMP JUMPDEST PUSH1 0x40 MLOAD PUSH32 0x7FCDD1F400000000000000000000000000000000000000000000000000000000 DUP2 MSTORE PUSH1 0x4 ADD PUSH1 0x40 MLOAD DUP1 SWAP2 SUB SWAP1 REVERT JUMPDEST SWAP3 SWAP2 POP POP JUMP JUMPDEST PUSH1 0x0 DUP1 PUSH32 0x30644E72E131A029B85045B68181585D97816A916871CA8D3C208C16D87CFD47 DUP7 LT ISZERO DUP1 PUSH2 0xC75 JUMPI POP PUSH32 0x30644E72E131A029B85045B68181585D97816A916871CA8D3C208C16D87CFD47 DUP6 LT ISZERO JUMPDEST DUP1 PUSH2 0xCA0 JUMPI POP PUSH32 0x30644E72E131A029B85045B68181585D97816A916871CA8D3C208C16D87CFD47 DUP5 LT ISZERO JUMPDEST DUP1 PUSH2 0xCCB JUMPI POP PUSH32 0x30644E72E131A029B85045B68181585D97816A916871CA8D3C208C16D87CFD47 DUP4 LT ISZERO JUMPDEST ISZERO PUSH2 0xD02 JUMPI PUSH1 0x40 MLOAD PUSH32 0x7FCDD1F400000000000000000000000000000000000000000000000000000000 DUP2 MSTORE PUSH1 0x4 ADD PUSH1 0x40 MLOAD DUP1 SWAP2 SUB SWAP1 REVERT JUMPDEST PUSH1 0x0 DUP4 DUP6 DUP8 DUP10 OR OR OR SUB PUSH2 0xD1C JUMPI PUSH1 0x0 DUP1 SWAP2 POP SWAP2 POP PUSH2 0x11F1 JUMP JUMPDEST PUSH1 0x0 DUP1 PUSH1 0x0 PUSH32 0x30644E72E131A029B85045B68181585D97816A916871CA8D3C208C16D87CFD47 DUP1 PUSH2 0xD50 JUMPI PUSH2 0xD4F PUSH2 0x21B4 JUMP JUMPDEST JUMPDEST PUSH1 0x3 PUSH32 0x30644E72E131A029B85045B68181585D97816A916871CA8D3C208C16D87CFD47 PUSH2 0xD7D SWAP2 SWAP1 PUSH2 0x2212 JUMP JUMPDEST PUSH32 0x30644E72E131A029B85045B68181585D97816A916871CA8D3C208C16D87CFD47 DUP1 PUSH2 0xDAC JUMPI PUSH2 0xDAB PUSH2 0x21B4 JUMP JUMPDEST JUMPDEST DUP11 DUP13 MULMOD MULMOD SWAP1 POP PUSH1 0x0 PUSH32 0x30644E72E131A029B85045B68181585D97816A916871CA8D3C208C16D87CFD47 DUP1 PUSH2 0xDE3 JUMPI PUSH2 0xDE2 PUSH2 0x21B4 JUMP JUMPDEST JUMPDEST DUP11 PUSH32 0x30644E72E131A029B85045B68181585D97816A916871CA8D3C208C16D87CFD47 DUP1 PUSH2 0xE13 JUMPI PUSH2 0xE12 PUSH2 0x21B4 JUMP JUMPDEST JUMPDEST DUP13 DUP14 MULMOD MULMOD SWAP1 POP PUSH1 0x0 PUSH32 0x30644E72E131A029B85045B68181585D97816A916871CA8D3C208C16D87CFD47 DUP1 PUSH2 0xE4A JUMPI PUSH2 0xE49 PUSH2 0x21B4 JUMP JUMPDEST JUMPDEST DUP11 PUSH32 0x30644E72E131A029B85045B68181585D97816A916871CA8D3C208C16D87CFD47 DUP1 PUSH2 0xE7A JUMPI PUSH2 0xE79 PUSH2 0x21B4 JUMP JUMPDEST JUMPDEST DUP13 DUP14 MULMOD MULMOD SWAP1 POP PUSH32 0x30644E72E131A029B85045B68181585D97816A916871CA8D3C208C16D87CFD47 DUP1 PUSH2 0xEAF JUMPI PUSH2 0xEAE PUSH2 0x21B4 JUMP JUMPDEST JUMPDEST PUSH32 0x30644E72E131A029B85045B68181585D97816A916871CA8D3C208C16D87CFD47 DUP1 PUSH2 0xEDE JUMPI PUSH2 0xEDD PUSH2 0x21B4 JUMP JUMPDEST JUMPDEST PUSH32 0x30644E72E131A029B85045B68181585D97816A916871CA8D3C208C16D87CFD47 DUP1 PUSH2 0xF0D JUMPI PUSH2 0xF0C PUSH2 0x21B4 JUMP JUMPDEST JUMPDEST DUP13 DUP7 MULMOD DUP5 ADDMOD PUSH32 0x2B149D40CEB8AAAE81BE18991BE06AC3B5B4C5E559DBEFA33267E6DC24A138E5 ADDMOD SWAP5 POP PUSH2 0xFF2 PUSH32 0x30644E72E131A029B85045B68181585D97816A916871CA8D3C208C16D87CFD47 DUP1 PUSH2 0xF68 JUMPI PUSH2 0xF67 PUSH2 0x21B4 JUMP JUMPDEST JUMPDEST PUSH32 0x30644E72E131A029B85045B68181585D97816A916871CA8D3C208C16D87CFD47 DUP1 PUSH2 0xF97 JUMPI PUSH2 0xF96 PUSH2 0x21B4 JUMP JUMPDEST JUMPDEST PUSH32 0x30644E72E131A029B85045B68181585D97816A916871CA8D3C208C16D87CFD47 DUP1 PUSH2 0xFC6 JUMPI PUSH2 0xFC5 PUSH2 0x21B4 JUMP JUMPDEST JUMPDEST DUP15 DUP8 MULMOD DUP5 ADDMOD PUSH32 0x2FCD3AC2A640A154EB23960892A85A68F031CA0C8344B23A577DCF1052B9E775 ADDMOD PUSH2 0x1A24 JUMP JUMPDEST SWAP4 POP POP POP POP PUSH1 0x0 DUP1 PUSH2 0x1096 PUSH32 0x30644E72E131A029B85045B68181585D97816A916871CA8D3C208C16D87CFD47 DUP1 PUSH2 0x102C JUMPI PUSH2 0x102B PUSH2 0x21B4 JUMP JUMPDEST JUMPDEST PUSH32 0x30644E72E131A029B85045B68181585D97816A916871CA8D3C208C16D87CFD47 DUP1 PUSH2 0x105B JUMPI PUSH2 0x105A PUSH2 0x21B4 JUMP JUMPDEST JUMPDEST DUP6 DUP7 MULMOD PUSH32 0x30644E72E131A029B85045B68181585D97816A916871CA8D3C208C16D87CFD47 DUP1 PUSH2 0x108D JUMPI PUSH2 0x108C PUSH2 0x21B4 JUMP JUMPDEST JUMPDEST DUP8 DUP9 MULMOD ADDMOD PUSH2 0x1987 JUMP JUMPDEST SWAP1 POP PUSH2 0x1123 PUSH32 0x30644E72E131A029B85045B68181585D97816A916871CA8D3C208C16D87CFD47 DUP1 PUSH2 0x10CA JUMPI PUSH2 0x10C9 PUSH2 0x21B4 JUMP JUMPDEST JUMPDEST PUSH32 0x183227397098D014DC2822DB40C0AC2ECBC0B548B438E5469E10460B6C3E7EA4 PUSH32 0x30644E72E131A029B85045B68181585D97816A916871CA8D3C208C16D87CFD47 DUP1 PUSH2 0x111A JUMPI PUSH2 0x1119 PUSH2 0x21B4 JUMP JUMPDEST JUMPDEST DUP5 DUP9 ADDMOD MULMOD PUSH2 0x1A90 JUMP JUMPDEST ISZERO SWAP2 POP POP PUSH2 0x1132 DUP4 DUP4 DUP4 PUSH2 0x1AFB JUMP JUMPDEST DUP1 SWAP4 POP DUP2 SWAP5 POP POP POP DUP3 DUP8 EQ DUP1 ISZERO PUSH2 0x1148 JUMPI POP DUP2 DUP7 EQ JUMPDEST ISZERO PUSH2 0x1172 JUMPI PUSH1 0x0 DUP2 PUSH2 0x115B JUMPI PUSH1 0x0 PUSH2 0x115E JUMP JUMPDEST PUSH1 0x2 JUMPDEST PUSH1 0xFF AND PUSH1 0x2 DUP12 SWAP1 SHL OR OR SWAP5 POP DUP8 SWAP4 POP PUSH2 0x11ED JUMP JUMPDEST PUSH2 0x117B DUP4 PUSH2 0x1A24 JUMP JUMPDEST DUP8 EQ DUP1 ISZERO PUSH2 0x1190 JUMPI POP PUSH2 0x118D DUP3 PUSH2 0x1A24 JUMP JUMPDEST DUP7 EQ JUMPDEST ISZERO PUSH2 0x11BA JUMPI PUSH1 0x1 DUP2 PUSH2 0x11A3 JUMPI PUSH1 0x0 PUSH2 0x11A6 JUMP JUMPDEST PUSH1 0x2 JUMPDEST PUSH1 0xFF AND PUSH1 0x2 DUP12 SWAP1 SHL OR OR SWAP5 POP DUP8 SWAP4 POP PUSH2 0x11EC JUMP JUMPDEST PUSH1 0x40 MLOAD PUSH32 0x7FCDD1F400000000000000000000000000000000000000000000000000000000 DUP2 MSTORE PUSH1 0x4 ADD PUSH1 0x40 MLOAD DUP1 SWAP2 SUB SWAP1 REVERT JUMPDEST JUMPDEST POP POP POP JUMPDEST SWAP5 POP SWAP5 SWAP3 POP POP POP JUMP JUMPDEST PUSH1 0x0 DUP1 PUSH1 0x0 PUSH1 0x1 SWAP1 POP PUSH1 0x40 MLOAD PUSH1 0x40 DUP2 ADD PUSH1 0x0 PUSH32 0x8F1480C86CEDA30F408083E3F518C99F05143D7EC0653F049F07084468A5B53 DUP4 MSTORE PUSH32 0x16239373418889ECB76B5B1B909EFADAF5485AA536DFB2C64F93B76335F0AAC3 PUSH1 0x20 DUP5 ADD MSTORE PUSH32 0xE2C25DABB7B6BFC90114C1DAAF7D2F7ECEECCB50B2CB9296EEF49FEE6EF74D9 DUP3 MSTORE PUSH32 0x1A176CD3DD2F07F86FA88E4189737FE716378353765B93B56E0AD8111366EE9 PUSH1 0x20 DUP4 ADD MSTORE DUP7 CALLDATALOAD SWAP1 POP DUP1 PUSH1 0x40 DUP4 ADD MSTORE PUSH32 0x30644E72E131A029B85045B68181585D2833E84879B9709143E1F593F0000001 DUP2 LT DUP5 AND SWAP4 POP PUSH1 0x40 DUP3 PUSH1 0x60 DUP5 PUSH1 0x7 GAS STATICCALL DUP5 AND SWAP4 POP PUSH1 0x40 DUP4 PUSH1 0x80 DUP6 PUSH1 0x6 GAS STATICCALL DUP5 AND SWAP4 POP PUSH32 0x129D1A5427E921A7D53E0138DC40ABCB97E39BC36AB81E16715DAFB71AC94B94 DUP3 MSTORE PUSH32 0x209EB4EB401515113E959B21F9F08E9E74F04FC56795DC29C82B27091075A3F8 PUSH1 0x20 DUP4 ADD MSTORE PUSH1 0x20 DUP8 ADD CALLDATALOAD SWAP1 POP DUP1 PUSH1 0x40 DUP4 ADD MSTORE PUSH32 0x30644E72E131A029B85045B68181585D2833E84879B9709143E1F593F0000001 DUP2 LT DUP5 AND SWAP4 POP PUSH1 0x40 DUP3 PUSH1 0x60 DUP5 PUSH1 0x7 GAS STATICCALL DUP5 AND SWAP4 POP PUSH1 0x40 DUP4 PUSH1 0x80 DUP6 PUSH1 0x6 GAS STATICCALL DUP5 AND SWAP4 POP PUSH32 0xD85318B95115F2D576A3DC8C15A572EDD0E2E78679A05F0ABB6364FD3889BC2 DUP3 MSTORE PUSH32 0x20E621F0A40808BA3D5E7CF432329355C977F348D9D5D0AFD9532445D4DE68BB PUSH1 0x20 DUP4 ADD MSTORE PUSH1 0x40 DUP8 ADD CALLDATALOAD SWAP1 POP DUP1 PUSH1 0x40 DUP4 ADD MSTORE PUSH32 0x30644E72E131A029B85045B68181585D2833E84879B9709143E1F593F0000001 DUP2 LT DUP5 AND SWAP4 POP PUSH1 0x40 DUP3 PUSH1 0x60 DUP5 PUSH1 0x7 GAS STATICCALL DUP5 AND SWAP4 POP PUSH1 0x40 DUP4 PUSH1 0x80 DUP6 PUSH1 0x6 GAS STATICCALL DUP5 AND SWAP4 POP DUP3 MLOAD SWAP6 POP PUSH1 0x20 DUP4 ADD MLOAD SWAP5 POP POP POP POP DUP1 PUSH2 0x1462 JUMPI PUSH1 0x40 MLOAD PUSH32 0xA54F8E2700000000000000000000000000000000000000000000000000000000 DUP2 MSTORE PUSH1 0x4 ADD PUSH1 0x40 MLOAD DUP1 SWAP2 SUB SWAP1 REVERT JUMPDEST POP SWAP2 POP SWAP2 JUMP JUMPDEST PUSH1 0x0 DUP1 PUSH1 0x0 DUP4 SUB PUSH2 0x147F JUMPI PUSH1 0x0 DUP1 SWAP2 POP SWAP2 POP PUSH2 0x159C JUMP JUMPDEST PUSH1 0x0 PUSH1 0x1 DUP1 DUP6 AND EQ SWAP1 POP PUSH1 0x1 DUP5 SWAP1 SHR SWAP3 POP PUSH32 0x30644E72E131A029B85045B68181585D97816A916871CA8D3C208C16D87CFD47 DUP4 LT PUSH2 0x14E9 JUMPI PUSH1 0x40 MLOAD PUSH32 0x7FCDD1F400000000000000000000000000000000000000000000000000000000 DUP2 MSTORE PUSH1 0x4 ADD PUSH1 0x40 MLOAD DUP1 SWAP2 SUB SWAP1 REVERT JUMPDEST PUSH2 0x1586 PUSH32 0x30644E72E131A029B85045B68181585D97816A916871CA8D3C208C16D87CFD47 DUP1 PUSH2 0x151B JUMPI PUSH2 0x151A PUSH2 0x21B4 JUMP JUMPDEST JUMPDEST PUSH1 0x3 PUSH32 0x30644E72E131A029B85045B68181585D97816A916871CA8D3C208C16D87CFD47 DUP1 PUSH2 0x154C JUMPI PUSH2 0x154B PUSH2 0x21B4 JUMP JUMPDEST JUMPDEST DUP7 PUSH32 0x30644E72E131A029B85045B68181585D97816A916871CA8D3C208C16D87CFD47 DUP1 PUSH2 0x157C JUMPI PUSH2 0x157B PUSH2 0x21B4 JUMP JUMPDEST JUMPDEST DUP9 DUP10 MULMOD MULMOD ADDMOD PUSH2 0x1987 JUMP JUMPDEST SWAP2 POP DUP1 ISZERO PUSH2 0x159A JUMPI PUSH2 0x1597 DUP3 PUSH2 0x1A24 JUMP JUMPDEST SWAP2 POP JUMPDEST POP JUMPDEST SWAP2 POP SWAP2 JUMP JUMPDEST PUSH1 0x0 DUP1 PUSH1 0x0 DUP1 PUSH1 0x0 DUP7 EQ DUP1 ISZERO PUSH2 0x15B7 JUMPI POP PUSH1 0x0 DUP6 EQ JUMPDEST ISZERO PUSH2 0x15CF JUMPI PUSH1 0x0 DUP1 PUSH1 0x0 DUP1 SWAP4 POP SWAP4 POP SWAP4 POP SWAP4 POP PUSH2 0x197E JUMP JUMPDEST PUSH1 0x0 PUSH1 0x1 DUP1 DUP9 AND EQ SWAP1 POP PUSH1 0x0 PUSH1 0x2 DUP1 DUP10 AND EQ SWAP1 POP PUSH1 0x2 DUP9 SWAP1 SHR SWAP6 POP DUP7 SWAP5 POP PUSH32 0x30644E72E131A029B85045B68181585D97816A916871CA8D3C208C16D87CFD47 DUP7 LT ISZERO DUP1 PUSH2 0x163C JUMPI POP PUSH32 0x30644E72E131A029B85045B68181585D97816A916871CA8D3C208C16D87CFD47 DUP6 LT ISZERO JUMPDEST ISZERO PUSH2 0x1673 JUMPI PUSH1 0x40 MLOAD PUSH32 0x7FCDD1F400000000000000000000000000000000000000000000000000000000 DUP2 MSTORE PUSH1 0x4 ADD PUSH1 0x40 MLOAD DUP1 SWAP2 SUB SWAP1 REVERT JUMPDEST PUSH1 0x0 PUSH32 0x30644E72E131A029B85045B68181585D97816A916871CA8D3C208C16D87CFD47 DUP1 PUSH2 0x16A4 JUMPI PUSH2 0x16A3 PUSH2 0x21B4 JUMP JUMPDEST JUMPDEST PUSH1 0x3 PUSH32 0x30644E72E131A029B85045B68181585D97816A916871CA8D3C208C16D87CFD47 PUSH2 0x16D1 SWAP2 SWAP1 PUSH2 0x2212 JUMP JUMPDEST PUSH32 0x30644E72E131A029B85045B68181585D97816A916871CA8D3C208C16D87CFD47 DUP1 PUSH2 0x1700 JUMPI PUSH2 0x16FF PUSH2 0x21B4 JUMP JUMPDEST JUMPDEST DUP9 DUP11 MULMOD MULMOD SWAP1 POP PUSH1 0x0 PUSH32 0x30644E72E131A029B85045B68181585D97816A916871CA8D3C208C16D87CFD47 DUP1 PUSH2 0x1737 JUMPI PUSH2 0x1736 PUSH2 0x21B4 JUMP JUMPDEST JUMPDEST DUP9 PUSH32 0x30644E72E131A029B85045B68181585D97816A916871CA8D3C208C16D87CFD47 DUP1 PUSH2 0x1767 JUMPI PUSH2 0x1766 PUSH2 0x21B4 JUMP JUMPDEST JUMPDEST DUP11 DUP12 MULMOD MULMOD SWAP1 POP PUSH1 0x0 PUSH32 0x30644E72E131A029B85045B68181585D97816A916871CA8D3C208C16D87CFD47 DUP1 PUSH2 0x179E JUMPI PUSH2 0x179D PUSH2 0x21B4 JUMP JUMPDEST JUMPDEST DUP9 PUSH32 0x30644E72E131A029B85045B68181585D97816A916871CA8D3C208C16D87CFD47 DUP1 PUSH2 0x17CE JUMPI PUSH2 0x17CD PUSH2 0x21B4 JUMP JUMPDEST JUMPDEST DUP11 DUP12 MULMOD MULMOD SWAP1 POP PUSH32 0x30644E72E131A029B85045B68181585D97816A916871CA8D3C208C16D87CFD47 DUP1 PUSH2 0x1803 JUMPI PUSH2 0x1802 PUSH2 0x21B4 JUMP JUMPDEST JUMPDEST PUSH32 0x30644E72E131A029B85045B68181585D97816A916871CA8D3C208C16D87CFD47 DUP1 PUSH2 0x1832 JUMPI PUSH2 0x1831 PUSH2 0x21B4 JUMP JUMPDEST JUMPDEST PUSH32 0x30644E72E131A029B85045B68181585D97816A916871CA8D3C208C16D87CFD47 DUP1 PUSH2 0x1861 JUMPI PUSH2 0x1860 PUSH2 0x21B4 JUMP JUMPDEST JUMPDEST DUP11 DUP7 MULMOD DUP5 ADDMOD PUSH32 0x2B149D40CEB8AAAE81BE18991BE06AC3B5B4C5E559DBEFA33267E6DC24A138E5 ADDMOD SWAP7 POP PUSH2 0x1946 PUSH32 0x30644E72E131A029B85045B68181585D97816A916871CA8D3C208C16D87CFD47 DUP1 PUSH2 0x18BC JUMPI PUSH2 0x18BB PUSH2 0x21B4 JUMP JUMPDEST JUMPDEST PUSH32 0x30644E72E131A029B85045B68181585D97816A916871CA8D3C208C16D87CFD47 DUP1 PUSH2 0x18EB JUMPI PUSH2 0x18EA PUSH2 0x21B4 JUMP JUMPDEST JUMPDEST PUSH32 0x30644E72E131A029B85045B68181585D97816A916871CA8D3C208C16D87CFD47 DUP1 PUSH2 0x191A JUMPI PUSH2 0x1919 PUSH2 0x21B4 JUMP JUMPDEST JUMPDEST DUP13 DUP8 MULMOD DUP5 ADDMOD PUSH32 0x2FCD3AC2A640A154EB23960892A85A68F031CA0C8344B23A577DCF1052B9E775 ADDMOD PUSH2 0x1A24 JUMP JUMPDEST SWAP6 POP PUSH2 0x1953 DUP8 DUP8 DUP7 PUSH2 0x1AFB JUMP JUMPDEST DUP1 SWAP8 POP DUP2 SWAP9 POP POP POP DUP5 ISZERO PUSH2 0x1978 JUMPI PUSH2 0x196A DUP8 PUSH2 0x1A24 JUMP JUMPDEST SWAP7 POP PUSH2 0x1975 DUP7 PUSH2 0x1A24 JUMP JUMPDEST SWAP6 POP JUMPDEST POP POP POP POP POP JUMPDEST SWAP3 SWAP6 SWAP2 SWAP5 POP SWAP3 POP JUMP JUMPDEST PUSH1 0x0 PUSH2 0x19B3 DUP3 PUSH32 0xC19139CB84C680A6E14116DA060561765E05AA45A1C72A34F082305B61F3F52 PUSH2 0x1DF8 JUMP JUMPDEST SWAP1 POP DUP2 PUSH32 0x30644E72E131A029B85045B68181585D97816A916871CA8D3C208C16D87CFD47 DUP1 PUSH2 0x19E5 JUMPI PUSH2 0x19E4 PUSH2 0x21B4 JUMP JUMPDEST JUMPDEST DUP3 DUP4 MULMOD EQ PUSH2 0x1A1F JUMPI PUSH1 0x40 MLOAD PUSH32 0x7FCDD1F400000000000000000000000000000000000000000000000000000000 DUP2 MSTORE PUSH1 0x4 ADD PUSH1 0x40 MLOAD DUP1 SWAP2 SUB SWAP1 REVERT JUMPDEST SWAP2 SWAP1 POP JUMP JUMPDEST PUSH1 0x0 PUSH32 0x30644E72E131A029B85045B68181585D97816A916871CA8D3C208C16D87CFD47 DUP1 DUP4 DUP2 PUSH2 0x1A57 JUMPI PUSH2 0x1A56 PUSH2 0x21B4 JUMP JUMPDEST JUMPDEST MOD PUSH32 0x30644E72E131A029B85045B68181585D97816A916871CA8D3C208C16D87CFD47 SUB DUP2 PUSH2 0x1A88 JUMPI PUSH2 0x1A87 PUSH2 0x21B4 JUMP JUMPDEST JUMPDEST MOD SWAP1 POP SWAP2 SWAP1 POP JUMP JUMPDEST PUSH1 0x0 DUP1 PUSH2 0x1ABD DUP4 PUSH32 0xC19139CB84C680A6E14116DA060561765E05AA45A1C72A34F082305B61F3F52 PUSH2 0x1DF8 JUMP JUMPDEST SWAP1 POP DUP3 PUSH32 0x30644E72E131A029B85045B68181585D97816A916871CA8D3C208C16D87CFD47 DUP1 PUSH2 0x1AEF JUMPI PUSH2 0x1AEE PUSH2 0x21B4 JUMP JUMPDEST JUMPDEST DUP3 DUP4 MULMOD EQ SWAP2 POP POP SWAP2 SWAP1 POP JUMP JUMPDEST PUSH1 0x0 DUP1 PUSH1 0x0 PUSH2 0x1B9C PUSH32 0x30644E72E131A029B85045B68181585D97816A916871CA8D3C208C16D87CFD47 DUP1 PUSH2 0x1B32 JUMPI PUSH2 0x1B31 PUSH2 0x21B4 JUMP JUMPDEST JUMPDEST PUSH32 0x30644E72E131A029B85045B68181585D97816A916871CA8D3C208C16D87CFD47 DUP1 PUSH2 0x1B61 JUMPI PUSH2 0x1B60 PUSH2 0x21B4 JUMP JUMPDEST JUMPDEST DUP8 DUP9 MULMOD PUSH32 0x30644E72E131A029B85045B68181585D97816A916871CA8D3C208C16D87CFD47 DUP1 PUSH2 0x1B93 JUMPI PUSH2 0x1B92 PUSH2 0x21B4 JUMP JUMPDEST JUMPDEST DUP10 DUP11 MULMOD ADDMOD PUSH2 0x1987 JUMP JUMPDEST SWAP1 POP DUP4 ISZERO PUSH2 0x1BB0 JUMPI PUSH2 0x1BAD DUP2 PUSH2 0x1A24 JUMP JUMPDEST SWAP1 POP JUMPDEST PUSH2 0x1C3B PUSH32 0x30644E72E131A029B85045B68181585D97816A916871CA8D3C208C16D87CFD47 DUP1 PUSH2 0x1BE2 JUMPI PUSH2 0x1BE1 PUSH2 0x21B4 JUMP JUMPDEST JUMPDEST PUSH32 0x183227397098D014DC2822DB40C0AC2ECBC0B548B438E5469E10460B6C3E7EA4 PUSH32 0x30644E72E131A029B85045B68181585D97816A916871CA8D3C208C16D87CFD47 DUP1 PUSH2 0x1C32 JUMPI PUSH2 0x1C31 PUSH2 0x21B4 JUMP JUMPDEST JUMPDEST DUP5 DUP11 ADDMOD MULMOD PUSH2 0x1987 JUMP JUMPDEST SWAP3 POP PUSH32 0x30644E72E131A029B85045B68181585D97816A916871CA8D3C208C16D87CFD47 DUP1 PUSH2 0x1C6C JUMPI PUSH2 0x1C6B PUSH2 0x21B4 JUMP JUMPDEST JUMPDEST PUSH2 0x1CA7 PUSH32 0x30644E72E131A029B85045B68181585D97816A916871CA8D3C208C16D87CFD47 DUP1 PUSH2 0x1C9E JUMPI PUSH2 0x1C9D PUSH2 0x21B4 JUMP JUMPDEST JUMPDEST PUSH1 0x2 DUP7 MULMOD PUSH2 0x1E90 JUMP JUMPDEST DUP7 MULMOD SWAP2 POP PUSH32 0x30644E72E131A029B85045B68181585D97816A916871CA8D3C208C16D87CFD47 DUP1 PUSH2 0x1CDA JUMPI PUSH2 0x1CD9 PUSH2 0x21B4 JUMP JUMPDEST JUMPDEST PUSH2 0x1D14 PUSH32 0x30644E72E131A029B85045B68181585D97816A916871CA8D3C208C16D87CFD47 DUP1 PUSH2 0x1D0C JUMPI PUSH2 0x1D0B PUSH2 0x21B4 JUMP JUMPDEST JUMPDEST DUP5 DUP6 MULMOD PUSH2 0x1A24 JUMP JUMPDEST PUSH32 0x30644E72E131A029B85045B68181585D97816A916871CA8D3C208C16D87CFD47 DUP1 PUSH2 0x1D43 JUMPI PUSH2 0x1D42 PUSH2 0x21B4 JUMP JUMPDEST JUMPDEST DUP6 DUP7 MULMOD ADDMOD DUP7 EQ ISZERO DUP1 PUSH2 0x1DB8 JUMPI POP PUSH32 0x30644E72E131A029B85045B68181585D97816A916871CA8D3C208C16D87CFD47 DUP1 PUSH2 0x1D7F JUMPI PUSH2 0x1D7E PUSH2 0x21B4 JUMP JUMPDEST JUMPDEST PUSH32 0x30644E72E131A029B85045B68181585D97816A916871CA8D3C208C16D87CFD47 DUP1 PUSH2 0x1DAE JUMPI PUSH2 0x1DAD PUSH2 0x21B4 JUMP JUMPDEST JUMPDEST DUP4 DUP6 MULMOD PUSH1 0x2 MULMOD DUP6 EQ ISZERO JUMPDEST ISZERO PUSH2 0x1DEF JUMPI PUSH1 0x40 MLOAD PUSH32 0x7FCDD1F400000000000000000000000000000000000000000000000000000000 DUP2 MSTORE PUSH1 0x4 ADD PUSH1 0x40 MLOAD DUP1 SWAP2 SUB SWAP1 REVERT JUMPDEST POP SWAP4 POP SWAP4 SWAP2 POP POP JUMP JUMPDEST PUSH1 0x0 DUP1 PUSH1 0x40 MLOAD PUSH1 0x20 DUP2 MSTORE PUSH1 0x20 DUP1 DUP3 ADD MSTORE PUSH1 0x20 PUSH1 0x40 DUP3 ADD MSTORE DUP5 PUSH1 0x60 DUP3 ADD MSTORE DUP4 PUSH1 0x80 DUP3 ADD MSTORE PUSH32 0x30644E72E131A029B85045B68181585D97816A916871CA8D3C208C16D87CFD47 PUSH1 0xA0 DUP3 ADD MSTORE PUSH1 0x20 DUP2 PUSH1 0xC0 DUP4 PUSH1 0x5 GAS STATICCALL SWAP2 POP DUP1 MLOAD SWAP3 POP POP DUP1 PUSH2 0x1E89 JUMPI PUSH1 0x40 MLOAD PUSH32 0x7FCDD1F400000000000000000000000000000000000000000000000000000000 DUP2 MSTORE PUSH1 0x4 ADD PUSH1 0x40 MLOAD DUP1 SWAP2 SUB SWAP1 REVERT JUMPDEST POP SWAP3 SWAP2 POP POP JUMP JUMPDEST PUSH1 0x0 PUSH2 0x1EBC DUP3 PUSH32 0x30644E72E131A029B85045B68181585D97816A916871CA8D3C208C16D87CFD45 PUSH2 0x1DF8 JUMP JUMPDEST SWAP1 POP PUSH1 0x1 PUSH32 0x30644E72E131A029B85045B68181585D97816A916871CA8D3C208C16D87CFD47 DUP1 PUSH2 0x1EEF JUMPI PUSH2 0x1EEE PUSH2 0x21B4 JUMP JUMPDEST JUMPDEST DUP3 DUP5 MULMOD EQ PUSH2 0x1F29 JUMPI PUSH1 0x40 MLOAD PUSH32 0x7FCDD1F400000000000000000000000000000000000000000000000000000000 DUP2 MSTORE PUSH1 0x4 ADD PUSH1 0x40 MLOAD DUP1 SWAP2 SUB SWAP1 REVERT JUMPDEST SWAP2 SWAP1 POP JUMP JUMPDEST PUSH1 0x40 MLOAD DUP1 PUSH1 0x80 ADD PUSH1 0x40 MSTORE DUP1 PUSH1 0x4 SWAP1 PUSH1 0x20 DUP3 MUL DUP1 CALLDATASIZE DUP4 CALLDATACOPY DUP1 DUP3 ADD SWAP2 POP POP SWAP1 POP POP SWAP1 JUMP JUMPDEST PUSH1 0x40 MLOAD DUP1 PUSH2 0x300 ADD PUSH1 0x40 MSTORE DUP1 PUSH1 0x18 SWAP1 PUSH1 0x20 DUP3 MUL DUP1 CALLDATASIZE DUP4 CALLDATACOPY DUP1 DUP3 ADD SWAP2 POP POP SWAP1 POP POP SWAP1 JUMP JUMPDEST PUSH1 0x40 MLOAD DUP1 PUSH1 0x20 ADD PUSH1 0x40 MSTORE DUP1 PUSH1 0x1 SWAP1 PUSH1 0x20 DUP3 MUL DUP1 CALLDATASIZE DUP4 CALLDATACOPY DUP1 DUP3 ADD SWAP2 POP POP SWAP1 POP POP SWAP1 JUMP JUMPDEST PUSH1 0x0 DUP1 REVERT JUMPDEST PUSH1 0x0 DUP1 REVERT JUMPDEST PUSH1 0x0 DUP2 SWAP1 POP DUP3 PUSH1 0x20 PUSH1 0x8 MUL DUP3 ADD GT ISZERO PUSH2 0x1FBB JUMPI PUSH2 0x1FBA PUSH2 0x1F9A JUMP JUMPDEST JUMPDEST SWAP3 SWAP2 POP POP JUMP JUMPDEST PUSH1 0x0 PUSH2 0x100 DUP3 DUP5 SUB SLT ISZERO PUSH2 0x1FD8 JUMPI PUSH2 0x1FD7 PUSH2 0x1F95 JUMP JUMPDEST JUMPDEST PUSH1 0x0 PUSH2 0x1FE6 DUP5 DUP3 DUP6 ADD PUSH2 0x1F9F JUMP JUMPDEST SWAP2 POP POP SWAP3 SWAP2 POP POP JUMP JUMPDEST PUSH1 0x0 PUSH1 0x4 SWAP1 POP SWAP2 SWAP1 POP JUMP JUMPDEST PUSH1 0x0 DUP2 SWAP1 POP SWAP3 SWAP2 POP POP JUMP JUMPDEST PUSH1 0x0 DUP2 SWAP1 POP SWAP2 SWAP1 POP JUMP JUMPDEST PUSH1 0x0 DUP2 SWAP1 POP SWAP2 SWAP1 POP JUMP JUMPDEST PUSH2 0x2022 DUP2 PUSH2 0x200F JUMP JUMPDEST DUP3 MSTORE POP POP JUMP JUMPDEST PUSH1 0x0 PUSH2 0x2034 DUP4 DUP4 PUSH2 0x2019 JUMP JUMPDEST PUSH1 0x20 DUP4 ADD SWAP1 POP SWAP3 SWAP2 POP POP JUMP JUMPDEST PUSH1 0x0 PUSH1 0x20 DUP3 ADD SWAP1 POP SWAP2 SWAP1 POP JUMP JUMPDEST PUSH2 0x2056 DUP2 PUSH2 0x1FEF JUMP JUMPDEST PUSH2 0x2060 DUP2 DUP5 PUSH2 0x1FFA JUMP JUMPDEST SWAP3 POP PUSH2 0x206B DUP3 PUSH2 0x2005 JUMP JUMPDEST DUP1 PUSH1 0x0 JUMPDEST DUP4 DUP2 LT ISZERO PUSH2 0x209C JUMPI DUP2 MLOAD PUSH2 0x2083 DUP8 DUP3 PUSH2 0x2028 JUMP JUMPDEST SWAP7 POP PUSH2 0x208E DUP4 PUSH2 0x2040 JUMP JUMPDEST SWAP3 POP POP PUSH1 0x1 DUP2 ADD SWAP1 POP PUSH2 0x206F JUMP JUMPDEST POP POP POP POP POP POP JUMP JUMPDEST PUSH1 0x0 PUSH1 0x80 DUP3 ADD SWAP1 POP PUSH2 0x20B9 PUSH1 0x0 DUP4 ADD DUP5 PUSH2 0x204D JUMP JUMPDEST SWAP3 SWAP2 POP POP JUMP JUMPDEST PUSH1 0x0 DUP2 SWAP1 POP DUP3 PUSH1 0x20 PUSH1 0x3 MUL DUP3 ADD GT ISZERO PUSH2 0x20DB JUMPI PUSH2 0x20DA PUSH2 0x1F9A JUMP JUMPDEST JUMPDEST SWAP3 SWAP2 POP POP JUMP JUMPDEST PUSH1 0x0 DUP1 PUSH2 0x160 DUP4 DUP6 SUB SLT ISZERO PUSH2 0x20F9 JUMPI PUSH2 0x20F8 PUSH2 0x1F95 JUMP JUMPDEST JUMPDEST PUSH1 0x0 PUSH2 0x2107 DUP6 DUP3 DUP7 ADD PUSH2 0x1F9F JUMP JUMPDEST SWAP3 POP POP PUSH2 0x100 PUSH2 0x2119 DUP6 DUP3 DUP7 ADD PUSH2 0x20BF JUMP JUMPDEST SWAP2 POP POP SWAP3 POP SWAP3 SWAP1 POP JUMP JUMPDEST PUSH1 0x0 DUP2 SWAP1 POP DUP3 PUSH1 0x20 PUSH1 0x4 MUL DUP3 ADD GT ISZERO PUSH2 0x213F JUMPI PUSH2 0x213E PUSH2 0x1F9A JUMP JUMPDEST JUMPDEST SWAP3 SWAP2 POP POP JUMP JUMPDEST PUSH1 0x0 DUP1 PUSH1 0xE0 DUP4 DUP6 SUB SLT ISZERO PUSH2 0x215C JUMPI PUSH2 0x215B PUSH2 0x1F95 JUMP JUMPDEST JUMPDEST PUSH1 0x0 PUSH2 0x216A DUP6 DUP3 DUP7 ADD PUSH2 0x2123 JUMP JUMPDEST SWAP3 POP POP PUSH1 0x80 PUSH2 0x217B DUP6 DUP3 DUP7 ADD PUSH2 0x20BF JUMP JUMPDEST SWAP2 POP POP SWAP3 POP SWAP3 SWAP1 POP JUMP JUMPDEST PUSH32 0x4E487B7100000000000000000000000000000000000000000000000000000000 PUSH1 0x0 MSTORE PUSH1 0x32 PUSH1 0x4 MSTORE PUSH1 0x24 PUSH1 0x0 REVERT JUMPDEST PUSH32 0x4E487B7100000000000000000000000000000000000000000000000000000000 PUSH1 0x0 MSTORE PUSH1 0x12 PUSH1 0x4 MSTORE PUSH1 0x24 PUSH1 0x0 REVERT JUMPDEST PUSH32 0x4E487B7100000000000000000000000000000000000000000000000000000000 PUSH1 0x0 MSTORE PUSH1 0x11 PUSH1 0x4 MSTORE PUSH1 0x24 PUSH1 0x0 REVERT JUMPDEST PUSH1 0x0 PUSH2 0x221D DUP3 PUSH2 0x200F JUMP JUMPDEST SWAP2 POP PUSH2 0x2228 DUP4 PUSH2 0x200F JUMP JUMPDEST SWAP3 POP DUP3 DUP3 SUB SWAP1 POP DUP2 DUP2 GT ISZERO PUSH2 0x2240 JUMPI PUSH2 0x223F PUSH2 0x21E3 JUMP JUMPDEST JUMPDEST SWAP3 SWAP2 POP POP JUMP INVALID LOG2 PUSH5 0x6970667358 0x22 SLT KECCAK256 BALANCE 0xCE RETURN SWAP10 DUP14 0xBC JUMP RETURN 0xAF 0x4C 0xE5 SWAP5 PUSH7 0x31D74E6C543067 LOG4 0x25 0xB2 SDIV 0xE STOP 0xB1 ORIGIN LOG2 0xDF MSIZE PUSH21 0x64736F6C634300081C003300000000000000000000 "},"methodIdentifiers":{"compressProof(uint256[8])":"44f63692","verifyCompressedProof(uint256[4],uint256[3])":"98c13db9","verifyProof(uint256[8],uint256[3])":"65c03259"}}}}}