{
  "_format": "hh-sol-artifact-1",
  "contractName": "BatchUnlockVerifier256",
  "sourceName": "contracts/BatchUnlockVerifier_256.sol",
  "abi": [
    {
      "inputs": [],
      "name": "ProofInvalid",
      "type": "error"
    },
    {
      "inputs": [],
      "name": "PublicInputNotInField",
      "type": "error"
    },
    {
      "inputs": [
        {
          "internalType": "uint256[8]",
          "name": "proof",
          "type": "uint256[8]"
        }
      ],
      "name": "compressProof",
      "outputs": [
        {
          "internalType": "uint256[4]",
          "name": "compressed",
          "type": "uint256[4]"
        }
      ],
      "stateMutability": "view",
      "type": "function"
    },
    {
      "inputs": [
        {
          "internalType": "uint256[4]",
          "name": "compressedProof",
          "type": "uint256[4]"
        },
        {
          "internalType": "uint256[2]",
          "name": "input",
          "type": "uint256[2]"
        }
      ],
      "name": "verifyCompressedProof",
      "outputs": [],
      "stateMutability": "view",
      "type": "function"
    },
    {
      "inputs": [
        {
          "internalType": "uint256[8]",
          "name": "proof",
          "type": "uint256[8]"
        },
        {
          "internalType": "uint256[2]",
          "name": "input",
          "type": "uint256[2]"
        }
      ],
      "name": "verifyProof",
      "outputs": [],
      "stateMutability": "view",
      "type": "function"
    }
  ],
  "bytecode": "0x6080604052348015600f57600080fd5b506121e38061001f6000396000f3fe608060405234801561001057600080fd5b50600436106100415760003560e01c806344f63692146100465780635fe24f2314610076578063f11817b214610092575b600080fd5b610060600480360381019061005b9190611f28565b6100ae565b60405161006d919061200b565b60405180910390f35b610090600480360381019061008b9190612048565b61020f565b005b6100ac60048036038101906100a791906120ac565b6104ab565b005b6100b6611e95565b6100f0826000600881106100cd576100cc6120ec565b5b6020020135836001600881106100e6576100e56120ec565b5b6020020135610a6f565b81600060048110610104576101036120ec565b5b60200201818152505061017982600360088110610124576101236120ec565b5b60200201358360026008811061013d5761013c6120ec565b5b602002013584600560088110610156576101556120ec565b5b60200201358560046008811061016f5761016e6120ec565b5b6020020135610c23565b8260026004811061018d5761018c6120ec565b5b60200201836001600481106101a5576101a46120ec565b5b60200201828152508281525050506101ed826006600881106101ca576101c96120ec565b5b6020020135836007600881106101e3576101e26120ec565b5b6020020135610a6f565b81600360048110610201576102006120ec565b5b602002018181525050919050565b60008061021b836111fa565b9150915060006040516101008682377f1b2126b2e7fbff5a863315e504a8bd61c626a323b6ea71d126fa36e1b29419656101008201527f1b73601851468835f9cabbd15c69defc9a992b3560d653403e8032ba03c40b2c6101208201527f1700a31cc3ee166f7d38e541856f63b623ec99a46a13f88ed5387059f760c8a56101408201527e2b5a6bd552f9212ed7d4859a19317b40d83e350064ecb13cf58b0959ce19e16101608201527f15e3d937bceafc2543863f670ea522c0ec8b70ae1ecf33d52a572e064b2c5d4d6101808201527f1c4ee139285d10dabb8a54586f6a4a847c1cf0b08f877992786cc8aad2ed7fb56101a08201527f22798d7df1a31e33dac4b1c54f4a83bdcf0923c590a23580d2841da5416907d96101c08201527f2c8f22bd0a83a1536c0a8b2355d1f91d7659ec1b22a5cf7cb239d2c26a03a25c6101e08201527f2515c713d346edbd7a960db57729f9f96e1ce4e25ea7488b3c0ca24a8232cc206102008201527f2d48c9ee8c1a86b7be7f559f56ee0048b757a2240b2c36fc5d058bc430203dba61022082015283610240820152826102608201527f1537c9859ac8686f78a75860d212439213ed611f612e7f11e0635590e7c32c536102808201527f1dc511851b3120f6bf5ea42ce308c99cf344067025ec828009d54899ed559e0d6102a08201527f044705385d17c99b5349c256ad4abe0fafcff5be2ccf7b9455b46e04ff323d8e6102c08201527f0be13412bbcc41e209e041995837cd75d6711628d3e851a6f2bb9db7d3b3f9336102e08201526020816103008360085afa915080518216915050806104a4576040517f7fcdd1f400000000000000000000000000000000000000000000000000000000815260040160405180910390fd5b5050505050565b6104b3611eb7565b6000806104d7856000600481106104cd576104cc6120ec565b5b60200201356113cf565b9150915060008060008061051b896002600481106104f8576104f76120ec565b5b60200201358a600160048110610511576105106120ec565b5b6020020135611508565b93509350935093506000806105478b60036004811061053d5761053c6120ec565b5b60200201356113cf565b915091506000806105578c6111fa565b91509150898b6000601881106105705761056f6120ec565b5b602002018181525050888b60016018811061058e5761058d6120ec565b5b602002018181525050868b6002601881106105ac576105ab6120ec565b5b602002018181525050878b6003601881106105ca576105c96120ec565b5b602002018181525050848b6004601881106105e8576105e76120ec565b5b602002018181525050858b600560188110610606576106056120ec565b5b602002018181525050838b600660188110610624576106236120ec565b5b602002018181525050828b600760188110610642576106416120ec565b5b6020020181815250507f1b2126b2e7fbff5a863315e504a8bd61c626a323b6ea71d126fa36e1b29419658b6008601881106106805761067f6120ec565b5b6020020181815250507f1b73601851468835f9cabbd15c69defc9a992b3560d653403e8032ba03c40b2c8b6009601881106106be576106bd6120ec565b5b6020020181815250507f1700a31cc3ee166f7d38e541856f63b623ec99a46a13f88ed5387059f760c8a58b600a601881106106fc576106fb6120ec565b5b6020020181815250507e2b5a6bd552f9212ed7d4859a19317b40d83e350064ecb13cf58b0959ce19e18b600b60188110610739576107386120ec565b5b6020020181815250507f15e3d937bceafc2543863f670ea522c0ec8b70ae1ecf33d52a572e064b2c5d4d8b600c60188110610777576107766120ec565b5b6020020181815250507f1c4ee139285d10dabb8a54586f6a4a847c1cf0b08f877992786cc8aad2ed7fb58b600d601881106107b5576107b46120ec565b5b6020020181815250507f22798d7df1a31e33dac4b1c54f4a83bdcf0923c590a23580d2841da5416907d98b600e601881106107f3576107f26120ec565b5b6020020181815250507f2c8f22bd0a83a1536c0a8b2355d1f91d7659ec1b22a5cf7cb239d2c26a03a25c8b600f60188110610831576108306120ec565b5b6020020181815250507f2515c713d346edbd7a960db57729f9f96e1ce4e25ea7488b3c0ca24a8232cc208b60106018811061086f5761086e6120ec565b5b6020020181815250507f2d48c9ee8c1a86b7be7f559f56ee0048b757a2240b2c36fc5d058bc430203dba8b6011601881106108ad576108ac6120ec565b5b602002018181525050818b6012601881106108cb576108ca6120ec565b5b602002018181525050808b6013601881106108e9576108e86120ec565b5b6020020181815250507f1537c9859ac8686f78a75860d212439213ed611f612e7f11e0635590e7c32c538b601460188110610927576109266120ec565b5b6020020181815250507f1dc511851b3120f6bf5ea42ce308c99cf344067025ec828009d54899ed559e0d8b601560188110610965576109646120ec565b5b6020020181815250507f044705385d17c99b5349c256ad4abe0fafcff5be2ccf7b9455b46e04ff323d8e8b6016601881106109a3576109a26120ec565b5b6020020181815250507f0be13412bbcc41e209e041995837cd75d6711628d3e851a6f2bb9db7d3b3f9338b6017601881106109e1576109e06120ec565b5b60200201818152505060006109f4611eda565b6020816103008f60085afa9150811580610a275750600181600060018110610a1f57610a1e6120ec565b5b602002015114155b15610a5e576040517f7fcdd1f400000000000000000000000000000000000000000000000000000000815260040160405180910390fd5b505050505050505050505050505050565b60007f30644e72e131a029b85045b68181585d97816a916871ca8d3c208c16d87cfd4783101580610ac057507f30644e72e131a029b85045b68181585d97816a916871ca8d3c208c16d87cfd478210155b15610af7576040517f7fcdd1f400000000000000000000000000000000000000000000000000000000815260040160405180910390fd5b600083148015610b075750600082145b15610b155760009050610c1d565b6000610bb47f30644e72e131a029b85045b68181585d97816a916871ca8d3c208c16d87cfd4780610b4957610b4861211b565b5b60037f30644e72e131a029b85045b68181585d97816a916871ca8d3c208c16d87cfd4780610b7a57610b7961211b565b5b877f30644e72e131a029b85045b68181585d97816a916871ca8d3c208c16d87cfd4780610baa57610ba961211b565b5b898a0909086118ee565b9050808303610bcd576000600185901b17915050610c1d565b610bd68161198b565b8303610beb5760018085901b17915050610c1d565b6040517f7fcdd1f400000000000000000000000000000000000000000000000000000000815260040160405180910390fd5b92915050565b6000807f30644e72e131a029b85045b68181585d97816a916871ca8d3c208c16d87cfd4786101580610c7557507f30644e72e131a029b85045b68181585d97816a916871ca8d3c208c16d87cfd478510155b80610ca057507f30644e72e131a029b85045b68181585d97816a916871ca8d3c208c16d87cfd478410155b80610ccb57507f30644e72e131a029b85045b68181585d97816a916871ca8d3c208c16d87cfd478310155b15610d02576040517f7fcdd1f400000000000000000000000000000000000000000000000000000000815260040160405180910390fd5b60008385878917171703610d1c57600080915091506111f1565b60008060007f30644e72e131a029b85045b68181585d97816a916871ca8d3c208c16d87cfd4780610d5057610d4f61211b565b5b60037f30644e72e131a029b85045b68181585d97816a916871ca8d3c208c16d87cfd47610d7d9190612179565b7f30644e72e131a029b85045b68181585d97816a916871ca8d3c208c16d87cfd4780610dac57610dab61211b565b5b8a8c0909905060007f30644e72e131a029b85045b68181585d97816a916871ca8d3c208c16d87cfd4780610de357610de261211b565b5b8a7f30644e72e131a029b85045b68181585d97816a916871ca8d3c208c16d87cfd4780610e1357610e1261211b565b5b8c8d0909905060007f30644e72e131a029b85045b68181585d97816a916871ca8d3c208c16d87cfd4780610e4a57610e4961211b565b5b8a7f30644e72e131a029b85045b68181585d97816a916871ca8d3c208c16d87cfd4780610e7a57610e7961211b565b5b8c8d090990507f30644e72e131a029b85045b68181585d97816a916871ca8d3c208c16d87cfd4780610eaf57610eae61211b565b5b7f30644e72e131a029b85045b68181585d97816a916871ca8d3c208c16d87cfd4780610ede57610edd61211b565b5b7f30644e72e131a029b85045b68181585d97816a916871ca8d3c208c16d87cfd4780610f0d57610f0c61211b565b5b8c860984087f2b149d40ceb8aaae81be18991be06ac3b5b4c5e559dbefa33267e6dc24a138e5089450610ff27f30644e72e131a029b85045b68181585d97816a916871ca8d3c208c16d87cfd4780610f6857610f6761211b565b5b7f30644e72e131a029b85045b68181585d97816a916871ca8d3c208c16d87cfd4780610f9757610f9661211b565b5b7f30644e72e131a029b85045b68181585d97816a916871ca8d3c208c16d87cfd4780610fc657610fc561211b565b5b8e870984087f2fcd3ac2a640a154eb23960892a85a68f031ca0c8344b23a577dcf1052b9e7750861198b565b93505050506000806110967f30644e72e131a029b85045b68181585d97816a916871ca8d3c208c16d87cfd478061102c5761102b61211b565b5b7f30644e72e131a029b85045b68181585d97816a916871ca8d3c208c16d87cfd478061105b5761105a61211b565b5b8586097f30644e72e131a029b85045b68181585d97816a916871ca8d3c208c16d87cfd478061108d5761108c61211b565b5b878809086118ee565b90506111237f30644e72e131a029b85045b68181585d97816a916871ca8d3c208c16d87cfd47806110ca576110c961211b565b5b7f183227397098d014dc2822db40c0ac2ecbc0b548b438e5469e10460b6c3e7ea47f30644e72e131a029b85045b68181585d97816a916871ca8d3c208c16d87cfd478061111a5761111961211b565b5b848808096119f7565b15915050611132838383611a62565b8093508194505050828714801561114857508186145b156111725760008161115b57600061115e565b60025b60ff1660028b901b171794508793506111ed565b61117b8361198b565b87148015611190575061118d8261198b565b86145b156111ba576001816111a35760006111a6565b60025b60ff1660028b901b171794508793506111ec565b6040517f7fcdd1f400000000000000000000000000000000000000000000000000000000815260040160405180910390fd5b5b5050505b94509492505050565b6000806000600190506040516040810160007f202207f02f998c1eb2b2e425ddde9ec3a29eb985e1be8bb246aa654373b8388383527f1ea658b2c44a6a7ae393f66ff3d1aa33c25a5537c8ac072478158b100133074b60208401527f2bcb8f8d43fc5dcc04944659f158c49478502111db8031b1eeeae3b4b5e1e00a82527f01f792009305cd47760c0a777247b35a4dc2cb92ff63de950fc8611ca0bc0ab36020830152863590508060408301527f30644e72e131a029b85045b68181585d2833e84879b9709143e1f593f000000181108416935060408260608460075afa8416935060408360808560065afa841693507f1bda4a725b527ba5b4296d76593b67161edcef169283772a1b01da70e7ec048982527f0ae0245a429dab4dc2601f8a4736171eb7cb77072e8a7cbccc4aeef320fee82d6020830152602087013590508060408301527f30644e72e131a029b85045b68181585d2833e84879b9709143e1f593f000000181108416935060408260608460075afa8416935060408360808560065afa841693508251955060208301519450505050806113c9576040517fa54f8e2700000000000000000000000000000000000000000000000000000000815260040160405180910390fd5b50915091565b600080600083036113e65760008091509150611503565b60006001808516149050600184901c92507f30644e72e131a029b85045b68181585d97816a916871ca8d3c208c16d87cfd478310611450576040517f7fcdd1f400000000000000000000000000000000000000000000000000000000815260040160405180910390fd5b6114ed7f30644e72e131a029b85045b68181585d97816a916871ca8d3c208c16d87cfd47806114825761148161211b565b5b60037f30644e72e131a029b85045b68181585d97816a916871ca8d3c208c16d87cfd47806114b3576114b261211b565b5b867f30644e72e131a029b85045b68181585d97816a916871ca8d3c208c16d87cfd47806114e3576114e261211b565b5b88890909086118ee565b91508015611501576114fe8261198b565b91505b505b915091565b60008060008060008614801561151e5750600085145b156115365760008060008093509350935093506118e5565b6000600180881614905060006002808916149050600288901c95508694507f30644e72e131a029b85045b68181585d97816a916871ca8d3c208c16d87cfd47861015806115a357507f30644e72e131a029b85045b68181585d97816a916871ca8d3c208c16d87cfd478510155b156115da576040517f7fcdd1f400000000000000000000000000000000000000000000000000000000815260040160405180910390fd5b60007f30644e72e131a029b85045b68181585d97816a916871ca8d3c208c16d87cfd478061160b5761160a61211b565b5b60037f30644e72e131a029b85045b68181585d97816a916871ca8d3c208c16d87cfd476116389190612179565b7f30644e72e131a029b85045b68181585d97816a916871ca8d3c208c16d87cfd47806116675761166661211b565b5b888a0909905060007f30644e72e131a029b85045b68181585d97816a916871ca8d3c208c16d87cfd478061169e5761169d61211b565b5b887f30644e72e131a029b85045b68181585d97816a916871ca8d3c208c16d87cfd47806116ce576116cd61211b565b5b8a8b0909905060007f30644e72e131a029b85045b68181585d97816a916871ca8d3c208c16d87cfd47806117055761170461211b565b5b887f30644e72e131a029b85045b68181585d97816a916871ca8d3c208c16d87cfd47806117355761173461211b565b5b8a8b090990507f30644e72e131a029b85045b68181585d97816a916871ca8d3c208c16d87cfd478061176a5761176961211b565b5b7f30644e72e131a029b85045b68181585d97816a916871ca8d3c208c16d87cfd47806117995761179861211b565b5b7f30644e72e131a029b85045b68181585d97816a916871ca8d3c208c16d87cfd47806117c8576117c761211b565b5b8a860984087f2b149d40ceb8aaae81be18991be06ac3b5b4c5e559dbefa33267e6dc24a138e50896506118ad7f30644e72e131a029b85045b68181585d97816a916871ca8d3c208c16d87cfd47806118235761182261211b565b5b7f30644e72e131a029b85045b68181585d97816a916871ca8d3c208c16d87cfd47806118525761185161211b565b5b7f30644e72e131a029b85045b68181585d97816a916871ca8d3c208c16d87cfd47806118815761188061211b565b5b8c870984087f2fcd3ac2a640a154eb23960892a85a68f031ca0c8344b23a577dcf1052b9e7750861198b565b95506118ba878786611a62565b809750819850505084156118df576118d18761198b565b96506118dc8661198b565b95505b50505050505b92959194509250565b600061191a827f0c19139cb84c680a6e14116da060561765e05aa45a1c72a34f082305b61f3f52611d5f565b9050817f30644e72e131a029b85045b68181585d97816a916871ca8d3c208c16d87cfd478061194c5761194b61211b565b5b82830914611986576040517f7fcdd1f400000000000000000000000000000000000000000000000000000000815260040160405180910390fd5b919050565b60007f30644e72e131a029b85045b68181585d97816a916871ca8d3c208c16d87cfd478083816119be576119bd61211b565b5b067f30644e72e131a029b85045b68181585d97816a916871ca8d3c208c16d87cfd4703816119ef576119ee61211b565b5b069050919050565b600080611a24837f0c19139cb84c680a6e14116da060561765e05aa45a1c72a34f082305b61f3f52611d5f565b9050827f30644e72e131a029b85045b68181585d97816a916871ca8d3c208c16d87cfd4780611a5657611a5561211b565b5b82830914915050919050565b6000806000611b037f30644e72e131a029b85045b68181585d97816a916871ca8d3c208c16d87cfd4780611a9957611a9861211b565b5b7f30644e72e131a029b85045b68181585d97816a916871ca8d3c208c16d87cfd4780611ac857611ac761211b565b5b8788097f30644e72e131a029b85045b68181585d97816a916871ca8d3c208c16d87cfd4780611afa57611af961211b565b5b898a09086118ee565b90508315611b1757611b148161198b565b90505b611ba27f30644e72e131a029b85045b68181585d97816a916871ca8d3c208c16d87cfd4780611b4957611b4861211b565b5b7f183227397098d014dc2822db40c0ac2ecbc0b548b438e5469e10460b6c3e7ea47f30644e72e131a029b85045b68181585d97816a916871ca8d3c208c16d87cfd4780611b9957611b9861211b565b5b848a08096118ee565b92507f30644e72e131a029b85045b68181585d97816a916871ca8d3c208c16d87cfd4780611bd357611bd261211b565b5b611c0e7f30644e72e131a029b85045b68181585d97816a916871ca8d3c208c16d87cfd4780611c0557611c0461211b565b5b60028609611df7565b860991507f30644e72e131a029b85045b68181585d97816a916871ca8d3c208c16d87cfd4780611c4157611c4061211b565b5b611c7b7f30644e72e131a029b85045b68181585d97816a916871ca8d3c208c16d87cfd4780611c7357611c7261211b565b5b84850961198b565b7f30644e72e131a029b85045b68181585d97816a916871ca8d3c208c16d87cfd4780611caa57611ca961211b565b5b8586090886141580611d1f57507f30644e72e131a029b85045b68181585d97816a916871ca8d3c208c16d87cfd4780611ce657611ce561211b565b5b7f30644e72e131a029b85045b68181585d97816a916871ca8d3c208c16d87cfd4780611d1557611d1461211b565b5b8385096002098514155b15611d56576040517f7fcdd1f400000000000000000000000000000000000000000000000000000000815260040160405180910390fd5b50935093915050565b60008060405160208152602080820152602060408201528460608201528360808201527f30644e72e131a029b85045b68181585d97816a916871ca8d3c208c16d87cfd4760a082015260208160c08360055afa9150805192505080611df0576040517f7fcdd1f400000000000000000000000000000000000000000000000000000000815260040160405180910390fd5b5092915050565b6000611e23827f30644e72e131a029b85045b68181585d97816a916871ca8d3c208c16d87cfd45611d5f565b905060017f30644e72e131a029b85045b68181585d97816a916871ca8d3c208c16d87cfd4780611e5657611e5561211b565b5b82840914611e90576040517f7fcdd1f400000000000000000000000000000000000000000000000000000000815260040160405180910390fd5b919050565b6040518060800160405280600490602082028036833780820191505090505090565b604051806103000160405280601890602082028036833780820191505090505090565b6040518060200160405280600190602082028036833780820191505090505090565b600080fd5b600080fd5b600081905082602060080282011115611f2257611f21611f01565b5b92915050565b60006101008284031215611f3f57611f3e611efc565b5b6000611f4d84828501611f06565b91505092915050565b600060049050919050565b600081905092915050565b6000819050919050565b6000819050919050565b611f8981611f76565b82525050565b6000611f9b8383611f80565b60208301905092915050565b6000602082019050919050565b611fbd81611f56565b611fc78184611f61565b9250611fd282611f6c565b8060005b83811015612003578151611fea8782611f8f565b9650611ff583611fa7565b925050600181019050611fd6565b505050505050565b60006080820190506120206000830184611fb4565b92915050565b60008190508260206002028201111561204257612041611f01565b5b92915050565b60008061014083850312156120605761205f611efc565b5b600061206e85828601611f06565b92505061010061208085828601612026565b9150509250929050565b6000819050826020600402820111156120a6576120a5611f01565b5b92915050565b60008060c083850312156120c3576120c2611efc565b5b60006120d18582860161208a565b92505060806120e285828601612026565b9150509250929050565b7f4e487b7100000000000000000000000000000000000000000000000000000000600052603260045260246000fd5b7f4e487b7100000000000000000000000000000000000000000000000000000000600052601260045260246000fd5b7f4e487b7100000000000000000000000000000000000000000000000000000000600052601160045260246000fd5b600061218482611f76565b915061218f83611f76565b92508282039050818111156121a7576121a661214a565b5b9291505056fea2646970667358221220d804656c7d30a0dcf8fd79fb6713007da4d575f15ac835c1ce921ee3f8cbce7f64736f6c634300081c0033",
  "linkReferences": {},
  "deployedLinkReferences": {}
}